{
  "contractName": "DaoStorage",
  "abi": [
    {
      "constant": true,
      "inputs": [
        {
          "name": "",
          "type": "address"
        }
      ],
      "name": "hasAuthorityToSign",
      "outputs": [
        {
          "name": "",
          "type": "bool"
        }
      ],
      "payable": false,
      "stateMutability": "view",
      "type": "function"
    },
    {
      "constant": true,
      "inputs": [
        {
          "name": "",
          "type": "uint256"
        }
      ],
      "name": "signAuthority",
      "outputs": [
        {
          "name": "",
          "type": "address"
        }
      ],
      "payable": false,
      "stateMutability": "view",
      "type": "function"
    },
    {
      "constant": true,
      "inputs": [],
      "name": "totalWords",
      "outputs": [
        {
          "name": "",
          "type": "uint256"
        }
      ],
      "payable": false,
      "stateMutability": "view",
      "type": "function"
    },
    {
      "constant": true,
      "inputs": [
        {
          "name": "",
          "type": "uint256"
        }
      ],
      "name": "wordFrequency",
      "outputs": [
        {
          "name": "",
          "type": "uint256"
        }
      ],
      "payable": false,
      "stateMutability": "view",
      "type": "function"
    },
    {
      "constant": true,
      "inputs": [],
      "name": "fee",
      "outputs": [
        {
          "name": "",
          "type": "uint256"
        }
      ],
      "payable": false,
      "stateMutability": "view",
      "type": "function"
    },
    {
      "constant": true,
      "inputs": [],
      "name": "language",
      "outputs": [
        {
          "name": "",
          "type": "string"
        }
      ],
      "payable": false,
      "stateMutability": "view",
      "type": "function"
    },
    {
      "anonymous": false,
      "inputs": [
        {
          "indexed": false,
          "name": "_word",
          "type": "string"
        },
        {
          "indexed": true,
          "name": "_from",
          "type": "address"
        },
        {
          "indexed": false,
          "name": "_wordNumber",
          "type": "uint256"
        },
        {
          "indexed": true,
          "name": "_wordBytes32",
          "type": "bytes32"
        }
      ],
      "name": "wordAdded",
      "type": "event"
    },
    {
      "anonymous": false,
      "inputs": [
        {
          "indexed": false,
          "name": "_wordNumber",
          "type": "uint256"
        },
        {
          "indexed": true,
          "name": "_from",
          "type": "address"
        }
      ],
      "name": "wordRequested",
      "type": "event"
    },
    {
      "anonymous": false,
      "inputs": [
        {
          "indexed": false,
          "name": "_language",
          "type": "string"
        },
        {
          "indexed": false,
          "name": "_storageAddress",
          "type": "address"
        }
      ],
      "name": "storageCreated",
      "type": "event"
    },
    {
      "anonymous": false,
      "inputs": [
        {
          "indexed": false,
          "name": "_storageAddress",
          "type": "address"
        },
        {
          "indexed": false,
          "name": "_fee",
          "type": "uint256"
        }
      ],
      "name": "feeSchedule",
      "type": "event"
    },
    {
      "constant": false,
      "inputs": [
        {
          "name": "_language",
          "type": "string"
        },
        {
          "name": "_fee",
          "type": "uint256"
        }
      ],
      "name": "initialize",
      "outputs": [
        {
          "name": "",
          "type": "address"
        }
      ],
      "payable": false,
      "stateMutability": "nonpayable",
      "type": "function"
    },
    {
      "constant": false,
      "inputs": [
        {
          "name": "_word",
          "type": "string"
        }
      ],
      "name": "setWord",
      "outputs": [
        {
          "name": "",
          "type": "bool"
        }
      ],
      "payable": false,
      "stateMutability": "nonpayable",
      "type": "function"
    },
    {
      "constant": true,
      "inputs": [
        {
          "name": "_word",
          "type": "string"
        }
      ],
      "name": "getWordStringToUint256",
      "outputs": [
        {
          "name": "",
          "type": "uint256"
        }
      ],
      "payable": false,
      "stateMutability": "view",
      "type": "function"
    },
    {
      "constant": true,
      "inputs": [
        {
          "name": "_word",
          "type": "string"
        }
      ],
      "name": "getWordStringToBytes32",
      "outputs": [
        {
          "name": "",
          "type": "bytes32"
        }
      ],
      "payable": false,
      "stateMutability": "view",
      "type": "function"
    },
    {
      "constant": true,
      "inputs": [
        {
          "name": "_wordNumber",
          "type": "uint256"
        }
      ],
      "name": "getWordUint256ToString",
      "outputs": [
        {
          "name": "",
          "type": "string"
        }
      ],
      "payable": false,
      "stateMutability": "view",
      "type": "function"
    },
    {
      "constant": true,
      "inputs": [
        {
          "name": "_wordNumber",
          "type": "uint256"
        }
      ],
      "name": "getWordUint256ToBytes32",
      "outputs": [
        {
          "name": "",
          "type": "bytes32"
        }
      ],
      "payable": false,
      "stateMutability": "view",
      "type": "function"
    },
    {
      "constant": true,
      "inputs": [
        {
          "name": "_wordBytes",
          "type": "bytes32"
        }
      ],
      "name": "getWordBytes32ToString",
      "outputs": [
        {
          "name": "",
          "type": "string"
        }
      ],
      "payable": false,
      "stateMutability": "view",
      "type": "function"
    },
    {
      "constant": true,
      "inputs": [
        {
          "name": "_wordBytes",
          "type": "bytes32"
        }
      ],
      "name": "getWordBytes32ToUint256",
      "outputs": [
        {
          "name": "",
          "type": "uint256"
        }
      ],
      "payable": false,
      "stateMutability": "view",
      "type": "function"
    }
  ],
  "bytecode": "0x608060405234801561001057600080fd5b50611167806100206000396000f3fe6080604052600436106100d0576000357c0100000000000000000000000000000000000000000000000000000000900463ffffffff16806307707416146100d55780635531eef51461016f5780635a2efcf7146102095780637b06bcae1461027257806382f4fd5d146102ed57806388953ea2146103185780638beaf7d7146103675780638cffaeb6146104795780638f21808e1461052d578063cd048de61461057c578063d5fc61db1461061a578063ddca3f4314610669578063ed9978c714610694578063f6a6daf214610724575b600080fd5b3480156100e157600080fd5b50610159600480360360208110156100f857600080fd5b810190808035906020019064010000000081111561011557600080fd5b82018360208201111561012757600080fd5b8035906020019184600183028401116401000000008311171561014957600080fd5b90919293919293905050506107d8565b6040518082815260200191505060405180910390f35b34801561017b57600080fd5b506101f36004803603602081101561019257600080fd5b81019080803590602001906401000000008111156101af57600080fd5b8201836020820111156101c157600080fd5b803590602001918460018302840111640100000000831117156101e357600080fd5b909192939192939050505061080a565b6040518082815260200191505060405180910390f35b34801561021557600080fd5b506102586004803603602081101561022c57600080fd5b81019080803573ffffffffffffffffffffffffffffffffffffffff16906020019092919050505061083c565b604051808215151515815260200191505060405180910390f35b34801561027e57600080fd5b506102ab6004803603602081101561029557600080fd5b810190808035906020019092919050505061085c565b604051808273ffffffffffffffffffffffffffffffffffffffff1673ffffffffffffffffffffffffffffffffffffffff16815260200191505060405180910390f35b3480156102f957600080fd5b5061030261089a565b6040518082815260200191505060405180910390f35b34801561032457600080fd5b506103516004803603602081101561033b57600080fd5b81019080803590602001909291905050506108a0565b6040518082815260200191505060405180910390f35b34801561037357600080fd5b506104376004803603604081101561038a57600080fd5b81019080803590602001906401000000008111156103a757600080fd5b8201836020820111156103b957600080fd5b803590602001918460018302840111640100000000831117156103db57600080fd5b91908080601f016020809104026020016040519081016040528093929190818152602001838380828437600081840152601f19601f820116905080830192505050505050509192919290803590602001909291905050506108bd565b604051808273ffffffffffffffffffffffffffffffffffffffff1673ffffffffffffffffffffffffffffffffffffffff16815260200191505060405180910390f35b34801561048557600080fd5b506104b26004803603602081101561049c57600080fd5b8101908080359060200190929190505050610b7f565b6040518080602001828103825283818151815260200191508051906020019080838360005b838110156104f25780820151818401526020810190506104d7565b50505050905090810190601f16801561051f5780820380516001836020036101000a031916815260200191505b509250505060405180910390f35b34801561053957600080fd5b506105666004803603602081101561055057600080fd5b8101908080359060200190929190505050610c34565b6040518082815260200191505060405180910390f35b34801561058857600080fd5b506106006004803603602081101561059f57600080fd5b81019080803590602001906401000000008111156105bc57600080fd5b8201836020820111156105ce57600080fd5b803590602001918460018302840111640100000000831117156105f057600080fd5b9091929391929390505050610c51565b604051808215151515815260200191505060405180910390f35b34801561062657600080fd5b506106536004803603602081101561063d57600080fd5b8101908080359060200190929190505050610e94565b6040518082815260200191505060405180910390f35b34801561067557600080fd5b5061067e610eac565b6040518082815260200191505060405180910390f35b3480156106a057600080fd5b506106a9610eb2565b6040518080602001828103825283818151815260200191508051906020019080838360005b838110156106e95780820151818401526020810190506106ce565b50505050905090810190601f1680156107165780820380516001836020036101000a031916815260200191505b509250505060405180910390f35b34801561073057600080fd5b5061075d6004803603602081101561074757600080fd5b8101908080359060200190929190505050610f50565b6040518080602001828103825283818151815260200191508051906020019080838360005b8381101561079d578082015181840152602081019050610782565b50505050905090810190601f1680156107ca5780820380516001836020036101000a031916815260200191505b509250505060405180910390f35b6000603a8383604051808383808284378083019250505092505050908152602001604051809103902054905092915050565b6000603c8383604051808383808284378083019250505092505050908152602001604051809103902054905092915050565b60376020528060005260406000206000915054906101000a900460ff1681565b60368181548110151561086b57fe5b906000526020600020016000915054906101000a900473ffffffffffffffffffffffffffffffffffffffff1681565b60345481565b6000603d6000838152602001908152602001600020549050919050565b60008060019054906101000a900460ff16806108dd57506108dc611005565b5b806108f457506000809054906101000a900460ff16155b151561098e576040517f08c379a000000000000000000000000000000000000000000000000000000000815260040180806020018281038252602e8152602001807f436f6e747261637420696e7374616e63652068617320616c726561647920626581526020017f656e20696e697469616c697a656400000000000000000000000000000000000081525060400191505060405180910390fd5b60008060019054906101000a900460ff1615905080156109de576001600060016101000a81548160ff02191690831515021790555060016000806101000a81548160ff0219169083151502179055505b83603590805190602001906109f4929190611016565b50826038819055507f8b69fd8f705e3bab3f1aca5075cf9524555d661dc3b477c6bdba7388d04e56ad60353060405180806020018373ffffffffffffffffffffffffffffffffffffffff1673ffffffffffffffffffffffffffffffffffffffff168152602001828103825284818154600181600116156101000203166002900481526020019150805460018160011615610100020316600290048015610adb5780601f10610ab057610100808354040283529160200191610adb565b820191906000526020600020905b815481529060010190602001808311610abe57829003601f168201915b5050935050505060405180910390a17faf01b96fff6fb7a06be38b37ee751606e92d1c3bb3c5ffb36e6d5ade8b5a8b4d30603854604051808373ffffffffffffffffffffffffffffffffffffffff1673ffffffffffffffffffffffffffffffffffffffff1681526020018281526020019250505060405180910390a18015610b785760008060016101000a81548160ff0219169083151502179055505b5092915050565b6060603960008381526020019081526020016000208054600181600116156101000203166002900480601f016020809104026020016040519081016040528092919081815260200182805460018160011615610100020316600290048015610c285780601f10610bfd57610100808354040283529160200191610c28565b820191906000526020600020905b815481529060010190602001808311610c0b57829003601f168201915b50505050509050919050565b6000603e6000838152602001908152602001600020549050919050565b600080838360405160200180838380828437808301925050509250505060405160208183030381529060405280519060200120905083836039600060345481526020019081526020016000209190610caa929190611096565b50603454603a85856040518083838082843780830192505050925050509081526020016040518091039020819055508383603b60008481526020019081526020016000209190610cfb929190611096565b5080603c858560405180838380828437808301925050509250505090815260200160405180910390208190555080603d6000603454815260200190815260200160002081905550603454603e600083815260200190815260200160002081905550603f8190806001815401808255809150509060018203906000526020600020016000909192909190915055506041848490918060018154018082558091505090600182039060005260206000200160009091929390919293909192909192509190610dc8929190611096565b505060406034549080600181540180825580915050906001820390600052602060002001600090919290919091505550803373ffffffffffffffffffffffffffffffffffffffff167fea3ce421f944fb182977d78e1d8cc56be493e2910d5672cf407f2ebce8b8a274868660345460405180806020018381526020018281038252858582818152602001925080828437600081840152601f19601f82011690508083019250505094505050505060405180910390a3600160345401603481905550600191505092915050565b60336020528060005260406000206000915090505481565b60385481565b60358054600181600116156101000203166002900480601f016020809104026020016040519081016040528092919081815260200182805460018160011615610100020316600290048015610f485780601f10610f1d57610100808354040283529160200191610f48565b820191906000526020600020905b815481529060010190602001808311610f2b57829003601f168201915b505050505081565b6060603b60008381526020019081526020016000208054600181600116156101000203166002900480601f016020809104026020016040519081016040528092919081815260200182805460018160011615610100020316600290048015610ff95780601f10610fce57610100808354040283529160200191610ff9565b820191906000526020600020905b815481529060010190602001808311610fdc57829003601f168201915b50505050509050919050565b600080303b90506000811491505090565b828054600181600116156101000203166002900490600052602060002090601f016020900481019282601f1061105757805160ff1916838001178555611085565b82800160010185558215611085579182015b82811115611084578251825591602001919060010190611069565b5b5090506110929190611116565b5090565b828054600181600116156101000203166002900490600052602060002090601f016020900481019282601f106110d757803560ff1916838001178555611105565b82800160010185558215611105579182015b828111156111045782358255916020019190600101906110e9565b5b5090506111129190611116565b5090565b61113891905b8082111561113457600081600090555060010161111c565b5090565b9056fea165627a7a72305820afd0a5529f0f3c7cc052531bfb0a11fdeea603aeb08fe1238a0151819ba9e3d70029",
  "source": "pragma solidity ^0.5.0;\n\nimport \"zos-lib/contracts/Initializable.sol\";\n//import \"openzeppelin-eth/contracts/token/ERC20/StandaloneERC20.sol\";\n\n//The contract should not also manage the token unless it becomes finacially nessesary.\ncontract DaoStorage is Initializable {\n\n    mapping(uint256 => uint256) public wordFrequency;\n    uint256 public totalWords;\n    string public language;\n\n    address[] public signAuthority;\n    mapping(address => bool) public hasAuthorityToSign;\n\n    uint256 public fee;\n    \n    //modifyer to check if Uint is valid\n    //modifyer to check if Bytes32 is valid\n    //modifyer to check if String is valid\n    \n    //Note: To make this contract general, maybe you can have an intializer which sets which are relevant.\n    //To limit the calls to only the manager contract a modifyer should be created to limit all paid calls.\n    \n    //Store words based on Integers\n    mapping(uint256 => string) internal wordByNumber;\n    mapping(string => uint256) internal numberForWord;\n    mapping(bytes32 => string) internal wordByBytes32;\n    mapping(string => bytes32) internal bytes32ForWord;\n    mapping(uint256 => bytes32) internal uint256ForBytes32;\n    mapping(bytes32 => uint256) internal bytes32ForWordUint256;\n    \n    //Arrays\n    bytes32[] internal arrayOfBytes32;\n    uint256[] internal arrayOfUint256;\n    string[] internal arrayOfWords;\n\n    \n    //events for accessing words\n    //wordAdded\n    event wordAdded(\n        string _word,\n        address indexed _from,\n        uint256 _wordNumber,\n        bytes32 indexed _wordBytes32\n        );\n\n    //wordRequested\n    event wordRequested(\n        uint256 _wordNumber,\n        address indexed _from);\n\n    //Storage Created\n    event storageCreated(\n        string _language,\n        address _storageAddress\n    );\n\n    //Fee Schedule\n    event feeSchedule(\n        address _storageAddress,\n        uint256 _fee\n    );\n       \n    function initialize(string memory _language, uint256 _fee) initializer public returns(address){\n        language = _language;\n        fee = _fee;\n        emit storageCreated(language, address(this));\n        emit feeSchedule(address(this), fee);\n    }\n    \n    //WordSetter\n    \n    function setWord(string calldata _word) external returns(bool){\n        //check word first\n        \n        bytes32 _wordBytes32 = keccak256(abi.encodePacked(_word));\n        \n        wordByNumber[totalWords] = _word;\n        numberForWord[_word] = totalWords;\n        wordByBytes32[_wordBytes32] = _word;\n        bytes32ForWord[_word] = _wordBytes32;\n        uint256ForBytes32[totalWords] = _wordBytes32;\n        bytes32ForWordUint256[_wordBytes32] = totalWords;\n        \n        arrayOfBytes32.push(_wordBytes32);\n        arrayOfWords.push(_word);\n        arrayOfUint256.push(totalWords);\n        \n        \n        emit wordAdded(_word, msg.sender,totalWords,_wordBytes32);\n        totalWords = totalWords + 1;\n        return true;\n    }\n    \n    //Public Getters\n    \n    //getWordStringToUint256\n    function getWordStringToUint256(string calldata _word) view external returns(uint256){\n        return numberForWord[_word];\n    }\n    //getWordStringToBytes32\n    function getWordStringToBytes32(string calldata _word) view external returns(bytes32){\n        return bytes32ForWord[_word];\n    }\n    //getWordUint256ToString\n    function getWordUint256ToString(uint256 _wordNumber) view external returns(string memory){\n        return wordByNumber[_wordNumber];\n    }\n    //getWordUint256ToBytes32\n    function getWordUint256ToBytes32(uint256 _wordNumber) view external returns(bytes32){\n        return uint256ForBytes32[_wordNumber];\n    }\n    //getWordBytes32ToString\n    function getWordBytes32ToString(bytes32 _wordBytes) view external returns(string memory){\n        return wordByBytes32[_wordBytes];\n    }\n    //getWordBytes32ToUint256\n    function getWordBytes32ToUint256(bytes32 _wordBytes) view external returns(uint256){\n        return bytes32ForWordUint256[_wordBytes];\n    }\n\n    //Utils\n\n    function isContract(address _addr) private view returns (bool status){\n        uint32 size;\n        assembly {\n            size := extcodesize(_addr)\n        }\n        return (size > 0);\n}\n\n}",
  "sourcePath": "/Users/dennisonzeppelin/Documents/word-dao/contracts/DaoStorage.sol",
  "compiler": {
    "name": "solc",
    "version": "0.5.0+commit.1d4f565a.Emscripten.clang"
  },
  "schemaVersion": "3.0.1",
  "updatedAt": "2019-04-05T14:53:56.788Z",
  "devdoc": {
    "methods": {}
  },
  "userdoc": {
    "methods": {}
  }
}