{
  "contractName": "DaoStorage",
  "abi": [
    {
      "constant": true,
      "inputs": [
        {
          "name": "",
          "type": "address"
        }
      ],
      "name": "hasAuthorityToSign",
      "outputs": [
        {
          "name": "",
          "type": "bool"
        }
      ],
      "payable": false,
      "stateMutability": "view",
      "type": "function"
    },
    {
      "constant": true,
      "inputs": [
        {
          "name": "",
          "type": "uint256"
        }
      ],
      "name": "signAuthority",
      "outputs": [
        {
          "name": "",
          "type": "address"
        }
      ],
      "payable": false,
      "stateMutability": "view",
      "type": "function"
    },
    {
      "constant": true,
      "inputs": [],
      "name": "totalWords",
      "outputs": [
        {
          "name": "",
          "type": "uint256"
        }
      ],
      "payable": false,
      "stateMutability": "view",
      "type": "function"
    },
    {
      "constant": true,
      "inputs": [
        {
          "name": "",
          "type": "uint256"
        }
      ],
      "name": "wordFrequency",
      "outputs": [
        {
          "name": "",
          "type": "uint256"
        }
      ],
      "payable": false,
      "stateMutability": "view",
      "type": "function"
    },
    {
      "constant": true,
      "inputs": [],
      "name": "language",
      "outputs": [
        {
          "name": "",
          "type": "string"
        }
      ],
      "payable": false,
      "stateMutability": "view",
      "type": "function"
    },
    {
      "anonymous": false,
      "inputs": [
        {
          "indexed": false,
          "name": "_word",
          "type": "string"
        },
        {
          "indexed": true,
          "name": "_from",
          "type": "address"
        },
        {
          "indexed": false,
          "name": "_wordNumber",
          "type": "uint256"
        },
        {
          "indexed": true,
          "name": "_wordBytes32",
          "type": "bytes32"
        }
      ],
      "name": "wordAdded",
      "type": "event"
    },
    {
      "anonymous": false,
      "inputs": [
        {
          "indexed": false,
          "name": "_wordNumber",
          "type": "uint256"
        },
        {
          "indexed": true,
          "name": "_from",
          "type": "address"
        }
      ],
      "name": "wordRequested",
      "type": "event"
    },
    {
      "anonymous": false,
      "inputs": [
        {
          "indexed": false,
          "name": "_language",
          "type": "string"
        },
        {
          "indexed": false,
          "name": "_contractAddress",
          "type": "address"
        }
      ],
      "name": "storageCreated",
      "type": "event"
    },
    {
      "constant": false,
      "inputs": [
        {
          "name": "_language",
          "type": "string"
        }
      ],
      "name": "initialize",
      "outputs": [
        {
          "name": "",
          "type": "address"
        }
      ],
      "payable": false,
      "stateMutability": "nonpayable",
      "type": "function"
    },
    {
      "constant": false,
      "inputs": [
        {
          "name": "_word",
          "type": "string"
        }
      ],
      "name": "setWord",
      "outputs": [
        {
          "name": "",
          "type": "uint256"
        },
        {
          "name": "",
          "type": "bytes32"
        }
      ],
      "payable": false,
      "stateMutability": "nonpayable",
      "type": "function"
    },
    {
      "constant": true,
      "inputs": [
        {
          "name": "_word",
          "type": "string"
        }
      ],
      "name": "getWordStringToUint256",
      "outputs": [
        {
          "name": "",
          "type": "uint256"
        }
      ],
      "payable": false,
      "stateMutability": "view",
      "type": "function"
    },
    {
      "constant": true,
      "inputs": [
        {
          "name": "_word",
          "type": "string"
        }
      ],
      "name": "getWordStringToBytes32",
      "outputs": [
        {
          "name": "",
          "type": "bytes32"
        }
      ],
      "payable": false,
      "stateMutability": "view",
      "type": "function"
    },
    {
      "constant": true,
      "inputs": [
        {
          "name": "_wordNumber",
          "type": "uint256"
        }
      ],
      "name": "getWordUint256ToString",
      "outputs": [
        {
          "name": "",
          "type": "string"
        }
      ],
      "payable": false,
      "stateMutability": "view",
      "type": "function"
    },
    {
      "constant": true,
      "inputs": [
        {
          "name": "_wordNumber",
          "type": "uint256"
        }
      ],
      "name": "getWordUint256ToBytes32",
      "outputs": [
        {
          "name": "",
          "type": "bytes32"
        }
      ],
      "payable": false,
      "stateMutability": "view",
      "type": "function"
    },
    {
      "constant": true,
      "inputs": [
        {
          "name": "_wordBytes",
          "type": "bytes32"
        }
      ],
      "name": "getWordBytes32ToString",
      "outputs": [
        {
          "name": "",
          "type": "string"
        }
      ],
      "payable": false,
      "stateMutability": "view",
      "type": "function"
    },
    {
      "constant": true,
      "inputs": [
        {
          "name": "_wordBytes",
          "type": "bytes32"
        }
      ],
      "name": "getWordBytes32ToUint256",
      "outputs": [
        {
          "name": "",
          "type": "uint256"
        }
      ],
      "payable": false,
      "stateMutability": "view",
      "type": "function"
    }
  ],
  "bytecode": "0x608060405234801561001057600080fd5b506110ae806100206000396000f3fe6080604052600436106100c5576000357c0100000000000000000000000000000000000000000000000000000000900463ffffffff16806307707416146100ca5780635531eef5146101645780635a2efcf7146101fe5780637b06bcae1461026757806382f4fd5d146102e257806388953ea21461030d5780638cffaeb61461035c5780638f21808e14610410578063cd048de61461045f578063d5fc61db14610500578063ed9978c71461054f578063f62d1888146105df578063f6a6daf2146106e7575b600080fd5b3480156100d657600080fd5b5061014e600480360360208110156100ed57600080fd5b810190808035906020019064010000000081111561010a57600080fd5b82018360208201111561011c57600080fd5b8035906020019184600183028401116401000000008311171561013e57600080fd5b909192939192939050505061079b565b6040518082815260200191505060405180910390f35b34801561017057600080fd5b506101e86004803603602081101561018757600080fd5b81019080803590602001906401000000008111156101a457600080fd5b8201836020820111156101b657600080fd5b803590602001918460018302840111640100000000831117156101d857600080fd5b90919293919293905050506107cd565b6040518082815260200191505060405180910390f35b34801561020a57600080fd5b5061024d6004803603602081101561022157600080fd5b81019080803573ffffffffffffffffffffffffffffffffffffffff1690602001909291905050506107ff565b604051808215151515815260200191505060405180910390f35b34801561027357600080fd5b506102a06004803603602081101561028a57600080fd5b810190808035906020019092919050505061081f565b604051808273ffffffffffffffffffffffffffffffffffffffff1673ffffffffffffffffffffffffffffffffffffffff16815260200191505060405180910390f35b3480156102ee57600080fd5b506102f761085d565b6040518082815260200191505060405180910390f35b34801561031957600080fd5b506103466004803603602081101561033057600080fd5b8101908080359060200190929190505050610863565b6040518082815260200191505060405180910390f35b34801561036857600080fd5b506103956004803603602081101561037f57600080fd5b8101908080359060200190929190505050610880565b6040518080602001828103825283818151815260200191508051906020019080838360005b838110156103d55780820151818401526020810190506103ba565b50505050905090810190601f1680156104025780820380516001836020036101000a031916815260200191505b509250505060405180910390f35b34801561041c57600080fd5b506104496004803603602081101561043357600080fd5b8101908080359060200190929190505050610935565b6040518082815260200191505060405180910390f35b34801561046b57600080fd5b506104e36004803603602081101561048257600080fd5b810190808035906020019064010000000081111561049f57600080fd5b8201836020820111156104b157600080fd5b803590602001918460018302840111640100000000831117156104d357600080fd5b9091929391929390505050610952565b604051808381526020018281526020019250505060405180910390f35b34801561050c57600080fd5b506105396004803603602081101561052357600080fd5b8101908080359060200190929190505050610b94565b6040518082815260200191505060405180910390f35b34801561055b57600080fd5b50610564610bac565b6040518080602001828103825283818151815260200191508051906020019080838360005b838110156105a4578082015181840152602081019050610589565b50505050905090810190601f1680156105d15780820380516001836020036101000a031916815260200191505b509250505060405180910390f35b3480156105eb57600080fd5b506106a56004803603602081101561060257600080fd5b810190808035906020019064010000000081111561061f57600080fd5b82018360208201111561063157600080fd5b8035906020019184600183028401116401000000008311171561065357600080fd5b91908080601f016020809104026020016040519081016040528093929190818152602001838380828437600081840152601f19601f820116905080830192505050505050509192919290505050610c4a565b604051808273ffffffffffffffffffffffffffffffffffffffff1673ffffffffffffffffffffffffffffffffffffffff16815260200191505060405180910390f35b3480156106f357600080fd5b506107206004803603602081101561070a57600080fd5b8101908080359060200190929190505050610e97565b6040518080602001828103825283818151815260200191508051906020019080838360005b83811015610760578082015181840152602081019050610745565b50505050905090810190601f16801561078d5780820380516001836020036101000a031916815260200191505b509250505060405180910390f35b600060368383604051808383808284378083019250505092505050908152602001604051809103902054905092915050565b600060388383604051808383808284378083019250505092505050908152602001604051809103902054905092915050565b60346020528060005260406000206000915054906101000a900460ff1681565b60338181548110151561082e57fe5b906000526020600020016000915054906101000a900473ffffffffffffffffffffffffffffffffffffffff1681565b603f5481565b600060396000838152602001908152602001600020549050919050565b6060603560008381526020019081526020016000208054600181600116156101000203166002900480601f0160208091040260200160405190810160405280929190818152602001828054600181600116156101000203166002900480156109295780601f106108fe57610100808354040283529160200191610929565b820191906000526020600020905b81548152906001019060200180831161090c57829003601f168201915b50505050509050919050565b6000603a6000838152602001908152602001600020549050919050565b60008060008484604051602001808383808284378083019250505092505050604051602081830303815290604052805190602001209050848460356000603f54815260200190815260200160002091906109ad929190610f5d565b50603f546036868660405180838380828437808301925050509250505090815260200160405180910390208190555084846037600084815260200190815260200160002091906109fe929190610f5d565b5080603886866040518083838082843780830192505050925050509081526020016040518091039020819055508060396000603f54815260200190815260200160002081905550603f54603a600083815260200190815260200160002081905550603b819080600181540180825580915050906001820390600052602060002001600090919290919091505550603d858590918060018154018082558091505090600182039060005260206000200160009091929390919293909192909192509190610acb929190610f5d565b5050603c603f549080600181540180825580915050906001820390600052602060002001600090919290919091505550803373ffffffffffffffffffffffffffffffffffffffff167fea3ce421f944fb182977d78e1d8cc56be493e2910d5672cf407f2ebce8b8a2748787603f5460405180806020018381526020018281038252858582818152602001925080828437600081840152601f19601f82011690508083019250505094505050505060405180910390a36001603f5401603f81905550509250929050565b603e6020528060005260406000206000915090505481565b60408054600181600116156101000203166002900480601f016020809104026020016040519081016040528092919081815260200182805460018160011615610100020316600290048015610c425780601f10610c1757610100808354040283529160200191610c42565b820191906000526020600020905b815481529060010190602001808311610c2557829003601f168201915b505050505081565b60008060019054906101000a900460ff1680610c6a5750610c69610f4c565b5b80610c8157506000809054906101000a900460ff16155b1515610d1b576040517f08c379a000000000000000000000000000000000000000000000000000000000815260040180806020018281038252602e8152602001807f436f6e747261637420696e7374616e63652068617320616c726561647920626581526020017f656e20696e697469616c697a656400000000000000000000000000000000000081525060400191505060405180910390fd5b60008060019054906101000a900460ff161590508015610d6b576001600060016101000a81548160ff02191690831515021790555060016000806101000a81548160ff0219169083151502179055505b8260409080519060200190610d81929190610fdd565b507f8b69fd8f705e3bab3f1aca5075cf9524555d661dc3b477c6bdba7388d04e56ad60403060405180806020018373ffffffffffffffffffffffffffffffffffffffff1673ffffffffffffffffffffffffffffffffffffffff168152602001828103825284818154600181600116156101000203166002900481526020019150805460018160011615610100020316600290048015610e615780601f10610e3657610100808354040283529160200191610e61565b820191906000526020600020905b815481529060010190602001808311610e4457829003601f168201915b5050935050505060405180910390a18015610e915760008060016101000a81548160ff0219169083151502179055505b50919050565b6060603760008381526020019081526020016000208054600181600116156101000203166002900480601f016020809104026020016040519081016040528092919081815260200182805460018160011615610100020316600290048015610f405780601f10610f1557610100808354040283529160200191610f40565b820191906000526020600020905b815481529060010190602001808311610f2357829003601f168201915b50505050509050919050565b600080303b90506000811491505090565b828054600181600116156101000203166002900490600052602060002090601f016020900481019282601f10610f9e57803560ff1916838001178555610fcc565b82800160010185558215610fcc579182015b82811115610fcb578235825591602001919060010190610fb0565b5b509050610fd9919061105d565b5090565b828054600181600116156101000203166002900490600052602060002090601f016020900481019282601f1061101e57805160ff191683800117855561104c565b8280016001018555821561104c579182015b8281111561104b578251825591602001919060010190611030565b5b509050611059919061105d565b5090565b61107f91905b8082111561107b576000816000905550600101611063565b5090565b9056fea165627a7a7230582089067d81e6a7ea3435a9792c1c6ff114be2427c02fd4266a40a487ef3c35749d0029",
  "source": "pragma solidity ^0.5.0;\n\nimport \"zos-lib/contracts/Initializable.sol\";\n//import \"openzeppelin-eth/contracts/token/ERC20/StandaloneERC20.sol\";\n\n//The contract should not also manage the token unless it becomes finacially nessesary.\ncontract DaoStorage is Initializable {\n\n    //StandaloneERC20 public erc20;\n\n    address[] public signAuthority;\n    mapping(address => bool) public hasAuthorityToSign;\n    \n    //modifyer to check if Uint is valid\n    //modifyer to check if Bytes32 is valid\n    //modifyer to check if String is valid\n    \n    //Note: To make this contract general, maybe you can have an intializer which sets which are relevant.\n    //To limit the calls to only the manager contract a modifyer should be created to limit all paid calls.\n    \n    //Store words based on Integers\n    mapping(uint256 => string) internal wordByNumber;\n    mapping(string => uint256) internal numberForWord;\n    mapping(bytes32 => string) internal wordByBytes32;\n    mapping(string => bytes32) internal bytes32ForWord;\n    mapping(uint256 => bytes32) internal uint256ForBytes32;\n    mapping(bytes32 => uint256) internal bytes32ForWordUint256;\n    \n    //Arrays\n    bytes32[] internal arrayOfBytes32;\n    uint256[] internal arrayOfUint256;\n    string[] internal arrayOfWords;\n    \n    //Statistics\n    mapping(uint256 => uint256) public wordFrequency;\n    uint256 public totalWords;\n    string public language;\n    \n    //events for accessing words\n    //wordAdded\n    event wordAdded(\n        string _word,\n        address indexed _from,\n        uint256 _wordNumber,\n        bytes32 indexed _wordBytes32\n        );\n\n    //wordRequested\n    event wordRequested(\n        uint256 _wordNumber,\n        address indexed _from);\n\n    //Storage Created\n    event storageCreated(\n        string _language,\n        address _contractAddress\n    );\n       \n    function initialize(string memory _language) initializer public returns(address){\n        language = _language;\n        emit storageCreated(language, address(this));\n    }\n    \n    //WordSetter\n    \n    function setWord(string calldata _word) external returns(uint256, bytes32){\n        //check word first\n        \n        bytes32 _wordBytes32 = keccak256(abi.encodePacked(_word));\n        \n        wordByNumber[totalWords] = _word;\n        numberForWord[_word] = totalWords;\n        wordByBytes32[_wordBytes32] = _word;\n        bytes32ForWord[_word] = _wordBytes32;\n        uint256ForBytes32[totalWords] = _wordBytes32;\n        bytes32ForWordUint256[_wordBytes32] = totalWords;\n        \n        arrayOfBytes32.push(_wordBytes32);\n        arrayOfWords.push(_word);\n        arrayOfUint256.push(totalWords);\n        \n        \n        emit wordAdded(_word, msg.sender,totalWords,_wordBytes32);\n        totalWords = totalWords + 1;\n    }\n    \n    //Public Getters\n    \n    //getWordStringToUint256\n    function getWordStringToUint256(string calldata _word) view external returns(uint256){\n        return numberForWord[_word];\n    }\n    //getWordStringToBytes32\n    function getWordStringToBytes32(string calldata _word) view external returns(bytes32){\n        return bytes32ForWord[_word];\n    }\n    //getWordUint256ToString\n    function getWordUint256ToString(uint256 _wordNumber) view external returns(string memory){\n        return wordByNumber[_wordNumber];\n    }\n    //getWordUint256ToBytes32\n    function getWordUint256ToBytes32(uint256 _wordNumber) view external returns(bytes32){\n        return uint256ForBytes32[_wordNumber];\n    }\n    //getWordBytes32ToString\n    function getWordBytes32ToString(bytes32 _wordBytes) view external returns(string memory){\n        return wordByBytes32[_wordBytes];\n    }\n    //getWordBytes32ToUint256\n    function getWordBytes32ToUint256(bytes32 _wordBytes) view external returns(uint256){\n        return bytes32ForWordUint256[_wordBytes];\n    }\n\n    //Utils\n\n    function isContract(address _addr) private view returns (bool status){\n        uint32 size;\n        assembly {\n            size := extcodesize(_addr)\n        }\n        return (size > 0);\n}\n\n}",
  "sourcePath": "/Users/dennisonzeppelin/Documents/word-dao/contracts/DaoStorage.sol",
  "compiler": {
    "name": "solc",
    "version": "0.5.0+commit.1d4f565a.Emscripten.clang"
  },
  "schemaVersion": "3.0.1",
  "updatedAt": "2019-04-03T20:28:24.612Z",
  "devdoc": {
    "methods": {}
  },
  "userdoc": {
    "methods": {}
  }
}