{
  "contractName": "Manager",
  "abi": [
    {
      "payable": true,
      "stateMutability": "payable",
      "type": "fallback"
    },
    {
      "anonymous": false,
      "inputs": [
        {
          "indexed": false,
          "name": "",
          "type": "string"
        },
        {
          "indexed": false,
          "name": "",
          "type": "address"
        },
        {
          "indexed": false,
          "name": "",
          "type": "address"
        }
      ],
      "name": "daoStorageCreated",
      "type": "event"
    },
    {
      "constant": false,
      "inputs": [
        {
          "name": "_language",
          "type": "string"
        },
        {
          "name": "_name",
          "type": "string"
        },
        {
          "name": "_symbol",
          "type": "string"
        },
        {
          "name": "_decimals",
          "type": "uint8"
        },
        {
          "name": "_initialSupply",
          "type": "uint256"
        },
        {
          "name": "_initialHolder",
          "type": "address"
        },
        {
          "name": "_minters",
          "type": "address[]"
        },
        {
          "name": "_pausers",
          "type": "address[]"
        }
      ],
      "name": "createStorage",
      "outputs": [
        {
          "name": "",
          "type": "address"
        },
        {
          "name": "",
          "type": "address"
        }
      ],
      "payable": false,
      "stateMutability": "nonpayable",
      "type": "function"
    },
    {
      "constant": false,
      "inputs": [
        {
          "name": "_word",
          "type": "string"
        }
      ],
      "name": "addWord",
      "outputs": [],
      "payable": false,
      "stateMutability": "nonpayable",
      "type": "function"
    },
    {
      "constant": false,
      "inputs": [],
      "name": "getBalance",
      "outputs": [
        {
          "name": "",
          "type": "uint256"
        }
      ],
      "payable": false,
      "stateMutability": "nonpayable",
      "type": "function"
    }
  ],
  "bytecode": "0x608060405234801561001057600080fd5b50614c9a806100206000396000f3fe608060405260043610610057576000357c0100000000000000000000000000000000000000000000000000000000900463ffffffff16806312065fe0146100595780634974da8114610084578063ef20ef241461014c575b005b34801561006557600080fd5b5061006e610515565b6040518082815260200191505060405180910390f35b34801561009057600080fd5b5061014a600480360360208110156100a757600080fd5b81019080803590602001906401000000008111156100c457600080fd5b8201836020820111156100d657600080fd5b803590602001918460018302840111640100000000831117156100f857600080fd5b91908080601f016020809104026020016040519081016040528093929190818152602001838380828437600081840152601f19601f820116905080830192505050505050509192919290505050610534565b005b34801561015857600080fd5b506104a0600480360361010081101561017057600080fd5b810190808035906020019064010000000081111561018d57600080fd5b82018360208201111561019f57600080fd5b803590602001918460018302840111640100000000831117156101c157600080fd5b91908080601f016020809104026020016040519081016040528093929190818152602001838380828437600081840152601f19601f8201169050808301925050505050505091929192908035906020019064010000000081111561022457600080fd5b82018360208201111561023657600080fd5b8035906020019184600183028401116401000000008311171561025857600080fd5b91908080601f016020809104026020016040519081016040528093929190818152602001838380828437600081840152601f19601f820116905080830192505050505050509192919290803590602001906401000000008111156102bb57600080fd5b8201836020820111156102cd57600080fd5b803590602001918460018302840111640100000000831117156102ef57600080fd5b91908080601f016020809104026020016040519081016040528093929190818152602001838380828437600081840152601f19601f820116905080830192505050505050509192919290803560ff16906020019092919080359060200190929190803573ffffffffffffffffffffffffffffffffffffffff1690602001909291908035906020019064010000000081111561038957600080fd5b82018360208201111561039b57600080fd5b803590602001918460208302840111640100000000831117156103bd57600080fd5b919080806020026020016040519081016040528093929190818152602001838360200280828437600081840152601f19601f8201169050808301925050505050505091929192908035906020019064010000000081111561041d57600080fd5b82018360208201111561042f57600080fd5b8035906020019184602083028401116401000000008311171561045157600080fd5b919080806020026020016040519081016040528093929190818152602001838360200280828437600081840152601f19601f820116905080830192505050505050509192919290505050610537565b604051808373ffffffffffffffffffffffffffffffffffffffff1673ffffffffffffffffffffffffffffffffffffffff1681526020018273ffffffffffffffffffffffffffffffffffffffff1673ffffffffffffffffffffffffffffffffffffffff1681526020019250505060405180910390f35b60003073ffffffffffffffffffffffffffffffffffffffff1631905090565b50565b6000806000610544610a80565b604051809103906000f080158015610560573d6000803e3d6000fd5b5090508073ffffffffffffffffffffffffffffffffffffffff166348be01c68b8b8b8b308b8b6040518863ffffffff167c01000000000000000000000000000000000000000000000000000000000281526004018080602001806020018860ff1660ff1681526020018781526020018673ffffffffffffffffffffffffffffffffffffffff1673ffffffffffffffffffffffffffffffffffffffff168152602001806020018060200185810385528c818151815260200191508051906020019080838360005b83811015610641578082015181840152602081019050610626565b50505050905090810190601f16801561066e5780820380516001836020036101000a031916815260200191505b5085810384528b818151815260200191508051906020019080838360005b838110156106a757808201518184015260208101905061068c565b50505050905090810190601f1680156106d45780820380516001836020036101000a031916815260200191505b50858103835287818151815260200191508051906020019060200280838360005b838110156107105780820151818401526020810190506106f5565b50505050905001858103825286818151815260200191508051906020019060200280838360005b83811015610752578082015181840152602081019050610737565b505050509050019b505050505050505050505050600060405180830381600087803b15801561078057600080fd5b505af1158015610794573d6000803e3d6000fd5b5050505060006107a2610a90565b604051809103906000f0801580156107be573d6000803e3d6000fd5b5090508073ffffffffffffffffffffffffffffffffffffffff1663f62d18888d6040518263ffffffff167c01000000000000000000000000000000000000000000000000000000000281526004018080602001828103825283818151815260200191508051906020019080838360005b8381101561084957808201518184015260208101905061082e565b50505050905090810190601f1680156108765780820380516001836020036101000a031916815260200191505b5092505050602060405180830381600087803b15801561089557600080fd5b505af11580156108a9573d6000803e3d6000fd5b505050506040513d60208110156108bf57600080fd5b8101908080519060200190929190505050506108d9610aa0565b8c816000018190525082816020019073ffffffffffffffffffffffffffffffffffffffff16908173ffffffffffffffffffffffffffffffffffffffff168152505081816040019073ffffffffffffffffffffffffffffffffffffffff16908173ffffffffffffffffffffffffffffffffffffffff16815250507f5adddd53cd829896f17ea7bf3a71ba09a8a106775b0d4095d5ffd8c76715b7e681600001518260200151836040015160405180806020018473ffffffffffffffffffffffffffffffffffffffff1673ffffffffffffffffffffffffffffffffffffffff1681526020018373ffffffffffffffffffffffffffffffffffffffff1673ffffffffffffffffffffffffffffffffffffffff168152602001828103825285818151815260200191508051906020019080838360005b83811015610a26578082015181840152602081019050610a0b565b50505050905090810190601f168015610a535780820380516001836020036101000a031916815260200191505b5094505050505060405180910390a180602001518160400151945094505050509850989650505050505050565b6040516130b280610aef83390190565b6040516110ce80613ba183390190565b60606040519081016040528060608152602001600073ffffffffffffffffffffffffffffffffffffffff168152602001600073ffffffffffffffffffffffffffffffffffffffff168152509056fe608060405234801561001057600080fd5b50613092806100206000396000f3fe608060405260043610610149576000357c0100000000000000000000000000000000000000000000000000000000900463ffffffff16806306fdde031461014e578063095ea7b3146101de5780631624f6c61461025157806318160ddd146103bd57806323b872dd146103e857806331392b4a1461047b578063313ce5671461070f57806339509351146107405780633f4ba83a146107b357806340c10f19146107ca57806346fbf68e1461083d57806348be01c6146108a65780635c975abb14610b645780636ef8d66d14610b9357806370a0823114610baa57806382dc1ec414610c0f5780638456cb5914610c6057806395d89b4114610c77578063983b2d5614610d075780639865027514610d58578063a457c2d714610d6f578063a9059cbb14610de2578063aa271e1a14610e55578063c4d66de814610ebe578063dd62ed3e14610f0f575b600080fd5b34801561015a57600080fd5b50610163610f94565b6040518080602001828103825283818151815260200191508051906020019080838360005b838110156101a3578082015181840152602081019050610188565b50505050905090810190601f1680156101d05780820380516001836020036101000a031916815260200191505b509250505060405180910390f35b3480156101ea57600080fd5b506102376004803603604081101561020157600080fd5b81019080803573ffffffffffffffffffffffffffffffffffffffff16906020019092919080359060200190929190505050611036565b604051808215151515815260200191505060405180910390f35b34801561025d57600080fd5b506103bb6004803603606081101561027457600080fd5b810190808035906020019064010000000081111561029157600080fd5b8201836020820111156102a357600080fd5b803590602001918460018302840111640100000000831117156102c557600080fd5b91908080601f016020809104026020016040519081016040528093929190818152602001838380828437600081840152601f19601f8201169050808301925050505050505091929192908035906020019064010000000081111561032857600080fd5b82018360208201111561033a57600080fd5b8035906020019184600183028401116401000000008311171561035c57600080fd5b91908080601f016020809104026020016040519081016040528093929190818152602001838380828437600081840152601f19601f820116905080830192505050505050509192919290803560ff169060200190929190505050611067565b005b3480156103c957600080fd5b506103d26111f7565b6040518082815260200191505060405180910390f35b3480156103f457600080fd5b506104616004803603606081101561040b57600080fd5b81019080803573ffffffffffffffffffffffffffffffffffffffff169060200190929190803573ffffffffffffffffffffffffffffffffffffffff16906020019092919080359060200190929190505050611201565b604051808215151515815260200191505060405180910390f35b34801561048757600080fd5b5061070d600480360360a081101561049e57600080fd5b81019080803590602001906401000000008111156104bb57600080fd5b8201836020820111156104cd57600080fd5b803590602001918460018302840111640100000000831117156104ef57600080fd5b91908080601f016020809104026020016040519081016040528093929190818152602001838380828437600081840152601f19601f8201169050808301925050505050505091929192908035906020019064010000000081111561055257600080fd5b82018360208201111561056457600080fd5b8035906020019184600183028401116401000000008311171561058657600080fd5b91908080601f016020809104026020016040519081016040528093929190818152602001838380828437600081840152601f19601f820116905080830192505050505050509192919290803560ff169060200190929190803590602001906401000000008111156105f657600080fd5b82018360208201111561060857600080fd5b8035906020019184602083028401116401000000008311171561062a57600080fd5b919080806020026020016040519081016040528093929190818152602001838360200280828437600081840152601f19601f8201169050808301925050505050505091929192908035906020019064010000000081111561068a57600080fd5b82018360208201111561069c57600080fd5b803590602001918460208302840111640100000000831117156106be57600080fd5b919080806020026020016040519081016040528093929190818152602001838360200280828437600081840152601f19601f820116905080830192505050505050509192919290505050611234565b005b34801561071b57600080fd5b50610724611422565b604051808260ff1660ff16815260200191505060405180910390f35b34801561074c57600080fd5b506107996004803603604081101561076357600080fd5b81019080803573ffffffffffffffffffffffffffffffffffffffff16906020019092919080359060200190929190505050611439565b604051808215151515815260200191505060405180910390f35b3480156107bf57600080fd5b506107c861146a565b005b3480156107d657600080fd5b50610823600480360360408110156107ed57600080fd5b81019080803573ffffffffffffffffffffffffffffffffffffffff1690602001909291908035906020019092919050505061151b565b604051808215151515815260200191505060405180910390f35b34801561084957600080fd5b5061088c6004803603602081101561086057600080fd5b81019080803573ffffffffffffffffffffffffffffffffffffffff169060200190929190505050611545565b604051808215151515815260200191505060405180910390f35b3480156108b257600080fd5b50610b62600480360360e08110156108c957600080fd5b81019080803590602001906401000000008111156108e657600080fd5b8201836020820111156108f857600080fd5b8035906020019184600183028401116401000000008311171561091a57600080fd5b91908080601f016020809104026020016040519081016040528093929190818152602001838380828437600081840152601f19601f8201169050808301925050505050505091929192908035906020019064010000000081111561097d57600080fd5b82018360208201111561098f57600080fd5b803590602001918460018302840111640100000000831117156109b157600080fd5b91908080601f016020809104026020016040519081016040528093929190818152602001838380828437600081840152601f19601f820116905080830192505050505050509192919290803560ff16906020019092919080359060200190929190803573ffffffffffffffffffffffffffffffffffffffff16906020019092919080359060200190640100000000811115610a4b57600080fd5b820183602082011115610a5d57600080fd5b80359060200191846020830284011164010000000083111715610a7f57600080fd5b919080806020026020016040519081016040528093929190818152602001838360200280828437600081840152601f19601f82011690508083019250505050505050919291929080359060200190640100000000811115610adf57600080fd5b820183602082011115610af157600080fd5b80359060200191846020830284011164010000000083111715610b1357600080fd5b919080806020026020016040519081016040528093929190818152602001838360200280828437600081840152601f19601f820116905080830192505050505050509192919290505050611563565b005b348015610b7057600080fd5b50610b7961175d565b604051808215151515815260200191505060405180910390f35b348015610b9f57600080fd5b50610ba8611775565b005b348015610bb657600080fd5b50610bf960048036036020811015610bcd57600080fd5b81019080803573ffffffffffffffffffffffffffffffffffffffff169060200190929190505050611780565b6040518082815260200191505060405180910390f35b348015610c1b57600080fd5b50610c5e60048036036020811015610c3257600080fd5b81019080803573ffffffffffffffffffffffffffffffffffffffff1690602001909291905050506117c9565b005b348015610c6c57600080fd5b50610c756117e9565b005b348015610c8357600080fd5b50610c8c61189b565b6040518080602001828103825283818151815260200191508051906020019080838360005b83811015610ccc578082015181840152602081019050610cb1565b50505050905090810190601f168015610cf95780820380516001836020036101000a031916815260200191505b509250505060405180910390f35b348015610d1357600080fd5b50610d5660048036036020811015610d2a57600080fd5b81019080803573ffffffffffffffffffffffffffffffffffffffff16906020019092919050505061193d565b005b348015610d6457600080fd5b50610d6d61195d565b005b348015610d7b57600080fd5b50610dc860048036036040811015610d9257600080fd5b81019080803573ffffffffffffffffffffffffffffffffffffffff16906020019092919080359060200190929190505050611968565b604051808215151515815260200191505060405180910390f35b348015610dee57600080fd5b50610e3b60048036036040811015610e0557600080fd5b81019080803573ffffffffffffffffffffffffffffffffffffffff16906020019092919080359060200190929190505050611999565b604051808215151515815260200191505060405180910390f35b348015610e6157600080fd5b50610ea460048036036020811015610e7857600080fd5b81019080803573ffffffffffffffffffffffffffffffffffffffff1690602001909291905050506119ca565b604051808215151515815260200191505060405180910390f35b348015610eca57600080fd5b50610f0d60048036036020811015610ee157600080fd5b81019080803573ffffffffffffffffffffffffffffffffffffffff1690602001909291905050506119e7565b005b348015610f1b57600080fd5b50610f7e60048036036040811015610f3257600080fd5b81019080803573ffffffffffffffffffffffffffffffffffffffff169060200190929190803573ffffffffffffffffffffffffffffffffffffffff169060200190929190505050611b35565b6040518082815260200191505060405180910390f35b606060338054600181600116156101000203166002900480601f01602080910402602001604051908101604052809291908181526020018280546001816001161561010002031660029004801561102c5780601f106110015761010080835404028352916020019161102c565b820191906000526020600020905b81548152906001019060200180831161100f57829003601f168201915b5050505050905090565b600061013560009054906101000a900460ff1615151561105557600080fd5b61105f8383611bbc565b905092915050565b600060019054906101000a900460ff16806110865750611085611ce9565b5b8061109d57506000809054906101000a900460ff16155b1515611137576040517f08c379a000000000000000000000000000000000000000000000000000000000815260040180806020018281038252602e8152602001807f436f6e747261637420696e7374616e63652068617320616c726561647920626581526020017f656e20696e697469616c697a656400000000000000000000000000000000000081525060400191505060405180910390fd5b60008060019054906101000a900460ff161590508015611187576001600060016101000a81548160ff02191690831515021790555060016000806101000a81548160ff0219169083151502179055505b836033908051906020019061119d929190612fc1565b5082603490805190602001906111b4929190612fc1565b5081603560006101000a81548160ff021916908360ff16021790555080156111f15760008060016101000a81548160ff0219169083151502179055505b50505050565b6000606a54905090565b600061013560009054906101000a900460ff1615151561122057600080fd5b61122b848484611cfa565b90509392505050565b600060019054906101000a900460ff16806112535750611252611ce9565b5b8061126a57506000809054906101000a900460ff16155b1515611304576040517f08c379a000000000000000000000000000000000000000000000000000000000815260040180806020018281038252602e8152602001807f436f6e747261637420696e7374616e63652068617320616c726561647920626581526020017f656e20696e697469616c697a656400000000000000000000000000000000000081525060400191505060405180910390fd5b60008060019054906101000a900460ff161590508015611354576001600060016101000a81548160ff02191690831515021790555060016000806101000a81548160ff0219169083151502179055505b61135f868686611067565b61136830611f02565b61137130612050565b61137a306119e7565b611383306120aa565b60008090505b83518110156113bd576113b284828151811015156113a357fe5b90602001906020020151612105565b806001019050611389565b5060008090505b82518110156113f8576113ed83828151811015156113de57fe5b9060200190602002015161215f565b8060010190506113c4565b50801561141a5760008060016101000a81548160ff0219169083151502179055505b505050505050565b6000603560009054906101000a900460ff16905090565b600061013560009054906101000a900460ff1615151561145857600080fd5b61146283836121ba565b905092915050565b61147333611545565b151561147e57600080fd5b61013560009054906101000a900460ff16151561149a57600080fd5b600061013560006101000a81548160ff0219169083151502179055507f5db9ee0a495bf2e6ff9c91a7834c1ba4fdd244a5e8aa4e537bd38aeae4b073aa33604051808273ffffffffffffffffffffffffffffffffffffffff1673ffffffffffffffffffffffffffffffffffffffff16815260200191505060405180910390a1565b6000611526336119ca565b151561153157600080fd5b61153b83836123f1565b6001905092915050565b600061155c8261010261254790919063ffffffff16565b9050919050565b600060019054906101000a900460ff16806115825750611581611ce9565b5b8061159957506000809054906101000a900460ff16155b1515611633576040517f08c379a000000000000000000000000000000000000000000000000000000000815260040180806020018281038252602e8152602001807f436f6e747261637420696e7374616e63652068617320616c726561647920626581526020017f656e20696e697469616c697a656400000000000000000000000000000000000081525060400191505060405180910390fd5b60008060019054906101000a900460ff161590508015611683576001600060016101000a81548160ff02191690831515021790555060016000806101000a81548160ff0219169083151502179055505b61168e888888611067565b61169884866123f1565b6116a130611f02565b6116aa30612050565b6116b3306119e7565b6116bc306120aa565b60008090505b83518110156116f6576116eb84828151811015156116dc57fe5b90602001906020020151612105565b8060010190506116c2565b5060008090505b825181101561173157611726838281518110151561171757fe5b9060200190602002015161215f565b8060010190506116fd565b5080156117535760008060016101000a81548160ff0219169083151502179055505b5050505050505050565b600061013560009054906101000a900460ff16905090565b61177e336120aa565b565b6000606860008373ffffffffffffffffffffffffffffffffffffffff1673ffffffffffffffffffffffffffffffffffffffff168152602001908152602001600020549050919050565b6117d233611545565b15156117dd57600080fd5b6117e68161215f565b50565b6117f233611545565b15156117fd57600080fd5b61013560009054906101000a900460ff1615151561181a57600080fd5b600161013560006101000a81548160ff0219169083151502179055507f62e78cea01bee320cd4e420270b5ea74000d11b0c9f74754ebdbfc544b05a25833604051808273ffffffffffffffffffffffffffffffffffffffff1673ffffffffffffffffffffffffffffffffffffffff16815260200191505060405180910390a1565b606060348054600181600116156101000203166002900480601f0160208091040260200160405190810160405280929190818152602001828054600181600116156101000203166002900480156119335780601f1061190857610100808354040283529160200191611933565b820191906000526020600020905b81548152906001019060200180831161191657829003601f168201915b5050505050905090565b611946336119ca565b151561195157600080fd5b61195a81612105565b50565b61196633612050565b565b600061013560009054906101000a900460ff1615151561198757600080fd5b61199183836125db565b905092915050565b600061013560009054906101000a900460ff161515156119b857600080fd5b6119c28383612812565b905092915050565b60006119e082609d61254790919063ffffffff16565b9050919050565b600060019054906101000a900460ff1680611a065750611a05611ce9565b5b80611a1d57506000809054906101000a900460ff16155b1515611ab7576040517f08c379a000000000000000000000000000000000000000000000000000000000815260040180806020018281038252602e8152602001807f436f6e747261637420696e7374616e63652068617320616c726561647920626581526020017f656e20696e697469616c697a656400000000000000000000000000000000000081525060400191505060405180910390fd5b60008060019054906101000a900460ff161590508015611b07576001600060016101000a81548160ff02191690831515021790555060016000806101000a81548160ff0219169083151502179055505b611b1082612829565b8015611b315760008060016101000a81548160ff0219169083151502179055505b5050565b6000606960008473ffffffffffffffffffffffffffffffffffffffff1673ffffffffffffffffffffffffffffffffffffffff16815260200190815260200160002060008373ffffffffffffffffffffffffffffffffffffffff1673ffffffffffffffffffffffffffffffffffffffff16815260200190815260200160002054905092915050565b60008073ffffffffffffffffffffffffffffffffffffffff168373ffffffffffffffffffffffffffffffffffffffff1614151515611bf957600080fd5b81606960003373ffffffffffffffffffffffffffffffffffffffff1673ffffffffffffffffffffffffffffffffffffffff16815260200190815260200160002060008573ffffffffffffffffffffffffffffffffffffffff1673ffffffffffffffffffffffffffffffffffffffff168152602001908152602001600020819055508273ffffffffffffffffffffffffffffffffffffffff163373ffffffffffffffffffffffffffffffffffffffff167f8c5be1e5ebec7d5bd14f71427d1e84f3dd0314c0f7b2291e5b200ac8c7c3b925846040518082815260200191505060405180910390a36001905092915050565b600080303b90506000811491505090565b6000611d8b82606960008773ffffffffffffffffffffffffffffffffffffffff1673ffffffffffffffffffffffffffffffffffffffff16815260200190815260200160002060003373ffffffffffffffffffffffffffffffffffffffff1673ffffffffffffffffffffffffffffffffffffffff1681526020019081526020016000205461299390919063ffffffff16565b606960008673ffffffffffffffffffffffffffffffffffffffff1673ffffffffffffffffffffffffffffffffffffffff16815260200190815260200160002060003373ffffffffffffffffffffffffffffffffffffffff1673ffffffffffffffffffffffffffffffffffffffff16815260200190815260200160002081905550611e168484846129b5565b3373ffffffffffffffffffffffffffffffffffffffff168473ffffffffffffffffffffffffffffffffffffffff167f8c5be1e5ebec7d5bd14f71427d1e84f3dd0314c0f7b2291e5b200ac8c7c3b925606960008873ffffffffffffffffffffffffffffffffffffffff1673ffffffffffffffffffffffffffffffffffffffff16815260200190815260200160002060003373ffffffffffffffffffffffffffffffffffffffff1673ffffffffffffffffffffffffffffffffffffffff168152602001908152602001600020546040518082815260200191505060405180910390a3600190509392505050565b600060019054906101000a900460ff1680611f215750611f20611ce9565b5b80611f3857506000809054906101000a900460ff16155b1515611fd2576040517f08c379a000000000000000000000000000000000000000000000000000000000815260040180806020018281038252602e8152602001807f436f6e747261637420696e7374616e63652068617320616c726561647920626581526020017f656e20696e697469616c697a656400000000000000000000000000000000000081525060400191505060405180910390fd5b60008060019054906101000a900460ff161590508015612022576001600060016101000a81548160ff02191690831515021790555060016000806101000a81548160ff0219169083151502179055505b61202b82612b85565b801561204c5760008060016101000a81548160ff0219169083151502179055505b5050565b61206481609d612ce390919063ffffffff16565b8073ffffffffffffffffffffffffffffffffffffffff167fe94479a9f7e1952cc78f2d6baab678adc1b772d936c6583def489e524cb6669260405160405180910390a250565b6120bf81610102612ce390919063ffffffff16565b8073ffffffffffffffffffffffffffffffffffffffff167fcd265ebaf09df2871cc7bd4133404a235ba12eff2041bb89d9c714a2621c7c7e60405160405180910390a250565b61211981609d612d9290919063ffffffff16565b8073ffffffffffffffffffffffffffffffffffffffff167f6ae172837ea30b801fbfcdd4108aa1d5bf8ff775444fd70256b44e6bf3dfc3f660405160405180910390a250565b61217481610102612d9290919063ffffffff16565b8073ffffffffffffffffffffffffffffffffffffffff167f6719d08c1888103bea251a4ed56406bd0c3e69723c8a1686e017e7bbe159b6f860405160405180910390a250565b60008073ffffffffffffffffffffffffffffffffffffffff168373ffffffffffffffffffffffffffffffffffffffff16141515156121f757600080fd5b61228682606960003373ffffffffffffffffffffffffffffffffffffffff1673ffffffffffffffffffffffffffffffffffffffff16815260200190815260200160002060008673ffffffffffffffffffffffffffffffffffffffff1673ffffffffffffffffffffffffffffffffffffffff16815260200190815260200160002054612e4290919063ffffffff16565b606960003373ffffffffffffffffffffffffffffffffffffffff1673ffffffffffffffffffffffffffffffffffffffff16815260200190815260200160002060008573ffffffffffffffffffffffffffffffffffffffff1673ffffffffffffffffffffffffffffffffffffffff168152602001908152602001600020819055508273ffffffffffffffffffffffffffffffffffffffff163373ffffffffffffffffffffffffffffffffffffffff167f8c5be1e5ebec7d5bd14f71427d1e84f3dd0314c0f7b2291e5b200ac8c7c3b925606960003373ffffffffffffffffffffffffffffffffffffffff1673ffffffffffffffffffffffffffffffffffffffff16815260200190815260200160002060008773ffffffffffffffffffffffffffffffffffffffff1673ffffffffffffffffffffffffffffffffffffffff168152602001908152602001600020546040518082815260200191505060405180910390a36001905092915050565b600073ffffffffffffffffffffffffffffffffffffffff168273ffffffffffffffffffffffffffffffffffffffff161415151561242d57600080fd5b61244281606a54612e4290919063ffffffff16565b606a8190555061249a81606860008573ffffffffffffffffffffffffffffffffffffffff1673ffffffffffffffffffffffffffffffffffffffff16815260200190815260200160002054612e4290919063ffffffff16565b606860008473ffffffffffffffffffffffffffffffffffffffff1673ffffffffffffffffffffffffffffffffffffffff168152602001908152602001600020819055508173ffffffffffffffffffffffffffffffffffffffff16600073ffffffffffffffffffffffffffffffffffffffff167fddf252ad1be2c89b69c2b068fc378daa952ba7f163c4a11628f55a4df523b3ef836040518082815260200191505060405180910390a35050565b60008073ffffffffffffffffffffffffffffffffffffffff168273ffffffffffffffffffffffffffffffffffffffff161415151561258457600080fd5b8260000160008373ffffffffffffffffffffffffffffffffffffffff1673ffffffffffffffffffffffffffffffffffffffff16815260200190815260200160002060009054906101000a900460ff16905092915050565b60008073ffffffffffffffffffffffffffffffffffffffff168373ffffffffffffffffffffffffffffffffffffffff161415151561261857600080fd5b6126a782606960003373ffffffffffffffffffffffffffffffffffffffff1673ffffffffffffffffffffffffffffffffffffffff16815260200190815260200160002060008673ffffffffffffffffffffffffffffffffffffffff1673ffffffffffffffffffffffffffffffffffffffff1681526020019081526020016000205461299390919063ffffffff16565b606960003373ffffffffffffffffffffffffffffffffffffffff1673ffffffffffffffffffffffffffffffffffffffff16815260200190815260200160002060008573ffffffffffffffffffffffffffffffffffffffff1673ffffffffffffffffffffffffffffffffffffffff168152602001908152602001600020819055508273ffffffffffffffffffffffffffffffffffffffff163373ffffffffffffffffffffffffffffffffffffffff167f8c5be1e5ebec7d5bd14f71427d1e84f3dd0314c0f7b2291e5b200ac8c7c3b925606960003373ffffffffffffffffffffffffffffffffffffffff1673ffffffffffffffffffffffffffffffffffffffff16815260200190815260200160002060008773ffffffffffffffffffffffffffffffffffffffff1673ffffffffffffffffffffffffffffffffffffffff168152602001908152602001600020546040518082815260200191505060405180910390a36001905092915050565b600061281f3384846129b5565b6001905092915050565b600060019054906101000a900460ff16806128485750612847611ce9565b5b8061285f57506000809054906101000a900460ff16155b15156128f9576040517f08c379a000000000000000000000000000000000000000000000000000000000815260040180806020018281038252602e8152602001807f436f6e747261637420696e7374616e63652068617320616c726561647920626581526020017f656e20696e697469616c697a656400000000000000000000000000000000000081525060400191505060405180910390fd5b60008060019054906101000a900460ff161590508015612949576001600060016101000a81548160ff02191690831515021790555060016000806101000a81548160ff0219169083151502179055505b61295282612e63565b600061013560006101000a81548160ff021916908315150217905550801561298f5760008060016101000a81548160ff0219169083151502179055505b5050565b60008282111515156129a457600080fd5b600082840390508091505092915050565b600073ffffffffffffffffffffffffffffffffffffffff168273ffffffffffffffffffffffffffffffffffffffff16141515156129f157600080fd5b612a4381606860008673ffffffffffffffffffffffffffffffffffffffff1673ffffffffffffffffffffffffffffffffffffffff1681526020019081526020016000205461299390919063ffffffff16565b606860008573ffffffffffffffffffffffffffffffffffffffff1673ffffffffffffffffffffffffffffffffffffffff16815260200190815260200160002081905550612ad881606860008573ffffffffffffffffffffffffffffffffffffffff1673ffffffffffffffffffffffffffffffffffffffff16815260200190815260200160002054612e4290919063ffffffff16565b606860008473ffffffffffffffffffffffffffffffffffffffff1673ffffffffffffffffffffffffffffffffffffffff168152602001908152602001600020819055508173ffffffffffffffffffffffffffffffffffffffff168373ffffffffffffffffffffffffffffffffffffffff167fddf252ad1be2c89b69c2b068fc378daa952ba7f163c4a11628f55a4df523b3ef836040518082815260200191505060405180910390a3505050565b600060019054906101000a900460ff1680612ba45750612ba3611ce9565b5b80612bbb57506000809054906101000a900460ff16155b1515612c55576040517f08c379a000000000000000000000000000000000000000000000000000000000815260040180806020018281038252602e8152602001807f436f6e747261637420696e7374616e63652068617320616c726561647920626581526020017f656e20696e697469616c697a656400000000000000000000000000000000000081525060400191505060405180910390fd5b60008060019054906101000a900460ff161590508015612ca5576001600060016101000a81548160ff02191690831515021790555060016000806101000a81548160ff0219169083151502179055505b612cae826119ca565b1515612cbe57612cbd82612105565b5b8015612cdf5760008060016101000a81548160ff0219169083151502179055505b5050565b600073ffffffffffffffffffffffffffffffffffffffff168173ffffffffffffffffffffffffffffffffffffffff1614151515612d1f57600080fd5b612d298282612547565b1515612d3457600080fd5b60008260000160008373ffffffffffffffffffffffffffffffffffffffff1673ffffffffffffffffffffffffffffffffffffffff16815260200190815260200160002060006101000a81548160ff0219169083151502179055505050565b600073ffffffffffffffffffffffffffffffffffffffff168173ffffffffffffffffffffffffffffffffffffffff1614151515612dce57600080fd5b612dd88282612547565b151515612de457600080fd5b60018260000160008373ffffffffffffffffffffffffffffffffffffffff1673ffffffffffffffffffffffffffffffffffffffff16815260200190815260200160002060006101000a81548160ff0219169083151502179055505050565b6000808284019050838110151515612e5957600080fd5b8091505092915050565b600060019054906101000a900460ff1680612e825750612e81611ce9565b5b80612e9957506000809054906101000a900460ff16155b1515612f33576040517f08c379a000000000000000000000000000000000000000000000000000000000815260040180806020018281038252602e8152602001807f436f6e747261637420696e7374616e63652068617320616c726561647920626581526020017f656e20696e697469616c697a656400000000000000000000000000000000000081525060400191505060405180910390fd5b60008060019054906101000a900460ff161590508015612f83576001600060016101000a81548160ff02191690831515021790555060016000806101000a81548160ff0219169083151502179055505b612f8c82611545565b1515612f9c57612f9b8261215f565b5b8015612fbd5760008060016101000a81548160ff0219169083151502179055505b5050565b828054600181600116156101000203166002900490600052602060002090601f016020900481019282601f1061300257805160ff1916838001178555613030565b82800160010185558215613030579182015b8281111561302f578251825591602001919060010190613014565b5b50905061303d9190613041565b5090565b61306391905b8082111561305f576000816000905550600101613047565b5090565b9056fea165627a7a72305820d884124cfa4562a9b0c8bd59fad97ae986627e4d473445f3dcc3dde3754853e60029608060405234801561001057600080fd5b506110ae806100206000396000f3fe6080604052600436106100c5576000357c0100000000000000000000000000000000000000000000000000000000900463ffffffff16806307707416146100ca5780635531eef5146101645780635a2efcf7146101fe5780637b06bcae1461026757806382f4fd5d146102e257806388953ea21461030d5780638cffaeb61461035c5780638f21808e14610410578063cd048de61461045f578063d5fc61db14610500578063ed9978c71461054f578063f62d1888146105df578063f6a6daf2146106e7575b600080fd5b3480156100d657600080fd5b5061014e600480360360208110156100ed57600080fd5b810190808035906020019064010000000081111561010a57600080fd5b82018360208201111561011c57600080fd5b8035906020019184600183028401116401000000008311171561013e57600080fd5b909192939192939050505061079b565b6040518082815260200191505060405180910390f35b34801561017057600080fd5b506101e86004803603602081101561018757600080fd5b81019080803590602001906401000000008111156101a457600080fd5b8201836020820111156101b657600080fd5b803590602001918460018302840111640100000000831117156101d857600080fd5b90919293919293905050506107cd565b6040518082815260200191505060405180910390f35b34801561020a57600080fd5b5061024d6004803603602081101561022157600080fd5b81019080803573ffffffffffffffffffffffffffffffffffffffff1690602001909291905050506107ff565b604051808215151515815260200191505060405180910390f35b34801561027357600080fd5b506102a06004803603602081101561028a57600080fd5b810190808035906020019092919050505061081f565b604051808273ffffffffffffffffffffffffffffffffffffffff1673ffffffffffffffffffffffffffffffffffffffff16815260200191505060405180910390f35b3480156102ee57600080fd5b506102f761085d565b6040518082815260200191505060405180910390f35b34801561031957600080fd5b506103466004803603602081101561033057600080fd5b8101908080359060200190929190505050610863565b6040518082815260200191505060405180910390f35b34801561036857600080fd5b506103956004803603602081101561037f57600080fd5b8101908080359060200190929190505050610880565b6040518080602001828103825283818151815260200191508051906020019080838360005b838110156103d55780820151818401526020810190506103ba565b50505050905090810190601f1680156104025780820380516001836020036101000a031916815260200191505b509250505060405180910390f35b34801561041c57600080fd5b506104496004803603602081101561043357600080fd5b8101908080359060200190929190505050610935565b6040518082815260200191505060405180910390f35b34801561046b57600080fd5b506104e36004803603602081101561048257600080fd5b810190808035906020019064010000000081111561049f57600080fd5b8201836020820111156104b157600080fd5b803590602001918460018302840111640100000000831117156104d357600080fd5b9091929391929390505050610952565b604051808381526020018281526020019250505060405180910390f35b34801561050c57600080fd5b506105396004803603602081101561052357600080fd5b8101908080359060200190929190505050610b94565b6040518082815260200191505060405180910390f35b34801561055b57600080fd5b50610564610bac565b6040518080602001828103825283818151815260200191508051906020019080838360005b838110156105a4578082015181840152602081019050610589565b50505050905090810190601f1680156105d15780820380516001836020036101000a031916815260200191505b509250505060405180910390f35b3480156105eb57600080fd5b506106a56004803603602081101561060257600080fd5b810190808035906020019064010000000081111561061f57600080fd5b82018360208201111561063157600080fd5b8035906020019184600183028401116401000000008311171561065357600080fd5b91908080601f016020809104026020016040519081016040528093929190818152602001838380828437600081840152601f19601f820116905080830192505050505050509192919290505050610c4a565b604051808273ffffffffffffffffffffffffffffffffffffffff1673ffffffffffffffffffffffffffffffffffffffff16815260200191505060405180910390f35b3480156106f357600080fd5b506107206004803603602081101561070a57600080fd5b8101908080359060200190929190505050610e97565b6040518080602001828103825283818151815260200191508051906020019080838360005b83811015610760578082015181840152602081019050610745565b50505050905090810190601f16801561078d5780820380516001836020036101000a031916815260200191505b509250505060405180910390f35b600060368383604051808383808284378083019250505092505050908152602001604051809103902054905092915050565b600060388383604051808383808284378083019250505092505050908152602001604051809103902054905092915050565b60346020528060005260406000206000915054906101000a900460ff1681565b60338181548110151561082e57fe5b906000526020600020016000915054906101000a900473ffffffffffffffffffffffffffffffffffffffff1681565b603f5481565b600060396000838152602001908152602001600020549050919050565b6060603560008381526020019081526020016000208054600181600116156101000203166002900480601f0160208091040260200160405190810160405280929190818152602001828054600181600116156101000203166002900480156109295780601f106108fe57610100808354040283529160200191610929565b820191906000526020600020905b81548152906001019060200180831161090c57829003601f168201915b50505050509050919050565b6000603a6000838152602001908152602001600020549050919050565b60008060008484604051602001808383808284378083019250505092505050604051602081830303815290604052805190602001209050848460356000603f54815260200190815260200160002091906109ad929190610f5d565b50603f546036868660405180838380828437808301925050509250505090815260200160405180910390208190555084846037600084815260200190815260200160002091906109fe929190610f5d565b5080603886866040518083838082843780830192505050925050509081526020016040518091039020819055508060396000603f54815260200190815260200160002081905550603f54603a600083815260200190815260200160002081905550603b819080600181540180825580915050906001820390600052602060002001600090919290919091505550603d858590918060018154018082558091505090600182039060005260206000200160009091929390919293909192909192509190610acb929190610f5d565b5050603c603f549080600181540180825580915050906001820390600052602060002001600090919290919091505550803373ffffffffffffffffffffffffffffffffffffffff167fea3ce421f944fb182977d78e1d8cc56be493e2910d5672cf407f2ebce8b8a2748787603f5460405180806020018381526020018281038252858582818152602001925080828437600081840152601f19601f82011690508083019250505094505050505060405180910390a36001603f5401603f81905550509250929050565b603e6020528060005260406000206000915090505481565b60408054600181600116156101000203166002900480601f016020809104026020016040519081016040528092919081815260200182805460018160011615610100020316600290048015610c425780601f10610c1757610100808354040283529160200191610c42565b820191906000526020600020905b815481529060010190602001808311610c2557829003601f168201915b505050505081565b60008060019054906101000a900460ff1680610c6a5750610c69610f4c565b5b80610c8157506000809054906101000a900460ff16155b1515610d1b576040517f08c379a000000000000000000000000000000000000000000000000000000000815260040180806020018281038252602e8152602001807f436f6e747261637420696e7374616e63652068617320616c726561647920626581526020017f656e20696e697469616c697a656400000000000000000000000000000000000081525060400191505060405180910390fd5b60008060019054906101000a900460ff161590508015610d6b576001600060016101000a81548160ff02191690831515021790555060016000806101000a81548160ff0219169083151502179055505b8260409080519060200190610d81929190610fdd565b507f8b69fd8f705e3bab3f1aca5075cf9524555d661dc3b477c6bdba7388d04e56ad60403060405180806020018373ffffffffffffffffffffffffffffffffffffffff1673ffffffffffffffffffffffffffffffffffffffff168152602001828103825284818154600181600116156101000203166002900481526020019150805460018160011615610100020316600290048015610e615780601f10610e3657610100808354040283529160200191610e61565b820191906000526020600020905b815481529060010190602001808311610e4457829003601f168201915b5050935050505060405180910390a18015610e915760008060016101000a81548160ff0219169083151502179055505b50919050565b6060603760008381526020019081526020016000208054600181600116156101000203166002900480601f016020809104026020016040519081016040528092919081815260200182805460018160011615610100020316600290048015610f405780601f10610f1557610100808354040283529160200191610f40565b820191906000526020600020905b815481529060010190602001808311610f2357829003601f168201915b50505050509050919050565b600080303b90506000811491505090565b828054600181600116156101000203166002900490600052602060002090601f016020900481019282601f10610f9e57803560ff1916838001178555610fcc565b82800160010185558215610fcc579182015b82811115610fcb578235825591602001919060010190610fb0565b5b509050610fd9919061105d565b5090565b828054600181600116156101000203166002900490600052602060002090601f016020900481019282601f1061101e57805160ff191683800117855561104c565b8280016001018555821561104c579182015b8281111561104b578251825591602001919060010190611030565b5b509050611059919061105d565b5090565b61107f91905b8082111561107b576000816000905550600101611063565b5090565b9056fea165627a7a7230582089067d81e6a7ea3435a9792c1c6ff114be2427c02fd4266a40a487ef3c35749d0029a165627a7a7230582038da658bec12e17ac897bc1a056aa475a3c06df5e93b7d6e73933625e8bd5d640029",
  "source": "pragma solidity ^0.5.0;\n\nimport \"zos-lib/contracts/Initializable.sol\";\nimport \"openzeppelin-eth/contracts/token/ERC20/StandaloneERC20.sol\";\nimport \"./DaoStorage.sol\";\n\ncontract Manager is Initializable {\n\n    event daoStorageCreated(string, address, address);\n    \n    struct WordDao {\n        string _language;\n        address _token;\n        address _daoStorage;\n    }\n\n   WordDao thisWordDao;\n    \n\n    function createStorage(string memory _language, string memory _name, string memory _symbol, \n    uint8 _decimals, uint256 _initialSupply, address _initialHolder, address[] memory _minters, \n    address[] memory _pausers) \n    public returns(address, address){\n        \n    StandaloneERC20 erc20 = new StandaloneERC20();\n    erc20.initialize(_name, _symbol,_decimals, _initialSupply, address(this),_minters,_pausers);\n\n    DaoStorage daoStorage = new DaoStorage();\n    daoStorage.initialize(_language);\n\n    WordDao memory wordDao;\n    wordDao._language = _language;\n    wordDao._token = address(erc20);\n    wordDao._daoStorage = address(daoStorage);\n\n    //thisWordDao = wordDao;\n\n    emit daoStorageCreated(wordDao._language, wordDao._token,wordDao._daoStorage);\n    return (wordDao._token, wordDao._daoStorage);\n    }\n\n    function addWord(string memory _word) public {\n\n    }\n\n    function getBalance() public returns(uint256){\n        return address(this).balance;\n    }\n\n    function () payable external {\n    }\n}",
  "sourcePath": "/Users/dennisonzeppelin/Documents/word-dao/contracts/Manager.sol",
  "compiler": {
    "name": "solc",
    "version": "0.5.0+commit.1d4f565a.Emscripten.clang"
  },
  "schemaVersion": "3.0.1",
  "updatedAt": "2019-04-05T00:10:21.254Z",
  "devdoc": {
    "methods": {}
  },
  "userdoc": {
    "methods": {}
  }
}