{
  "contractName": "Package",
  "abi": [
    {
      "constant": false,
      "inputs": [],
      "name": "renounceOwnership",
      "outputs": [],
      "payable": false,
      "stateMutability": "nonpayable",
      "type": "function"
    },
    {
      "constant": true,
      "inputs": [],
      "name": "owner",
      "outputs": [
        {
          "name": "",
          "type": "address"
        }
      ],
      "payable": false,
      "stateMutability": "view",
      "type": "function"
    },
    {
      "constant": true,
      "inputs": [],
      "name": "isOwner",
      "outputs": [
        {
          "name": "",
          "type": "bool"
        }
      ],
      "payable": false,
      "stateMutability": "view",
      "type": "function"
    },
    {
      "constant": false,
      "inputs": [
        {
          "name": "newOwner",
          "type": "address"
        }
      ],
      "name": "transferOwnership",
      "outputs": [],
      "payable": false,
      "stateMutability": "nonpayable",
      "type": "function"
    },
    {
      "anonymous": false,
      "inputs": [
        {
          "indexed": false,
          "name": "semanticVersion",
          "type": "uint64[3]"
        },
        {
          "indexed": false,
          "name": "contractAddress",
          "type": "address"
        },
        {
          "indexed": false,
          "name": "contentURI",
          "type": "bytes"
        }
      ],
      "name": "VersionAdded",
      "type": "event"
    },
    {
      "anonymous": false,
      "inputs": [
        {
          "indexed": true,
          "name": "previousOwner",
          "type": "address"
        },
        {
          "indexed": true,
          "name": "newOwner",
          "type": "address"
        }
      ],
      "name": "OwnershipTransferred",
      "type": "event"
    },
    {
      "constant": true,
      "inputs": [
        {
          "name": "semanticVersion",
          "type": "uint64[3]"
        }
      ],
      "name": "getVersion",
      "outputs": [
        {
          "name": "contractAddress",
          "type": "address"
        },
        {
          "name": "contentURI",
          "type": "bytes"
        }
      ],
      "payable": false,
      "stateMutability": "view",
      "type": "function"
    },
    {
      "constant": true,
      "inputs": [
        {
          "name": "semanticVersion",
          "type": "uint64[3]"
        }
      ],
      "name": "getContract",
      "outputs": [
        {
          "name": "contractAddress",
          "type": "address"
        }
      ],
      "payable": false,
      "stateMutability": "view",
      "type": "function"
    },
    {
      "constant": false,
      "inputs": [
        {
          "name": "semanticVersion",
          "type": "uint64[3]"
        },
        {
          "name": "contractAddress",
          "type": "address"
        },
        {
          "name": "contentURI",
          "type": "bytes"
        }
      ],
      "name": "addVersion",
      "outputs": [],
      "payable": false,
      "stateMutability": "nonpayable",
      "type": "function"
    },
    {
      "constant": true,
      "inputs": [
        {
          "name": "semanticVersion",
          "type": "uint64[3]"
        }
      ],
      "name": "hasVersion",
      "outputs": [
        {
          "name": "",
          "type": "bool"
        }
      ],
      "payable": false,
      "stateMutability": "view",
      "type": "function"
    },
    {
      "constant": true,
      "inputs": [],
      "name": "getLatest",
      "outputs": [
        {
          "name": "semanticVersion",
          "type": "uint64[3]"
        },
        {
          "name": "contractAddress",
          "type": "address"
        },
        {
          "name": "contentURI",
          "type": "bytes"
        }
      ],
      "payable": false,
      "stateMutability": "view",
      "type": "function"
    },
    {
      "constant": true,
      "inputs": [
        {
          "name": "major",
          "type": "uint64"
        }
      ],
      "name": "getLatestByMajor",
      "outputs": [
        {
          "name": "semanticVersion",
          "type": "uint64[3]"
        },
        {
          "name": "contractAddress",
          "type": "address"
        },
        {
          "name": "contentURI",
          "type": "bytes"
        }
      ],
      "payable": false,
      "stateMutability": "view",
      "type": "function"
    }
  ],
  "bytecode": "0x6080604052336000806101000a81548173ffffffffffffffffffffffffffffffffffffffff021916908373ffffffffffffffffffffffffffffffffffffffff1602179055506000809054906101000a900473ffffffffffffffffffffffffffffffffffffffff1673ffffffffffffffffffffffffffffffffffffffff16600073ffffffffffffffffffffffffffffffffffffffff167f8be0079c531659141344cd1fd0a4f28419497f9722a3daafe3b4186f6b6457e060405160405180910390a36116b4806100cf6000396000f3fe6080604052600436106100a4576000357c0100000000000000000000000000000000000000000000000000000000900463ffffffff1680631df40eaa146100a957806335ce40161461015b578063715018a6146101e55780638da5cb5b146101fc5780638f32d59b14610253578063c356d5b014610282578063c36af460146103a2578063d6ef25d514610494578063e30329e9146105bd578063f2fde38b146106db575b600080fd5b3480156100b557600080fd5b50610119600480360360608110156100cc57600080fd5b8101908080606001906003806020026040519081016040528092919082600360200280828437600081840152601f19601f820116905080830192505050505050919291929050505061072c565b604051808273ffffffffffffffffffffffffffffffffffffffff1673ffffffffffffffffffffffffffffffffffffffff16815260200191505060405180910390f35b34801561016757600080fd5b506101cb6004803603606081101561017e57600080fd5b8101908080606001906003806020026040519081016040528092919082600360200280828437600081840152601f19601f8201169050808301925050505050509192919290505050610779565b604051808215151515815260200191505060405180910390f35b3480156101f157600080fd5b506101fa6107f6565b005b34801561020857600080fd5b506102116108c8565b604051808273ffffffffffffffffffffffffffffffffffffffff1673ffffffffffffffffffffffffffffffffffffffff16815260200191505060405180910390f35b34801561025f57600080fd5b506102686108f1565b604051808215151515815260200191505060405180910390f35b34801561028e57600080fd5b506102c5600480360360208110156102a557600080fd5b81019080803567ffffffffffffffff169060200190929190505050610948565b6040518084600360200280838360005b838110156102f05780820151818401526020810190506102d5565b505050509050018373ffffffffffffffffffffffffffffffffffffffff1673ffffffffffffffffffffffffffffffffffffffff16815260200180602001828103825283818151815260200191508051906020019080838360005b8381101561036557808201518184015260208101905061034a565b50505050905090810190601f1680156103925780820380516001836020036101000a031916815260200191505b5094505050505060405180910390f35b3480156103ae57600080fd5b506103b7610adc565b6040518084600360200280838360005b838110156103e25780820151818401526020810190506103c7565b505050509050018373ffffffffffffffffffffffffffffffffffffffff1673ffffffffffffffffffffffffffffffffffffffff16815260200180602001828103825283818151815260200191508051906020019080838360005b8381101561045757808201518184015260208101905061043c565b50505050905090810190601f1680156104845780820380516001836020036101000a031916815260200191505b5094505050505060405180910390f35b3480156104a057600080fd5b506105bb600480360360a08110156104b757600080fd5b8101908080606001906003806020026040519081016040528092919082600360200280828437600081840152601f19601f8201169050808301925050505050509192919290803573ffffffffffffffffffffffffffffffffffffffff1690602001909291908035906020019064010000000081111561053557600080fd5b82018360208201111561054757600080fd5b8035906020019184600183028401116401000000008311171561056957600080fd5b91908080601f016020809104026020016040519081016040528093929190818152602001838380828437600081840152601f19601f820116905080830192505050505050509192919290505050610b12565b005b3480156105c957600080fd5b5061062d600480360360608110156105e057600080fd5b8101908080606001906003806020026040519081016040528092919082600360200280828437600081840152601f19601f820116905080830192505050505050919291929050505061114f565b604051808373ffffffffffffffffffffffffffffffffffffffff1673ffffffffffffffffffffffffffffffffffffffff16815260200180602001828103825283818151815260200191508051906020019080838360005b8381101561069f578082015181840152602081019050610684565b50505050905090810190601f1680156106cc5780820380516001836020036101000a031916815260200191505b50935050505060405180910390f35b3480156106e757600080fd5b5061072a600480360360208110156106fe57600080fd5b81019080803573ffffffffffffffffffffffffffffffffffffffff169060200190929190505050611241565b005b6000806001600061073c85611260565b815260200190815260200160002090508060010160009054906101000a900473ffffffffffffffffffffffffffffffffffffffff16915050919050565b6000806001600061078985611260565b81526020019081526020016000209050600073ffffffffffffffffffffffffffffffffffffffff168160010160009054906101000a900473ffffffffffffffffffffffffffffffffffffffff1673ffffffffffffffffffffffffffffffffffffffff161415915050919050565b6107fe6108f1565b151561080957600080fd5b600073ffffffffffffffffffffffffffffffffffffffff166000809054906101000a900473ffffffffffffffffffffffffffffffffffffffff1673ffffffffffffffffffffffffffffffffffffffff167f8be0079c531659141344cd1fd0a4f28419497f9722a3daafe3b4186f6b6457e060405160405180910390a360008060006101000a81548173ffffffffffffffffffffffffffffffffffffffff021916908373ffffffffffffffffffffffffffffffffffffffff160217905550565b60008060009054906101000a900473ffffffffffffffffffffffffffffffffffffffff16905090565b60008060009054906101000a900473ffffffffffffffffffffffffffffffffffffffff1673ffffffffffffffffffffffffffffffffffffffff163373ffffffffffffffffffffffffffffffffffffffff1614905090565b6109506114db565b60006060600060016000600260008867ffffffffffffffff1667ffffffffffffffff1681526020019081526020016000205481526020019081526020016000209050806000018160010160009054906101000a900473ffffffffffffffffffffffffffffffffffffffff168260020182600380602002604051908101604052809291908260038015610a2b576020028201916000905b82829054906101000a900467ffffffffffffffff1667ffffffffffffffff16815260200190600801906020826007010492830192600103820291508084116109e65790505b50505050509250808054600181600116156101000203166002900480601f016020809104026020016040519081016040528092919081815260200182805460018160011615610100020316600290048015610ac75780601f10610a9c57610100808354040283529160200191610ac7565b820191906000526020600020905b815481529060010190602001808311610aaa57829003601f168201915b50505050509050935093509350509193909250565b610ae46114db565b60006060610b07600360009054906101000a900467ffffffffffffffff16610948565b925092509250909192565b610b1a6108f1565b1515610b2557600080fd5b600073ffffffffffffffffffffffffffffffffffffffff168273ffffffffffffffffffffffffffffffffffffffff1614151515610bca576040517f08c379a000000000000000000000000000000000000000000000000000000000815260040180806020018281038252601c8152602001807f436f6e747261637420616464726573732069732072657175697265640000000081525060200191505060405180910390fd5b610bd383610779565b151515610c6e576040517f08c379a000000000000000000000000000000000000000000000000000000000815260040180806020018281038252602e8152602001807f476976656e2076657273696f6e20697320616c7265616479207265676973746581526020017f72656420696e207061636b61676500000000000000000000000000000000000081525060400191505060405180910390fd5b610c7783611366565b151515610cec576040517f08c379a00000000000000000000000000000000000000000000000000000000081526004018080602001828103825260188152602001807f56657273696f6e206d757374206265206e6f6e207a65726f000000000000000081525060200191505060405180910390fd5b6000610cf784611260565b90506060604051908101604052808581526020018473ffffffffffffffffffffffffffffffffffffffff1681526020018381525060016000838152602001908152602001600020600082015181600001906003610d559291906114fe565b5060208201518160010160006101000a81548173ffffffffffffffffffffffffffffffffffffffff021916908373ffffffffffffffffffffffffffffffffffffffff1602179055506040820151816002019080519060200190610db99291906115ac565b509050506000846000600381101515610dce57fe5b60200201519050600360009054906101000a900467ffffffffffffffff1667ffffffffffffffff168167ffffffffffffffff161115610e4457846000600381101515610e1657fe5b6020020151600360006101000a81548167ffffffffffffffff021916908367ffffffffffffffff1602179055505b6000856001600381101515610e5557fe5b602002015190506000866002600381101515610e6d57fe5b60200201519050600060016000600260008767ffffffffffffffff1667ffffffffffffffff1681526020019081526020016000205481526020019081526020016000206000019050610f2e81600380602002604051908101604052809291908260038015610f24576020028201916000905b82829054906101000a900467ffffffffffffffff1667ffffffffffffffff1681526020019060080190602082600701049283019260010382029150808411610edf5790505b5050505050611366565b80610f7a5750806001600381101515610f4357fe5b600491828204019190066008029054906101000a900467ffffffffffffffff1667ffffffffffffffff168367ffffffffffffffff16115b806110135750806001600381101515610f8f57fe5b600491828204019190066008029054906101000a900467ffffffffffffffff1667ffffffffffffffff168367ffffffffffffffff161480156110125750806002600381101515610fdb57fe5b600491828204019190066008029054906101000a900467ffffffffffffffff1667ffffffffffffffff168267ffffffffffffffff16115b5b156110455784600260008667ffffffffffffffff1667ffffffffffffffff168152602001908152602001600020819055505b7fc5b9b96b4952fc60f5a916010c882de0324dd4fdfaa999f9ad6947f55d8427628888886040518084600360200280838360005b83811015611094578082015181840152602081019050611079565b505050509050018373ffffffffffffffffffffffffffffffffffffffff1673ffffffffffffffffffffffffffffffffffffffff16815260200180602001828103825283818151815260200191508051906020019080838360005b838110156111095780820151818401526020810190506110ee565b50505050905090810190601f1680156111365780820380516001836020036101000a031916815260200191505b5094505050505060405180910390a15050505050505050565b6000606060006001600061116286611260565b815260200190815260200160002090508060010160009054906101000a900473ffffffffffffffffffffffffffffffffffffffff1681600201808054600181600116156101000203166002900480601f0160208091040260200160405190810160405280929190818152602001828054600181600116156101000203166002900480156112305780601f1061120557610100808354040283529160200191611230565b820191906000526020600020905b81548152906001019060200180831161121357829003601f168201915b505050505090509250925050915091565b6112496108f1565b151561125457600080fd5b61125d816113e1565b50565b600081600060038110151561127157fe5b602002015182600160038110151561128557fe5b602002015183600260038110151561129957fe5b6020020151604051602001808467ffffffffffffffff1667ffffffffffffffff1678010000000000000000000000000000000000000000000000000281526008018367ffffffffffffffff1667ffffffffffffffff1678010000000000000000000000000000000000000000000000000281526008018267ffffffffffffffff1667ffffffffffffffff1678010000000000000000000000000000000000000000000000000281526008019350505050604051602081830303815290604052805190602001209050919050565b60008082600060038110151561137857fe5b602002015167ffffffffffffffff161480156113b1575060008260016003811015156113a057fe5b602002015167ffffffffffffffff16145b80156113da575060008260026003811015156113c957fe5b602002015167ffffffffffffffff16145b9050919050565b600073ffffffffffffffffffffffffffffffffffffffff168173ffffffffffffffffffffffffffffffffffffffff161415151561141d57600080fd5b8073ffffffffffffffffffffffffffffffffffffffff166000809054906101000a900473ffffffffffffffffffffffffffffffffffffffff1673ffffffffffffffffffffffffffffffffffffffff167f8be0079c531659141344cd1fd0a4f28419497f9722a3daafe3b4186f6b6457e060405160405180910390a3806000806101000a81548173ffffffffffffffffffffffffffffffffffffffff021916908373ffffffffffffffffffffffffffffffffffffffff16021790555050565b606060405190810160405280600390602082028038833980820191505090505090565b826003800160049004810192821561159b5791602002820160005b8382111561156557835183826101000a81548167ffffffffffffffff021916908367ffffffffffffffff1602179055509260200192600801602081600701049283019260010302611519565b80156115995782816101000a81549067ffffffffffffffff0219169055600801602081600701049283019260010302611565565b505b5090506115a8919061162c565b5090565b828054600181600116156101000203166002900490600052602060002090601f016020900481019282601f106115ed57805160ff191683800117855561161b565b8280016001018555821561161b579182015b8281111561161a5782518255916020019190600101906115ff565b5b5090506116289190611663565b5090565b61166091905b8082111561165c57600081816101000a81549067ffffffffffffffff021916905550600101611632565b5090565b90565b61168591905b80821115611681576000816000905550600101611669565b5090565b9056fea165627a7a723058201a18455b499936451c86d88c2abf8d9905a118374e6c1147edb107ca93bf47f00029",
  "source": "pragma solidity ^0.5.0;\n\nimport \"../ownership/Ownable.sol\";\n\n/**\n * @title Package\n * @dev A package is composed by a set of versions, identified via semantic versioning,\n * where each version has a contract address that refers to a reusable implementation,\n * plus an optional content URI with metadata. Note that the semver identifier is restricted\n * to major, minor, and patch, as prerelease tags are not supported.\n */\ncontract Package is ZOSLibOwnable {\n  /**\n   * @dev Emitted when a version is added to the package.\n   * @param semanticVersion Name of the added version.\n   * @param contractAddress Contract associated with the version.\n   * @param contentURI Optional content URI with metadata of the version.\n   */\n  event VersionAdded(uint64[3] semanticVersion, address contractAddress, bytes contentURI);\n\n  struct Version {\n    uint64[3] semanticVersion;\n    address contractAddress;\n    bytes contentURI; \n  }\n\n  mapping (bytes32 => Version) internal versions;\n  mapping (uint64 => bytes32) internal majorToLatestVersion;\n  uint64 internal latestMajor;\n\n  /**\n   * @dev Returns a version given its semver identifier.\n   * @param semanticVersion Semver identifier of the version.\n   * @return Contract address and content URI for the version, or zero if not exists.\n   */\n  function getVersion(uint64[3] memory semanticVersion) public view returns (address contractAddress, bytes memory contentURI) {\n    Version storage version = versions[semanticVersionHash(semanticVersion)];\n    return (version.contractAddress, version.contentURI); \n  }\n\n  /**\n   * @dev Returns a contract for a version given its semver identifier.\n   * This method is equivalent to `getVersion`, but returns only the contract address.\n   * @param semanticVersion Semver identifier of the version.\n   * @return Contract address for the version, or zero if not exists.\n   */\n  function getContract(uint64[3] memory semanticVersion) public view returns (address contractAddress) {\n    Version storage version = versions[semanticVersionHash(semanticVersion)];\n    return version.contractAddress;\n  }\n\n  /**\n   * @dev Adds a new version to the package. Only the Owner can add new versions.\n   * Reverts if the specified semver identifier already exists. \n   * Emits a `VersionAdded` event if successful.\n   * @param semanticVersion Semver identifier of the version.\n   * @param contractAddress Contract address for the version, must be non-zero.\n   * @param contentURI Optional content URI for the version.\n   */\n  function addVersion(uint64[3] memory semanticVersion, address contractAddress, bytes memory contentURI) public onlyOwner {\n    require(contractAddress != address(0), \"Contract address is required\");\n    require(!hasVersion(semanticVersion), \"Given version is already registered in package\");\n    require(!semanticVersionIsZero(semanticVersion), \"Version must be non zero\");\n\n    // Register version\n    bytes32 versionId = semanticVersionHash(semanticVersion);\n    versions[versionId] = Version(semanticVersion, contractAddress, contentURI);\n    \n    // Update latest major\n    uint64 major = semanticVersion[0];\n    if (major > latestMajor) {\n      latestMajor = semanticVersion[0];\n    }\n\n    // Update latest version for this major\n    uint64 minor = semanticVersion[1];\n    uint64 patch = semanticVersion[2];\n    uint64[3] storage latestVersionForMajor = versions[majorToLatestVersion[major]].semanticVersion;\n    if (semanticVersionIsZero(latestVersionForMajor) // No latest was set for this major\n       || (minor > latestVersionForMajor[1]) // Or current minor is greater \n       || (minor == latestVersionForMajor[1] && patch > latestVersionForMajor[2]) // Or current patch is greater\n       ) { \n      majorToLatestVersion[major] = versionId;\n    }\n\n    emit VersionAdded(semanticVersion, contractAddress, contentURI);\n  }\n\n  /**\n   * @dev Checks whether a version is present in the package.\n   * @param semanticVersion Semver identifier of the version.\n   * @return true if the version is registered in this package, false otherwise.\n   */\n  function hasVersion(uint64[3] memory semanticVersion) public view returns (bool) {\n    Version storage version = versions[semanticVersionHash(semanticVersion)];\n    return address(version.contractAddress) != address(0);\n  }\n\n  /**\n   * @dev Returns the version with the highest semver identifier registered in the package.\n   * For instance, if `1.2.0`, `1.3.0`, and `2.0.0` are present, will always return `2.0.0`, regardless \n   * of the order in which they were registered. Returns zero if no versions are registered.\n   * @return Semver identifier, contract address, and content URI for the version, or zero if not exists.\n   */\n  function getLatest() public view returns (uint64[3] memory semanticVersion, address contractAddress, bytes memory contentURI) {\n    return getLatestByMajor(latestMajor);\n  }\n\n  /**\n   * @dev Returns the version with the highest semver identifier for the given major.\n   * For instance, if `1.2.0`, `1.3.0`, and `2.0.0` are present, will return `1.3.0` for major `1`, \n   * regardless of the order in which they were registered. Returns zero if no versions are registered\n   * for the specified major.\n   * @param major Major identifier to query\n   * @return Semver identifier, contract address, and content URI for the version, or zero if not exists.\n   */\n  function getLatestByMajor(uint64 major) public view returns (uint64[3] memory semanticVersion, address contractAddress, bytes memory contentURI) {\n    Version storage version = versions[majorToLatestVersion[major]];\n    return (version.semanticVersion, version.contractAddress, version.contentURI); \n  }\n\n  function semanticVersionHash(uint64[3] memory version) internal pure returns (bytes32) {\n    return keccak256(abi.encodePacked(version[0], version[1], version[2]));\n  }\n\n  function semanticVersionIsZero(uint64[3] memory version) internal pure returns (bool) {\n    return version[0] == 0 && version[1] == 0 && version[2] == 0;\n  }\n}\n",
  "sourcePath": "zos-lib/contracts/application/Package.sol",
  "compiler": {
    "name": "solc",
    "version": "0.5.0+commit.1d4f565a.Emscripten.clang"
  },
  "schemaVersion": "3.0.1",
  "updatedAt": "2019-03-15T13:21:28.537Z",
  "devdoc": {
    "details": "A package is composed by a set of versions, identified via semantic versioning, where each version has a contract address that refers to a reusable implementation, plus an optional content URI with metadata. Note that the semver identifier is restricted to major, minor, and patch, as prerelease tags are not supported.",
    "methods": {
      "addVersion(uint64[3],address,bytes)": {
        "details": "Adds a new version to the package. Only the Owner can add new versions. Reverts if the specified semver identifier already exists.  Emits a `VersionAdded` event if successful.",
        "params": {
          "contentURI": "Optional content URI for the version.",
          "contractAddress": "Contract address for the version, must be non-zero.",
          "semanticVersion": "Semver identifier of the version."
        }
      },
      "getContract(uint64[3])": {
        "details": "Returns a contract for a version given its semver identifier. This method is equivalent to `getVersion`, but returns only the contract address.",
        "params": {
          "semanticVersion": "Semver identifier of the version."
        },
        "return": "Contract address for the version, or zero if not exists."
      },
      "getLatest()": {
        "details": "Returns the version with the highest semver identifier registered in the package. For instance, if `1.2.0`, `1.3.0`, and `2.0.0` are present, will always return `2.0.0`, regardless  of the order in which they were registered. Returns zero if no versions are registered.",
        "return": "Semver identifier, contract address, and content URI for the version, or zero if not exists."
      },
      "getLatestByMajor(uint64)": {
        "details": "Returns the version with the highest semver identifier for the given major. For instance, if `1.2.0`, `1.3.0`, and `2.0.0` are present, will return `1.3.0` for major `1`,  regardless of the order in which they were registered. Returns zero if no versions are registered for the specified major.",
        "params": {
          "major": "Major identifier to query"
        },
        "return": "Semver identifier, contract address, and content URI for the version, or zero if not exists."
      },
      "getVersion(uint64[3])": {
        "details": "Returns a version given its semver identifier.",
        "params": {
          "semanticVersion": "Semver identifier of the version."
        },
        "return": "Contract address and content URI for the version, or zero if not exists."
      },
      "hasVersion(uint64[3])": {
        "details": "Checks whether a version is present in the package.",
        "params": {
          "semanticVersion": "Semver identifier of the version."
        },
        "return": "true if the version is registered in this package, false otherwise."
      },
      "isOwner()": {
        "return": "true if `msg.sender` is the owner of the contract."
      },
      "owner()": {
        "return": "the address of the owner."
      },
      "renounceOwnership()": {
        "details": "Allows the current owner to relinquish control of the contract."
      },
      "transferOwnership(address)": {
        "details": "Allows the current owner to transfer control of the contract to a newOwner.",
        "params": {
          "newOwner": "The address to transfer ownership to."
        }
      }
    },
    "title": "Package"
  },
  "userdoc": {
    "methods": {
      "renounceOwnership()": {
        "notice": "Renouncing to ownership will leave the contract without an owner. It will not be possible to call the functions with the `onlyOwner` modifier anymore."
      }
    }
  }
}