{
  "contractName": "StorageBuilder",
  "abi": [
    {
      "constant": true,
      "inputs": [
        {
          "name": "",
          "type": "uint256"
        }
      ],
      "name": "storageLocations",
      "outputs": [
        {
          "name": "",
          "type": "address"
        }
      ],
      "payable": false,
      "stateMutability": "view",
      "type": "function"
    },
    {
      "constant": true,
      "inputs": [
        {
          "name": "",
          "type": "uint256"
        }
      ],
      "name": "languages",
      "outputs": [
        {
          "name": "",
          "type": "string"
        }
      ],
      "payable": false,
      "stateMutability": "view",
      "type": "function"
    },
    {
      "anonymous": false,
      "inputs": [
        {
          "indexed": true,
          "name": "_address",
          "type": "address"
        },
        {
          "indexed": false,
          "name": "_language",
          "type": "string"
        },
        {
          "indexed": false,
          "name": "_tokenAddress",
          "type": "address"
        }
      ],
      "name": "storageCreated",
      "type": "event"
    },
    {
      "constant": true,
      "inputs": [],
      "name": "getStorageCount",
      "outputs": [
        {
          "name": "",
          "type": "uint256"
        }
      ],
      "payable": false,
      "stateMutability": "view",
      "type": "function"
    },
    {
      "constant": true,
      "inputs": [
        {
          "name": "_index",
          "type": "uint256"
        }
      ],
      "name": "getLanguageAtIndex",
      "outputs": [
        {
          "name": "",
          "type": "string"
        }
      ],
      "payable": false,
      "stateMutability": "view",
      "type": "function"
    },
    {
      "constant": false,
      "inputs": [
        {
          "name": "_language",
          "type": "string"
        },
        {
          "name": "_symbol",
          "type": "string"
        },
        {
          "name": "_minters",
          "type": "address[]"
        },
        {
          "name": "_pausers",
          "type": "address[]"
        },
        {
          "name": "_signAuthority",
          "type": "address[]"
        }
      ],
      "name": "deployStorage",
      "outputs": [
        {
          "name": "",
          "type": "address"
        }
      ],
      "payable": false,
      "stateMutability": "nonpayable",
      "type": "function"
    }
  ],
  "bytecode": "0x608060405234801561001057600080fd5b5061599d806100206000396000f3fe60806040526004361061006d576000357c0100000000000000000000000000000000000000000000000000000000900463ffffffff1680631d5f2001146100725780632d637caa146100ed5780635ffb03c9146101a157806370059d5f1461025557806391891acb14610280575b600080fd5b34801561007e57600080fd5b506100ab6004803603602081101561009557600080fd5b81019080803590602001909291905050506105db565b604051808273ffffffffffffffffffffffffffffffffffffffff1673ffffffffffffffffffffffffffffffffffffffff16815260200191505060405180910390f35b3480156100f957600080fd5b506101266004803603602081101561011057600080fd5b8101908080359060200190929190505050610619565b6040518080602001828103825283818151815260200191508051906020019080838360005b8381101561016657808201518184015260208101905061014b565b50505050905090810190601f1680156101935780820380516001836020036101000a031916815260200191505b509250505060405180910390f35b3480156101ad57600080fd5b506101da600480360360208110156101c457600080fd5b8101908080359060200190929190505050610753565b6040518080602001828103825283818151815260200191508051906020019080838360005b8381101561021a5780820151818401526020810190506101ff565b50505050905090810190601f1680156102475780820380516001836020036101000a031916815260200191505b509250505060405180910390f35b34801561026157600080fd5b5061026a61080e565b6040518082815260200191505060405180910390f35b34801561028c57600080fd5b50610599600480360360a08110156102a357600080fd5b81019080803590602001906401000000008111156102c057600080fd5b8201836020820111156102d257600080fd5b803590602001918460018302840111640100000000831117156102f457600080fd5b91908080601f016020809104026020016040519081016040528093929190818152602001838380828437600081840152601f19601f8201169050808301925050505050505091929192908035906020019064010000000081111561035757600080fd5b82018360208201111561036957600080fd5b8035906020019184600183028401116401000000008311171561038b57600080fd5b91908080601f016020809104026020016040519081016040528093929190818152602001838380828437600081840152601f19601f820116905080830192505050505050509192919290803590602001906401000000008111156103ee57600080fd5b82018360208201111561040057600080fd5b8035906020019184602083028401116401000000008311171561042257600080fd5b919080806020026020016040519081016040528093929190818152602001838360200280828437600081840152601f19601f8201169050808301925050505050505091929192908035906020019064010000000081111561048257600080fd5b82018360208201111561049457600080fd5b803590602001918460208302840111640100000000831117156104b657600080fd5b919080806020026020016040519081016040528093929190818152602001838360200280828437600081840152601f19601f8201169050808301925050505050505091929192908035906020019064010000000081111561051657600080fd5b82018360208201111561052857600080fd5b8035906020019184602083028401116401000000008311171561054a57600080fd5b919080806020026020016040519081016040528093929190818152602001838360200280828437600081840152601f19601f82011690508083019250505050505050919291929050505061081a565b604051808273ffffffffffffffffffffffffffffffffffffffff1673ffffffffffffffffffffffffffffffffffffffff16815260200191505060405180910390f35b6000818154811015156105ea57fe5b906000526020600020016000915054906101000a900473ffffffffffffffffffffffffffffffffffffffff1681565b60606001808054905003821115151561069a576040517f08c379a000000000000000000000000000000000000000000000000000000000815260040180806020018281038252601c8152602001807f496e64657820726571756573746564206f7574206f662072616e67650000000081525060200191505060405180910390fd5b6001828154811015156106a957fe5b906000526020600020018054600181600116156101000203166002900480601f0160208091040260200160405190810160405280929190818152602001828054600181600116156101000203166002900480156107475780601f1061071c57610100808354040283529160200191610747565b820191906000526020600020905b81548152906001019060200180831161072a57829003601f168201915b50505050509050919050565b60018181548110151561076257fe5b906000526020600020016000915090508054600181600116156101000203166002900480601f0160208091040260200160405190810160405280929190818152602001828054600181600116156101000203166002900480156108065780601f106107db57610100808354040283529160200191610806565b820191906000526020600020905b8154815290600101906020018083116107e957829003601f168201915b505050505081565b60008080549050905090565b600080610825610c39565b604051809103906000f080158015610841573d6000803e3d6000fd5b50905060008173ffffffffffffffffffffffffffffffffffffffff1663267818ae89898989896040518663ffffffff167c010000000000000000000000000000000000000000000000000000000002815260040180806020018060200180602001806020018060200186810386528b818151815260200191508051906020019080838360005b838110156108e25780820151818401526020810190506108c7565b50505050905090810190601f16801561090f5780820380516001836020036101000a031916815260200191505b5086810385528a818151815260200191508051906020019080838360005b8381101561094857808201518184015260208101905061092d565b50505050905090810190601f1680156109755780820380516001836020036101000a031916815260200191505b50868103845289818151815260200191508051906020019060200280838360005b838110156109b1578082015181840152602081019050610996565b50505050905001868103835288818151815260200191508051906020019060200280838360005b838110156109f35780820151818401526020810190506109d8565b50505050905001868103825287818151815260200191508051906020019060200280838360005b83811015610a35578082015181840152602081019050610a1a565b505050509050019a5050505050505050505050602060405180830381600087803b158015610a6257600080fd5b505af1158015610a76573d6000803e3d6000fd5b505050506040513d6020811015610a8c57600080fd5b810190808051906020019092919050505090506001889080600181540180825580915050906001820390600052602060002001600090919290919091509080519060200190610adc929190610c49565b505060008290806001815401808255809150509060018203906000526020600020016000909192909190916101000a81548173ffffffffffffffffffffffffffffffffffffffff021916908373ffffffffffffffffffffffffffffffffffffffff160217905550508173ffffffffffffffffffffffffffffffffffffffff167f14081c84401e268fd493d7678d2113d30b334352bc633ef977526cf6ac0c5cb6898360405180806020018373ffffffffffffffffffffffffffffffffffffffff1673ffffffffffffffffffffffffffffffffffffffff168152602001828103825284818151815260200191508051906020019080838360005b83811015610bf0578082015181840152602081019050610bd5565b50505050905090810190601f168015610c1d5780820380516001836020036101000a031916815260200191505b50935050505060405180910390a2819250505095945050505050565b604051614c8380610cef83390190565b828054600181600116156101000203166002900490600052602060002090601f016020900481019282601f10610c8a57805160ff1916838001178555610cb8565b82800160010185558215610cb8579182015b82811115610cb7578251825591602001919060010190610c9c565b5b509050610cc59190610cc9565b5090565b610ceb91905b80821115610ce7576000816000905550600101610ccf565b5090565b9056fe608060405234801561001057600080fd5b50614c63806100206000396000f3fe6080604052600436106100e6576000357c0100000000000000000000000000000000000000000000000000000000900463ffffffff16806307707416146100eb578063267818ae146101855780635531eef5146104e05780635a2efcf71461057a5780635af993ea146105e3578063785e9e861461065e5780637b06bcae146106b557806382f4fd5d146107305780638623ec7b1461075b57806388953ea2146107d65780638cffaeb6146108255780638f21808e146108d9578063cd048de614610928578063d5fc61db146109c9578063ed9978c714610a18578063f6a6daf214610aa8575b600080fd5b3480156100f757600080fd5b5061016f6004803603602081101561010e57600080fd5b810190808035906020019064010000000081111561012b57600080fd5b82018360208201111561013d57600080fd5b8035906020019184600183028401116401000000008311171561015f57600080fd5b9091929391929390505050610b5c565b6040518082815260200191505060405180910390f35b34801561019157600080fd5b5061049e600480360360a08110156101a857600080fd5b81019080803590602001906401000000008111156101c557600080fd5b8201836020820111156101d757600080fd5b803590602001918460018302840111640100000000831117156101f957600080fd5b91908080601f016020809104026020016040519081016040528093929190818152602001838380828437600081840152601f19601f8201169050808301925050505050505091929192908035906020019064010000000081111561025c57600080fd5b82018360208201111561026e57600080fd5b8035906020019184600183028401116401000000008311171561029057600080fd5b91908080601f016020809104026020016040519081016040528093929190818152602001838380828437600081840152601f19601f820116905080830192505050505050509192919290803590602001906401000000008111156102f357600080fd5b82018360208201111561030557600080fd5b8035906020019184602083028401116401000000008311171561032757600080fd5b919080806020026020016040519081016040528093929190818152602001838360200280828437600081840152601f19601f8201169050808301925050505050505091929192908035906020019064010000000081111561038757600080fd5b82018360208201111561039957600080fd5b803590602001918460208302840111640100000000831117156103bb57600080fd5b919080806020026020016040519081016040528093929190818152602001838360200280828437600081840152601f19601f8201169050808301925050505050505091929192908035906020019064010000000081111561041b57600080fd5b82018360208201111561042d57600080fd5b8035906020019184602083028401116401000000008311171561044f57600080fd5b919080806020026020016040519081016040528093929190818152602001838360200280828437600081840152601f19601f820116905080830192505050505050509192919290505050610b8e565b604051808273ffffffffffffffffffffffffffffffffffffffff1673ffffffffffffffffffffffffffffffffffffffff16815260200191505060405180910390f35b3480156104ec57600080fd5b506105646004803603602081101561050357600080fd5b810190808035906020019064010000000081111561052057600080fd5b82018360208201111561053257600080fd5b8035906020019184600183028401116401000000008311171561055457600080fd5b909192939192939050505061146b565b6040518082815260200191505060405180910390f35b34801561058657600080fd5b506105c96004803603602081101561059d57600080fd5b81019080803573ffffffffffffffffffffffffffffffffffffffff16906020019092919050505061149d565b604051808215151515815260200191505060405180910390f35b3480156105ef57600080fd5b5061061c6004803603602081101561060657600080fd5b81019080803590602001909291905050506114bd565b604051808273ffffffffffffffffffffffffffffffffffffffff1673ffffffffffffffffffffffffffffffffffffffff16815260200191505060405180910390f35b34801561066a57600080fd5b506106736114fb565b604051808273ffffffffffffffffffffffffffffffffffffffff1673ffffffffffffffffffffffffffffffffffffffff16815260200191505060405180910390f35b3480156106c157600080fd5b506106ee600480360360208110156106d857600080fd5b8101908080359060200190929190505050611521565b604051808273ffffffffffffffffffffffffffffffffffffffff1673ffffffffffffffffffffffffffffffffffffffff16815260200191505060405180910390f35b34801561073c57600080fd5b5061074561155f565b6040518082815260200191505060405180910390f35b34801561076757600080fd5b506107946004803603602081101561077e57600080fd5b8101908080359060200190929190505050611565565b604051808273ffffffffffffffffffffffffffffffffffffffff1673ffffffffffffffffffffffffffffffffffffffff16815260200191505060405180910390f35b3480156107e257600080fd5b5061080f600480360360208110156107f957600080fd5b81019080803590602001909291905050506115a3565b6040518082815260200191505060405180910390f35b34801561083157600080fd5b5061085e6004803603602081101561084857600080fd5b81019080803590602001909291905050506115c0565b6040518080602001828103825283818151815260200191508051906020019080838360005b8381101561089e578082015181840152602081019050610883565b50505050905090810190601f1680156108cb5780820380516001836020036101000a031916815260200191505b509250505060405180910390f35b3480156108e557600080fd5b50610912600480360360208110156108fc57600080fd5b8101908080359060200190929190505050611675565b6040518082815260200191505060405180910390f35b34801561093457600080fd5b506109ac6004803603602081101561094b57600080fd5b810190808035906020019064010000000081111561096857600080fd5b82018360208201111561097a57600080fd5b8035906020019184600183028401116401000000008311171561099c57600080fd5b9091929391929390505050611692565b604051808381526020018281526020019250505060405180910390f35b3480156109d557600080fd5b50610a02600480360360208110156109ec57600080fd5b81019080803590602001909291905050506118d4565b6040518082815260200191505060405180910390f35b348015610a2457600080fd5b50610a2d6118ec565b6040518080602001828103825283818151815260200191508051906020019080838360005b83811015610a6d578082015181840152602081019050610a52565b50505050905090810190601f168015610a9a5780820380516001836020036101000a031916815260200191505b509250505060405180910390f35b348015610ab457600080fd5b50610ae160048036036020811015610acb57600080fd5b810190808035906020019092919050505061198a565b6040518080602001828103825283818151815260200191508051906020019080838360005b83811015610b21578082015181840152602081019050610b06565b50505050905090810190601f168015610b4e5780820380516001836020036101000a031916815260200191505b509250505060405180910390f35b600060378383604051808383808284378083019250505092505050908152602001604051809103902054905092915050565b60008060019054906101000a900460ff1680610bae5750610bad611a3f565b5b80610bc557506000809054906101000a900460ff16155b1515610c5f576040517f08c379a000000000000000000000000000000000000000000000000000000000815260040180806020018281038252602e8152602001807f436f6e747261637420696e7374616e63652068617320616c726561647920626581526020017f656e20696e697469616c697a656400000000000000000000000000000000000081525060400191505060405180910390fd5b60008060019054906101000a900460ff161590508015610caf576001600060016101000a81548160ff02191690831515021790555060016000806101000a81548160ff0219169083151502179055505b60008090505b835181111515610db85760348482815181101515610ccf57fe5b9060200190602002015190806001815401808255809150509060018203906000526020600020016000909192909190916101000a81548173ffffffffffffffffffffffffffffffffffffffff021916908373ffffffffffffffffffffffffffffffffffffffff160217905550506001603560008684815181101515610d5057fe5b9060200190602002015173ffffffffffffffffffffffffffffffffffffffff1673ffffffffffffffffffffffffffffffffffffffff16815260200190815260200160002060006101000a81548160ff0219169083151502179055508080600101915050610cb5565b5060423090806001815401808255809150509060018203906000526020600020016000909192909190916101000a81548173ffffffffffffffffffffffffffffffffffffffff021916908373ffffffffffffffffffffffffffffffffffffffff1602179055505060433090806001815401808255809150509060018203906000526020600020016000909192909190916101000a81548173ffffffffffffffffffffffffffffffffffffffff021916908373ffffffffffffffffffffffffffffffffffffffff1602179055505060008090505b855181111515610f1f5760428682815181101515610ea557fe5b9060200190602002015190806001815401808255809150509060018203906000526020600020016000909192909190916101000a81548173ffffffffffffffffffffffffffffffffffffffff021916908373ffffffffffffffffffffffffffffffffffffffff160217905550508080600101915050610e8b565b5060008090505b845181111515610fba5760438582815181101515610f4057fe5b9060200190602002015190806001815401808255809150509060018203906000526020600020016000909192909190916101000a81548173ffffffffffffffffffffffffffffffffffffffff021916908373ffffffffffffffffffffffffffffffffffffffff160217905550508080600101915050610f26565b50610fc3611a50565b604051809103906000f080158015610fdf573d6000803e3d6000fd5b50603360006101000a81548173ffffffffffffffffffffffffffffffffffffffff021916908373ffffffffffffffffffffffffffffffffffffffff160217905550603360009054906101000a900473ffffffffffffffffffffffffffffffffffffffff1673ffffffffffffffffffffffffffffffffffffffff166348be01c688886012600030604260436040518863ffffffff167c01000000000000000000000000000000000000000000000000000000000281526004018080602001806020018860ff1681526020018781526020018673ffffffffffffffffffffffffffffffffffffffff1673ffffffffffffffffffffffffffffffffffffffff168152602001806020018060200185810385528c818151815260200191508051906020019080838360005b83811015611121578082015181840152602081019050611106565b50505050905090810190601f16801561114e5780820380516001836020036101000a031916815260200191505b5085810384528b818151815260200191508051906020019080838360005b8381101561118757808201518184015260208101905061116c565b50505050905090810190601f1680156111b45780820380516001836020036101000a031916815260200191505b50858103835287818154815260200191508054801561122857602002820191906000526020600020905b8160009054906101000a900473ffffffffffffffffffffffffffffffffffffffff1673ffffffffffffffffffffffffffffffffffffffff16815260200190600101908083116111de575b5050858103825286818154815260200191508054801561129d57602002820191906000526020600020905b8160009054906101000a900473ffffffffffffffffffffffffffffffffffffffff1673ffffffffffffffffffffffffffffffffffffffff1681526020019060010190808311611253575b50509b505050505050505050505050600060405180830381600087803b1580156112c657600080fd5b505af11580156112da573d6000803e3d6000fd5b5050505086604190805190602001906112f4929190611a60565b507ff670690bc9ab382ac9d4e177bb55953fff8247d6292e2202cefeb4c9278a87508730603360009054906101000a900473ffffffffffffffffffffffffffffffffffffffff1660405180806020018473ffffffffffffffffffffffffffffffffffffffff1673ffffffffffffffffffffffffffffffffffffffff1681526020018373ffffffffffffffffffffffffffffffffffffffff1673ffffffffffffffffffffffffffffffffffffffff168152602001828103825285818151815260200191508051906020019080838360005b838110156113df5780820151818401526020810190506113c4565b50505050905090810190601f16801561140c5780820380516001836020036101000a031916815260200191505b5094505050505060405180910390a1603360009054906101000a900473ffffffffffffffffffffffffffffffffffffffff16915080156114615760008060016101000a81548160ff0219169083151502179055505b5095945050505050565b600060398383604051808383808284378083019250505092505050908152602001604051809103902054905092915050565b60356020528060005260406000206000915054906101000a900460ff1681565b6043818154811015156114cc57fe5b906000526020600020016000915054906101000a900473ffffffffffffffffffffffffffffffffffffffff1681565b603360009054906101000a900473ffffffffffffffffffffffffffffffffffffffff1681565b60348181548110151561153057fe5b906000526020600020016000915054906101000a900473ffffffffffffffffffffffffffffffffffffffff1681565b60405481565b60428181548110151561157457fe5b906000526020600020016000915054906101000a900473ffffffffffffffffffffffffffffffffffffffff1681565b6000603a6000838152602001908152602001600020549050919050565b6060603660008381526020019081526020016000208054600181600116156101000203166002900480601f0160208091040260200160405190810160405280929190818152602001828054600181600116156101000203166002900480156116695780601f1061163e57610100808354040283529160200191611669565b820191906000526020600020905b81548152906001019060200180831161164c57829003601f168201915b50505050509050919050565b6000603b6000838152602001908152602001600020549050919050565b60008060008484604051602001808383808284378083019250505092505050604051602081830303815290604052805190602001209050848460366000604054815260200190815260200160002091906116ed929190611ae0565b5060405460378686604051808383808284378083019250505092505050908152602001604051809103902081905550848460386000848152602001908152602001600020919061173e929190611ae0565b50806039868660405180838380828437808301925050509250505090815260200160405180910390208190555080603a6000604054815260200190815260200160002081905550604054603b600083815260200190815260200160002081905550603c819080600181540180825580915050906001820390600052602060002001600090919290919091505550603e85859091806001815401808255809150509060018203906000526020600020016000909192939091929390919290919250919061180b929190611ae0565b5050603d6040549080600181540180825580915050906001820390600052602060002001600090919290919091505550803373ffffffffffffffffffffffffffffffffffffffff167fea3ce421f944fb182977d78e1d8cc56be493e2910d5672cf407f2ebce8b8a274878760405460405180806020018381526020018281038252858582818152602001925080828437600081840152601f19601f82011690508083019250505094505050505060405180910390a3600160405401604081905550509250929050565b603f6020528060005260406000206000915090505481565b60418054600181600116156101000203166002900480601f0160208091040260200160405190810160405280929190818152602001828054600181600116156101000203166002900480156119825780601f1061195757610100808354040283529160200191611982565b820191906000526020600020905b81548152906001019060200180831161196557829003601f168201915b505050505081565b6060603860008381526020019081526020016000208054600181600116156101000203166002900480601f016020809104026020016040519081016040528092919081815260200182805460018160011615610100020316600290048015611a335780601f10611a0857610100808354040283529160200191611a33565b820191906000526020600020905b815481529060010190602001808311611a1657829003601f168201915b50505050509050919050565b600080303b90506000811491505090565b6040516130b280611b8683390190565b828054600181600116156101000203166002900490600052602060002090601f016020900481019282601f10611aa157805160ff1916838001178555611acf565b82800160010185558215611acf579182015b82811115611ace578251825591602001919060010190611ab3565b5b509050611adc9190611b60565b5090565b828054600181600116156101000203166002900490600052602060002090601f016020900481019282601f10611b2157803560ff1916838001178555611b4f565b82800160010185558215611b4f579182015b82811115611b4e578235825591602001919060010190611b33565b5b509050611b5c9190611b60565b5090565b611b8291905b80821115611b7e576000816000905550600101611b66565b5090565b9056fe608060405234801561001057600080fd5b50613092806100206000396000f3fe608060405260043610610149576000357c0100000000000000000000000000000000000000000000000000000000900463ffffffff16806306fdde031461014e578063095ea7b3146101de5780631624f6c61461025157806318160ddd146103bd57806323b872dd146103e857806331392b4a1461047b578063313ce5671461070f57806339509351146107405780633f4ba83a146107b357806340c10f19146107ca57806346fbf68e1461083d57806348be01c6146108a65780635c975abb14610b645780636ef8d66d14610b9357806370a0823114610baa57806382dc1ec414610c0f5780638456cb5914610c6057806395d89b4114610c77578063983b2d5614610d075780639865027514610d58578063a457c2d714610d6f578063a9059cbb14610de2578063aa271e1a14610e55578063c4d66de814610ebe578063dd62ed3e14610f0f575b600080fd5b34801561015a57600080fd5b50610163610f94565b6040518080602001828103825283818151815260200191508051906020019080838360005b838110156101a3578082015181840152602081019050610188565b50505050905090810190601f1680156101d05780820380516001836020036101000a031916815260200191505b509250505060405180910390f35b3480156101ea57600080fd5b506102376004803603604081101561020157600080fd5b81019080803573ffffffffffffffffffffffffffffffffffffffff16906020019092919080359060200190929190505050611036565b604051808215151515815260200191505060405180910390f35b34801561025d57600080fd5b506103bb6004803603606081101561027457600080fd5b810190808035906020019064010000000081111561029157600080fd5b8201836020820111156102a357600080fd5b803590602001918460018302840111640100000000831117156102c557600080fd5b91908080601f016020809104026020016040519081016040528093929190818152602001838380828437600081840152601f19601f8201169050808301925050505050505091929192908035906020019064010000000081111561032857600080fd5b82018360208201111561033a57600080fd5b8035906020019184600183028401116401000000008311171561035c57600080fd5b91908080601f016020809104026020016040519081016040528093929190818152602001838380828437600081840152601f19601f820116905080830192505050505050509192919290803560ff169060200190929190505050611067565b005b3480156103c957600080fd5b506103d26111f7565b6040518082815260200191505060405180910390f35b3480156103f457600080fd5b506104616004803603606081101561040b57600080fd5b81019080803573ffffffffffffffffffffffffffffffffffffffff169060200190929190803573ffffffffffffffffffffffffffffffffffffffff16906020019092919080359060200190929190505050611201565b604051808215151515815260200191505060405180910390f35b34801561048757600080fd5b5061070d600480360360a081101561049e57600080fd5b81019080803590602001906401000000008111156104bb57600080fd5b8201836020820111156104cd57600080fd5b803590602001918460018302840111640100000000831117156104ef57600080fd5b91908080601f016020809104026020016040519081016040528093929190818152602001838380828437600081840152601f19601f8201169050808301925050505050505091929192908035906020019064010000000081111561055257600080fd5b82018360208201111561056457600080fd5b8035906020019184600183028401116401000000008311171561058657600080fd5b91908080601f016020809104026020016040519081016040528093929190818152602001838380828437600081840152601f19601f820116905080830192505050505050509192919290803560ff169060200190929190803590602001906401000000008111156105f657600080fd5b82018360208201111561060857600080fd5b8035906020019184602083028401116401000000008311171561062a57600080fd5b919080806020026020016040519081016040528093929190818152602001838360200280828437600081840152601f19601f8201169050808301925050505050505091929192908035906020019064010000000081111561068a57600080fd5b82018360208201111561069c57600080fd5b803590602001918460208302840111640100000000831117156106be57600080fd5b919080806020026020016040519081016040528093929190818152602001838360200280828437600081840152601f19601f820116905080830192505050505050509192919290505050611234565b005b34801561071b57600080fd5b50610724611422565b604051808260ff1660ff16815260200191505060405180910390f35b34801561074c57600080fd5b506107996004803603604081101561076357600080fd5b81019080803573ffffffffffffffffffffffffffffffffffffffff16906020019092919080359060200190929190505050611439565b604051808215151515815260200191505060405180910390f35b3480156107bf57600080fd5b506107c861146a565b005b3480156107d657600080fd5b50610823600480360360408110156107ed57600080fd5b81019080803573ffffffffffffffffffffffffffffffffffffffff1690602001909291908035906020019092919050505061151b565b604051808215151515815260200191505060405180910390f35b34801561084957600080fd5b5061088c6004803603602081101561086057600080fd5b81019080803573ffffffffffffffffffffffffffffffffffffffff169060200190929190505050611545565b604051808215151515815260200191505060405180910390f35b3480156108b257600080fd5b50610b62600480360360e08110156108c957600080fd5b81019080803590602001906401000000008111156108e657600080fd5b8201836020820111156108f857600080fd5b8035906020019184600183028401116401000000008311171561091a57600080fd5b91908080601f016020809104026020016040519081016040528093929190818152602001838380828437600081840152601f19601f8201169050808301925050505050505091929192908035906020019064010000000081111561097d57600080fd5b82018360208201111561098f57600080fd5b803590602001918460018302840111640100000000831117156109b157600080fd5b91908080601f016020809104026020016040519081016040528093929190818152602001838380828437600081840152601f19601f820116905080830192505050505050509192919290803560ff16906020019092919080359060200190929190803573ffffffffffffffffffffffffffffffffffffffff16906020019092919080359060200190640100000000811115610a4b57600080fd5b820183602082011115610a5d57600080fd5b80359060200191846020830284011164010000000083111715610a7f57600080fd5b919080806020026020016040519081016040528093929190818152602001838360200280828437600081840152601f19601f82011690508083019250505050505050919291929080359060200190640100000000811115610adf57600080fd5b820183602082011115610af157600080fd5b80359060200191846020830284011164010000000083111715610b1357600080fd5b919080806020026020016040519081016040528093929190818152602001838360200280828437600081840152601f19601f820116905080830192505050505050509192919290505050611563565b005b348015610b7057600080fd5b50610b7961175d565b604051808215151515815260200191505060405180910390f35b348015610b9f57600080fd5b50610ba8611775565b005b348015610bb657600080fd5b50610bf960048036036020811015610bcd57600080fd5b81019080803573ffffffffffffffffffffffffffffffffffffffff169060200190929190505050611780565b6040518082815260200191505060405180910390f35b348015610c1b57600080fd5b50610c5e60048036036020811015610c3257600080fd5b81019080803573ffffffffffffffffffffffffffffffffffffffff1690602001909291905050506117c9565b005b348015610c6c57600080fd5b50610c756117e9565b005b348015610c8357600080fd5b50610c8c61189b565b6040518080602001828103825283818151815260200191508051906020019080838360005b83811015610ccc578082015181840152602081019050610cb1565b50505050905090810190601f168015610cf95780820380516001836020036101000a031916815260200191505b509250505060405180910390f35b348015610d1357600080fd5b50610d5660048036036020811015610d2a57600080fd5b81019080803573ffffffffffffffffffffffffffffffffffffffff16906020019092919050505061193d565b005b348015610d6457600080fd5b50610d6d61195d565b005b348015610d7b57600080fd5b50610dc860048036036040811015610d9257600080fd5b81019080803573ffffffffffffffffffffffffffffffffffffffff16906020019092919080359060200190929190505050611968565b604051808215151515815260200191505060405180910390f35b348015610dee57600080fd5b50610e3b60048036036040811015610e0557600080fd5b81019080803573ffffffffffffffffffffffffffffffffffffffff16906020019092919080359060200190929190505050611999565b604051808215151515815260200191505060405180910390f35b348015610e6157600080fd5b50610ea460048036036020811015610e7857600080fd5b81019080803573ffffffffffffffffffffffffffffffffffffffff1690602001909291905050506119ca565b604051808215151515815260200191505060405180910390f35b348015610eca57600080fd5b50610f0d60048036036020811015610ee157600080fd5b81019080803573ffffffffffffffffffffffffffffffffffffffff1690602001909291905050506119e7565b005b348015610f1b57600080fd5b50610f7e60048036036040811015610f3257600080fd5b81019080803573ffffffffffffffffffffffffffffffffffffffff169060200190929190803573ffffffffffffffffffffffffffffffffffffffff169060200190929190505050611b35565b6040518082815260200191505060405180910390f35b606060338054600181600116156101000203166002900480601f01602080910402602001604051908101604052809291908181526020018280546001816001161561010002031660029004801561102c5780601f106110015761010080835404028352916020019161102c565b820191906000526020600020905b81548152906001019060200180831161100f57829003601f168201915b5050505050905090565b600061013560009054906101000a900460ff1615151561105557600080fd5b61105f8383611bbc565b905092915050565b600060019054906101000a900460ff16806110865750611085611ce9565b5b8061109d57506000809054906101000a900460ff16155b1515611137576040517f08c379a000000000000000000000000000000000000000000000000000000000815260040180806020018281038252602e8152602001807f436f6e747261637420696e7374616e63652068617320616c726561647920626581526020017f656e20696e697469616c697a656400000000000000000000000000000000000081525060400191505060405180910390fd5b60008060019054906101000a900460ff161590508015611187576001600060016101000a81548160ff02191690831515021790555060016000806101000a81548160ff0219169083151502179055505b836033908051906020019061119d929190612fc1565b5082603490805190602001906111b4929190612fc1565b5081603560006101000a81548160ff021916908360ff16021790555080156111f15760008060016101000a81548160ff0219169083151502179055505b50505050565b6000606a54905090565b600061013560009054906101000a900460ff1615151561122057600080fd5b61122b848484611cfa565b90509392505050565b600060019054906101000a900460ff16806112535750611252611ce9565b5b8061126a57506000809054906101000a900460ff16155b1515611304576040517f08c379a000000000000000000000000000000000000000000000000000000000815260040180806020018281038252602e8152602001807f436f6e747261637420696e7374616e63652068617320616c726561647920626581526020017f656e20696e697469616c697a656400000000000000000000000000000000000081525060400191505060405180910390fd5b60008060019054906101000a900460ff161590508015611354576001600060016101000a81548160ff02191690831515021790555060016000806101000a81548160ff0219169083151502179055505b61135f868686611067565b61136830611f02565b61137130612050565b61137a306119e7565b611383306120aa565b60008090505b83518110156113bd576113b284828151811015156113a357fe5b90602001906020020151612105565b806001019050611389565b5060008090505b82518110156113f8576113ed83828151811015156113de57fe5b9060200190602002015161215f565b8060010190506113c4565b50801561141a5760008060016101000a81548160ff0219169083151502179055505b505050505050565b6000603560009054906101000a900460ff16905090565b600061013560009054906101000a900460ff1615151561145857600080fd5b61146283836121ba565b905092915050565b61147333611545565b151561147e57600080fd5b61013560009054906101000a900460ff16151561149a57600080fd5b600061013560006101000a81548160ff0219169083151502179055507f5db9ee0a495bf2e6ff9c91a7834c1ba4fdd244a5e8aa4e537bd38aeae4b073aa33604051808273ffffffffffffffffffffffffffffffffffffffff1673ffffffffffffffffffffffffffffffffffffffff16815260200191505060405180910390a1565b6000611526336119ca565b151561153157600080fd5b61153b83836123f1565b6001905092915050565b600061155c8261010261254790919063ffffffff16565b9050919050565b600060019054906101000a900460ff16806115825750611581611ce9565b5b8061159957506000809054906101000a900460ff16155b1515611633576040517f08c379a000000000000000000000000000000000000000000000000000000000815260040180806020018281038252602e8152602001807f436f6e747261637420696e7374616e63652068617320616c726561647920626581526020017f656e20696e697469616c697a656400000000000000000000000000000000000081525060400191505060405180910390fd5b60008060019054906101000a900460ff161590508015611683576001600060016101000a81548160ff02191690831515021790555060016000806101000a81548160ff0219169083151502179055505b61168e888888611067565b61169884866123f1565b6116a130611f02565b6116aa30612050565b6116b3306119e7565b6116bc306120aa565b60008090505b83518110156116f6576116eb84828151811015156116dc57fe5b90602001906020020151612105565b8060010190506116c2565b5060008090505b825181101561173157611726838281518110151561171757fe5b9060200190602002015161215f565b8060010190506116fd565b5080156117535760008060016101000a81548160ff0219169083151502179055505b5050505050505050565b600061013560009054906101000a900460ff16905090565b61177e336120aa565b565b6000606860008373ffffffffffffffffffffffffffffffffffffffff1673ffffffffffffffffffffffffffffffffffffffff168152602001908152602001600020549050919050565b6117d233611545565b15156117dd57600080fd5b6117e68161215f565b50565b6117f233611545565b15156117fd57600080fd5b61013560009054906101000a900460ff1615151561181a57600080fd5b600161013560006101000a81548160ff0219169083151502179055507f62e78cea01bee320cd4e420270b5ea74000d11b0c9f74754ebdbfc544b05a25833604051808273ffffffffffffffffffffffffffffffffffffffff1673ffffffffffffffffffffffffffffffffffffffff16815260200191505060405180910390a1565b606060348054600181600116156101000203166002900480601f0160208091040260200160405190810160405280929190818152602001828054600181600116156101000203166002900480156119335780601f1061190857610100808354040283529160200191611933565b820191906000526020600020905b81548152906001019060200180831161191657829003601f168201915b5050505050905090565b611946336119ca565b151561195157600080fd5b61195a81612105565b50565b61196633612050565b565b600061013560009054906101000a900460ff1615151561198757600080fd5b61199183836125db565b905092915050565b600061013560009054906101000a900460ff161515156119b857600080fd5b6119c28383612812565b905092915050565b60006119e082609d61254790919063ffffffff16565b9050919050565b600060019054906101000a900460ff1680611a065750611a05611ce9565b5b80611a1d57506000809054906101000a900460ff16155b1515611ab7576040517f08c379a000000000000000000000000000000000000000000000000000000000815260040180806020018281038252602e8152602001807f436f6e747261637420696e7374616e63652068617320616c726561647920626581526020017f656e20696e697469616c697a656400000000000000000000000000000000000081525060400191505060405180910390fd5b60008060019054906101000a900460ff161590508015611b07576001600060016101000a81548160ff02191690831515021790555060016000806101000a81548160ff0219169083151502179055505b611b1082612829565b8015611b315760008060016101000a81548160ff0219169083151502179055505b5050565b6000606960008473ffffffffffffffffffffffffffffffffffffffff1673ffffffffffffffffffffffffffffffffffffffff16815260200190815260200160002060008373ffffffffffffffffffffffffffffffffffffffff1673ffffffffffffffffffffffffffffffffffffffff16815260200190815260200160002054905092915050565b60008073ffffffffffffffffffffffffffffffffffffffff168373ffffffffffffffffffffffffffffffffffffffff1614151515611bf957600080fd5b81606960003373ffffffffffffffffffffffffffffffffffffffff1673ffffffffffffffffffffffffffffffffffffffff16815260200190815260200160002060008573ffffffffffffffffffffffffffffffffffffffff1673ffffffffffffffffffffffffffffffffffffffff168152602001908152602001600020819055508273ffffffffffffffffffffffffffffffffffffffff163373ffffffffffffffffffffffffffffffffffffffff167f8c5be1e5ebec7d5bd14f71427d1e84f3dd0314c0f7b2291e5b200ac8c7c3b925846040518082815260200191505060405180910390a36001905092915050565b600080303b90506000811491505090565b6000611d8b82606960008773ffffffffffffffffffffffffffffffffffffffff1673ffffffffffffffffffffffffffffffffffffffff16815260200190815260200160002060003373ffffffffffffffffffffffffffffffffffffffff1673ffffffffffffffffffffffffffffffffffffffff1681526020019081526020016000205461299390919063ffffffff16565b606960008673ffffffffffffffffffffffffffffffffffffffff1673ffffffffffffffffffffffffffffffffffffffff16815260200190815260200160002060003373ffffffffffffffffffffffffffffffffffffffff1673ffffffffffffffffffffffffffffffffffffffff16815260200190815260200160002081905550611e168484846129b5565b3373ffffffffffffffffffffffffffffffffffffffff168473ffffffffffffffffffffffffffffffffffffffff167f8c5be1e5ebec7d5bd14f71427d1e84f3dd0314c0f7b2291e5b200ac8c7c3b925606960008873ffffffffffffffffffffffffffffffffffffffff1673ffffffffffffffffffffffffffffffffffffffff16815260200190815260200160002060003373ffffffffffffffffffffffffffffffffffffffff1673ffffffffffffffffffffffffffffffffffffffff168152602001908152602001600020546040518082815260200191505060405180910390a3600190509392505050565b600060019054906101000a900460ff1680611f215750611f20611ce9565b5b80611f3857506000809054906101000a900460ff16155b1515611fd2576040517f08c379a000000000000000000000000000000000000000000000000000000000815260040180806020018281038252602e8152602001807f436f6e747261637420696e7374616e63652068617320616c726561647920626581526020017f656e20696e697469616c697a656400000000000000000000000000000000000081525060400191505060405180910390fd5b60008060019054906101000a900460ff161590508015612022576001600060016101000a81548160ff02191690831515021790555060016000806101000a81548160ff0219169083151502179055505b61202b82612b85565b801561204c5760008060016101000a81548160ff0219169083151502179055505b5050565b61206481609d612ce390919063ffffffff16565b8073ffffffffffffffffffffffffffffffffffffffff167fe94479a9f7e1952cc78f2d6baab678adc1b772d936c6583def489e524cb6669260405160405180910390a250565b6120bf81610102612ce390919063ffffffff16565b8073ffffffffffffffffffffffffffffffffffffffff167fcd265ebaf09df2871cc7bd4133404a235ba12eff2041bb89d9c714a2621c7c7e60405160405180910390a250565b61211981609d612d9290919063ffffffff16565b8073ffffffffffffffffffffffffffffffffffffffff167f6ae172837ea30b801fbfcdd4108aa1d5bf8ff775444fd70256b44e6bf3dfc3f660405160405180910390a250565b61217481610102612d9290919063ffffffff16565b8073ffffffffffffffffffffffffffffffffffffffff167f6719d08c1888103bea251a4ed56406bd0c3e69723c8a1686e017e7bbe159b6f860405160405180910390a250565b60008073ffffffffffffffffffffffffffffffffffffffff168373ffffffffffffffffffffffffffffffffffffffff16141515156121f757600080fd5b61228682606960003373ffffffffffffffffffffffffffffffffffffffff1673ffffffffffffffffffffffffffffffffffffffff16815260200190815260200160002060008673ffffffffffffffffffffffffffffffffffffffff1673ffffffffffffffffffffffffffffffffffffffff16815260200190815260200160002054612e4290919063ffffffff16565b606960003373ffffffffffffffffffffffffffffffffffffffff1673ffffffffffffffffffffffffffffffffffffffff16815260200190815260200160002060008573ffffffffffffffffffffffffffffffffffffffff1673ffffffffffffffffffffffffffffffffffffffff168152602001908152602001600020819055508273ffffffffffffffffffffffffffffffffffffffff163373ffffffffffffffffffffffffffffffffffffffff167f8c5be1e5ebec7d5bd14f71427d1e84f3dd0314c0f7b2291e5b200ac8c7c3b925606960003373ffffffffffffffffffffffffffffffffffffffff1673ffffffffffffffffffffffffffffffffffffffff16815260200190815260200160002060008773ffffffffffffffffffffffffffffffffffffffff1673ffffffffffffffffffffffffffffffffffffffff168152602001908152602001600020546040518082815260200191505060405180910390a36001905092915050565b600073ffffffffffffffffffffffffffffffffffffffff168273ffffffffffffffffffffffffffffffffffffffff161415151561242d57600080fd5b61244281606a54612e4290919063ffffffff16565b606a8190555061249a81606860008573ffffffffffffffffffffffffffffffffffffffff1673ffffffffffffffffffffffffffffffffffffffff16815260200190815260200160002054612e4290919063ffffffff16565b606860008473ffffffffffffffffffffffffffffffffffffffff1673ffffffffffffffffffffffffffffffffffffffff168152602001908152602001600020819055508173ffffffffffffffffffffffffffffffffffffffff16600073ffffffffffffffffffffffffffffffffffffffff167fddf252ad1be2c89b69c2b068fc378daa952ba7f163c4a11628f55a4df523b3ef836040518082815260200191505060405180910390a35050565b60008073ffffffffffffffffffffffffffffffffffffffff168273ffffffffffffffffffffffffffffffffffffffff161415151561258457600080fd5b8260000160008373ffffffffffffffffffffffffffffffffffffffff1673ffffffffffffffffffffffffffffffffffffffff16815260200190815260200160002060009054906101000a900460ff16905092915050565b60008073ffffffffffffffffffffffffffffffffffffffff168373ffffffffffffffffffffffffffffffffffffffff161415151561261857600080fd5b6126a782606960003373ffffffffffffffffffffffffffffffffffffffff1673ffffffffffffffffffffffffffffffffffffffff16815260200190815260200160002060008673ffffffffffffffffffffffffffffffffffffffff1673ffffffffffffffffffffffffffffffffffffffff1681526020019081526020016000205461299390919063ffffffff16565b606960003373ffffffffffffffffffffffffffffffffffffffff1673ffffffffffffffffffffffffffffffffffffffff16815260200190815260200160002060008573ffffffffffffffffffffffffffffffffffffffff1673ffffffffffffffffffffffffffffffffffffffff168152602001908152602001600020819055508273ffffffffffffffffffffffffffffffffffffffff163373ffffffffffffffffffffffffffffffffffffffff167f8c5be1e5ebec7d5bd14f71427d1e84f3dd0314c0f7b2291e5b200ac8c7c3b925606960003373ffffffffffffffffffffffffffffffffffffffff1673ffffffffffffffffffffffffffffffffffffffff16815260200190815260200160002060008773ffffffffffffffffffffffffffffffffffffffff1673ffffffffffffffffffffffffffffffffffffffff168152602001908152602001600020546040518082815260200191505060405180910390a36001905092915050565b600061281f3384846129b5565b6001905092915050565b600060019054906101000a900460ff16806128485750612847611ce9565b5b8061285f57506000809054906101000a900460ff16155b15156128f9576040517f08c379a000000000000000000000000000000000000000000000000000000000815260040180806020018281038252602e8152602001807f436f6e747261637420696e7374616e63652068617320616c726561647920626581526020017f656e20696e697469616c697a656400000000000000000000000000000000000081525060400191505060405180910390fd5b60008060019054906101000a900460ff161590508015612949576001600060016101000a81548160ff02191690831515021790555060016000806101000a81548160ff0219169083151502179055505b61295282612e63565b600061013560006101000a81548160ff021916908315150217905550801561298f5760008060016101000a81548160ff0219169083151502179055505b5050565b60008282111515156129a457600080fd5b600082840390508091505092915050565b600073ffffffffffffffffffffffffffffffffffffffff168273ffffffffffffffffffffffffffffffffffffffff16141515156129f157600080fd5b612a4381606860008673ffffffffffffffffffffffffffffffffffffffff1673ffffffffffffffffffffffffffffffffffffffff1681526020019081526020016000205461299390919063ffffffff16565b606860008573ffffffffffffffffffffffffffffffffffffffff1673ffffffffffffffffffffffffffffffffffffffff16815260200190815260200160002081905550612ad881606860008573ffffffffffffffffffffffffffffffffffffffff1673ffffffffffffffffffffffffffffffffffffffff16815260200190815260200160002054612e4290919063ffffffff16565b606860008473ffffffffffffffffffffffffffffffffffffffff1673ffffffffffffffffffffffffffffffffffffffff168152602001908152602001600020819055508173ffffffffffffffffffffffffffffffffffffffff168373ffffffffffffffffffffffffffffffffffffffff167fddf252ad1be2c89b69c2b068fc378daa952ba7f163c4a11628f55a4df523b3ef836040518082815260200191505060405180910390a3505050565b600060019054906101000a900460ff1680612ba45750612ba3611ce9565b5b80612bbb57506000809054906101000a900460ff16155b1515612c55576040517f08c379a000000000000000000000000000000000000000000000000000000000815260040180806020018281038252602e8152602001807f436f6e747261637420696e7374616e63652068617320616c726561647920626581526020017f656e20696e697469616c697a656400000000000000000000000000000000000081525060400191505060405180910390fd5b60008060019054906101000a900460ff161590508015612ca5576001600060016101000a81548160ff02191690831515021790555060016000806101000a81548160ff0219169083151502179055505b612cae826119ca565b1515612cbe57612cbd82612105565b5b8015612cdf5760008060016101000a81548160ff0219169083151502179055505b5050565b600073ffffffffffffffffffffffffffffffffffffffff168173ffffffffffffffffffffffffffffffffffffffff1614151515612d1f57600080fd5b612d298282612547565b1515612d3457600080fd5b60008260000160008373ffffffffffffffffffffffffffffffffffffffff1673ffffffffffffffffffffffffffffffffffffffff16815260200190815260200160002060006101000a81548160ff0219169083151502179055505050565b600073ffffffffffffffffffffffffffffffffffffffff168173ffffffffffffffffffffffffffffffffffffffff1614151515612dce57600080fd5b612dd88282612547565b151515612de457600080fd5b60018260000160008373ffffffffffffffffffffffffffffffffffffffff1673ffffffffffffffffffffffffffffffffffffffff16815260200190815260200160002060006101000a81548160ff0219169083151502179055505050565b6000808284019050838110151515612e5957600080fd5b8091505092915050565b600060019054906101000a900460ff1680612e825750612e81611ce9565b5b80612e9957506000809054906101000a900460ff16155b1515612f33576040517f08c379a000000000000000000000000000000000000000000000000000000000815260040180806020018281038252602e8152602001807f436f6e747261637420696e7374616e63652068617320616c726561647920626581526020017f656e20696e697469616c697a656400000000000000000000000000000000000081525060400191505060405180910390fd5b60008060019054906101000a900460ff161590508015612f83576001600060016101000a81548160ff02191690831515021790555060016000806101000a81548160ff0219169083151502179055505b612f8c82611545565b1515612f9c57612f9b8261215f565b5b8015612fbd5760008060016101000a81548160ff0219169083151502179055505b5050565b828054600181600116156101000203166002900490600052602060002090601f016020900481019282601f1061300257805160ff1916838001178555613030565b82800160010185558215613030579182015b8281111561302f578251825591602001919060010190613014565b5b50905061303d9190613041565b5090565b61306391905b8082111561305f576000816000905550600101613047565b5090565b9056fea165627a7a72305820d884124cfa4562a9b0c8bd59fad97ae986627e4d473445f3dcc3dde3754853e60029a165627a7a723058206222c70b55aa53ec35b37ed74b3a2dc56ac390dbc258025cffb1e1be94f678790029a165627a7a72305820ccb7a2a76e5ca545228413b61de062b31f2c917f847d4b5db17756f46f3521d50029",
  "source": "pragma solidity ^0.5.0;\n\nimport \"../contracts/Storage.sol\";\nimport \"openzeppelin-eth/contracts/token/ERC20/ERC20.sol\";\n\ncontract StorageBuilder {\n    \n    Storage[] public storageLocations;\n    string[] public languages;\n\n    event storageCreated(address indexed _address, string _language, address _tokenAddress);\n    \n    function getStorageCount() public view returns(uint256){\n        return storageLocations.length;\n    }\n\n    function getLanguageAtIndex(uint _index) external view returns(string memory){\n        require(_index <= languages.length-1, \"Index requested out of range\");\n        return languages[_index];\n    }\n    \n\n    //require an address\n    function deployStorage(string memory _language, string memory _symbol, address[] memory _minters, address[] memory _pausers, address[] memory _signAuthority) public returns(Storage){\n        Storage c = new Storage();\n        address tokenAddress = c.initialize(_language, _symbol, _minters, _pausers, _signAuthority);\n        languages.push(_language);\n        storageLocations.push(c);\n        emit storageCreated(address(c), _language, address(tokenAddress));\n        return c;\n    }\n}\n",
  "sourcePath": "/Users/dennisonzeppelin/Documents/word-dao/contracts/StorageBuilder.sol",
  "compiler": {
    "name": "solc",
    "version": "0.5.0+commit.1d4f565a.Emscripten.clang"
  },
  "schemaVersion": "3.0.1",
  "updatedAt": "2019-03-15T16:01:29.754Z",
  "devdoc": {
    "methods": {}
  },
  "userdoc": {
    "methods": {}
  }
}