{
  "contractName": "StorageBuilder",
  "abi": [
    {
      "constant": true,
      "inputs": [
        {
          "name": "",
          "type": "uint256"
        }
      ],
      "name": "storageLocations",
      "outputs": [
        {
          "name": "",
          "type": "address"
        }
      ],
      "payable": false,
      "stateMutability": "view",
      "type": "function"
    },
    {
      "constant": true,
      "inputs": [
        {
          "name": "",
          "type": "uint256"
        }
      ],
      "name": "languages",
      "outputs": [
        {
          "name": "",
          "type": "string"
        }
      ],
      "payable": false,
      "stateMutability": "view",
      "type": "function"
    },
    {
      "anonymous": false,
      "inputs": [
        {
          "indexed": true,
          "name": "_address",
          "type": "address"
        },
        {
          "indexed": false,
          "name": "_language",
          "type": "string"
        }
      ],
      "name": "storageCreated",
      "type": "event"
    },
    {
      "constant": true,
      "inputs": [],
      "name": "getStorageCount",
      "outputs": [
        {
          "name": "",
          "type": "uint256"
        }
      ],
      "payable": false,
      "stateMutability": "view",
      "type": "function"
    },
    {
      "constant": false,
      "inputs": [
        {
          "name": "_language",
          "type": "string"
        }
      ],
      "name": "deployStorage",
      "outputs": [
        {
          "name": "",
          "type": "address"
        }
      ],
      "payable": false,
      "stateMutability": "nonpayable",
      "type": "function"
    }
  ],
  "bytecode": "0x608060405234801561001057600080fd5b506112b3806100206000396000f3fe608060405260043610610062576000357c0100000000000000000000000000000000000000000000000000000000900463ffffffff1680631d5f2001146100675780635ffb03c9146100e257806370059d5f14610196578063f97fde6f146101c1575b600080fd5b34801561007357600080fd5b506100a06004803603602081101561008a57600080fd5b8101908080359060200190929190505050610287565b604051808273ffffffffffffffffffffffffffffffffffffffff1673ffffffffffffffffffffffffffffffffffffffff16815260200191505060405180910390f35b3480156100ee57600080fd5b5061011b6004803603602081101561010557600080fd5b81019080803590602001909291905050506102c5565b6040518080602001828103825283818151815260200191508051906020019080838360005b8381101561015b578082015181840152602081019050610140565b50505050905090810190601f1680156101885780820380516001836020036101000a031916815260200191505b509250505060405180910390f35b3480156101a257600080fd5b506101ab610380565b6040518082815260200191505060405180910390f35b3480156101cd57600080fd5b50610245600480360360208110156101e457600080fd5b810190808035906020019064010000000081111561020157600080fd5b82018360208201111561021357600080fd5b8035906020019184600183028401116401000000008311171561023557600080fd5b909192939192939050505061038c565b604051808273ffffffffffffffffffffffffffffffffffffffff1673ffffffffffffffffffffffffffffffffffffffff16815260200191505060405180910390f35b60008181548110151561029657fe5b906000526020600020016000915054906101000a900473ffffffffffffffffffffffffffffffffffffffff1681565b6001818154811015156102d457fe5b906000526020600020016000915090508054600181600116156101000203166002900480601f0160208091040260200160405190810160405280929190818152602001828054600181600116156101000203166002900480156103785780601f1061034d57610100808354040283529160200191610378565b820191906000526020600020905b81548152906001019060200180831161035b57829003601f168201915b505050505081565b60008080549050905090565b6000808383610399610518565b80806020018281038252848482818152602001925080828437600081840152601f19601f8201169050808301925050509350505050604051809103906000f0801580156103ea573d6000803e3d6000fd5b509050600184849091806001815401808255809150509060018203906000526020600020016000909192939091929390919290919250919061042d929190610528565b505060008190806001815401808255809150509060018203906000526020600020016000909192909190916101000a81548173ffffffffffffffffffffffffffffffffffffffff021916908373ffffffffffffffffffffffffffffffffffffffff160217905550508073ffffffffffffffffffffffffffffffffffffffff167e20288a6df9a01f6ed2bda34f8f5f8e86a837da1e6c9c8df1a5049140f08353858560405180806020018281038252848482818152602001925080828437600081840152601f19601f820116905080830192505050935050505060405180910390a28091505092915050565b604051610cba806105ce83390190565b828054600181600116156101000203166002900490600052602060002090601f016020900481019282601f1061056957803560ff1916838001178555610597565b82800160010185558215610597579182015b8281111561059657823582559160200191906001019061057b565b5b5090506105a491906105a8565b5090565b6105ca91905b808211156105c65760008160009055506001016105ae565b5090565b9056fe608060405234801561001057600080fd5b50604051610cba380380610cba8339810180604052602081101561003357600080fd5b81019080805164010000000081111561004b57600080fd5b8281019050602081018481111561006157600080fd5b815185600182028301116401000000008211171561007e57600080fd5b505092919050505080600b908051906020019061009c9291906100a3565b5050610148565b828054600181600116156101000203166002900490600052602060002090601f016020900481019282601f106100e457805160ff1916838001178555610112565b82800160010185558215610112579182015b828111156101115782518255916020019190600101906100f6565b5b50905061011f9190610123565b5090565b61014591905b80821115610141576000816000905550600101610129565b5090565b90565b610b63806101576000396000f3fe6080604052600436106100a4576000357c0100000000000000000000000000000000000000000000000000000000900463ffffffff16806307707416146100a95780635531eef51461014357806382f4fd5d146101dd57806388953ea2146102085780638cffaeb6146102575780638f21808e1461030b578063cd048de61461035a578063d5fc61db146103fb578063ed9978c71461044a578063f6a6daf2146104da575b600080fd5b3480156100b557600080fd5b5061012d600480360360208110156100cc57600080fd5b81019080803590602001906401000000008111156100e957600080fd5b8201836020820111156100fb57600080fd5b8035906020019184600183028401116401000000008311171561011d57600080fd5b909192939192939050505061058e565b6040518082815260200191505060405180910390f35b34801561014f57600080fd5b506101c76004803603602081101561016657600080fd5b810190808035906020019064010000000081111561018357600080fd5b82018360208201111561019557600080fd5b803590602001918460018302840111640100000000831117156101b757600080fd5b90919293919293905050506105c0565b6040518082815260200191505060405180910390f35b3480156101e957600080fd5b506101f26105f2565b6040518082815260200191505060405180910390f35b34801561021457600080fd5b506102416004803603602081101561022b57600080fd5b81019080803590602001909291905050506105f8565b6040518082815260200191505060405180910390f35b34801561026357600080fd5b506102906004803603602081101561027a57600080fd5b8101908080359060200190929190505050610615565b6040518080602001828103825283818151815260200191508051906020019080838360005b838110156102d05780820151818401526020810190506102b5565b50505050905090810190601f1680156102fd5780820380516001836020036101000a031916815260200191505b509250505060405180910390f35b34801561031757600080fd5b506103446004803603602081101561032e57600080fd5b81019080803590602001909291905050506106c9565b6040518082815260200191505060405180910390f35b34801561036657600080fd5b506103de6004803603602081101561037d57600080fd5b810190808035906020019064010000000081111561039a57600080fd5b8201836020820111156103ac57600080fd5b803590602001918460018302840111640100000000831117156103ce57600080fd5b90919293919293905050506106e6565b604051808381526020018281526020019250505060405180910390f35b34801561040757600080fd5b506104346004803603602081101561041e57600080fd5b8101908080359060200190929190505050610927565b6040518082815260200191505060405180910390f35b34801561045657600080fd5b5061045f61093f565b6040518080602001828103825283818151815260200191508051906020019080838360005b8381101561049f578082015181840152602081019050610484565b50505050905090810190601f1680156104cc5780820380516001836020036101000a031916815260200191505b509250505060405180910390f35b3480156104e657600080fd5b50610513600480360360208110156104fd57600080fd5b81019080803590602001909291905050506109dd565b6040518080602001828103825283818151815260200191508051906020019080838360005b83811015610553578082015181840152602081019050610538565b50505050905090810190601f1680156105805780820380516001836020036101000a031916815260200191505b509250505060405180910390f35b600060018383604051808383808284378083019250505092505050908152602001604051809103902054905092915050565b600060038383604051808383808284378083019250505092505050908152602001604051809103902054905092915050565b600a5481565b600060046000838152602001908152602001600020549050919050565b60606000808381526020019081526020016000208054600181600116156101000203166002900480601f0160208091040260200160405190810160405280929190818152602001828054600181600116156101000203166002900480156106bd5780601f10610692576101008083540402835291602001916106bd565b820191906000526020600020905b8154815290600101906020018083116106a057829003601f168201915b50505050509050919050565b600060056000838152602001908152602001600020549050919050565b600080600084846040516020018083838082843780830192505050925050506040516020818303038152906040528051906020012090508484600080600a5481526020019081526020016000209190610740929190610a92565b50600a54600186866040518083838082843780830192505050925050509081526020016040518091039020819055508484600260008481526020019081526020016000209190610791929190610a92565b5080600386866040518083838082843780830192505050925050509081526020016040518091039020819055508060046000600a54815260200190815260200160002081905550600a5460056000838152602001908152602001600020819055506006819080600181540180825580915050906001820390600052602060002001600090919290919091505550600885859091806001815401808255809150509060018203906000526020600020016000909192939091929390919290919250919061085e929190610a92565b50506007600a549080600181540180825580915050906001820390600052602060002001600090919290919091505550803373ffffffffffffffffffffffffffffffffffffffff167fea3ce421f944fb182977d78e1d8cc56be493e2910d5672cf407f2ebce8b8a2748787600a5460405180806020018381526020018281038252858582818152602001925080828437600081840152601f19601f82011690508083019250505094505050505060405180910390a36001600a5401600a81905550509250929050565b60096020528060005260406000206000915090505481565b600b8054600181600116156101000203166002900480601f0160208091040260200160405190810160405280929190818152602001828054600181600116156101000203166002900480156109d55780601f106109aa576101008083540402835291602001916109d5565b820191906000526020600020905b8154815290600101906020018083116109b857829003601f168201915b505050505081565b6060600260008381526020019081526020016000208054600181600116156101000203166002900480601f016020809104026020016040519081016040528092919081815260200182805460018160011615610100020316600290048015610a865780601f10610a5b57610100808354040283529160200191610a86565b820191906000526020600020905b815481529060010190602001808311610a6957829003601f168201915b50505050509050919050565b828054600181600116156101000203166002900490600052602060002090601f016020900481019282601f10610ad357803560ff1916838001178555610b01565b82800160010185558215610b01579182015b82811115610b00578235825591602001919060010190610ae5565b5b509050610b0e9190610b12565b5090565b610b3491905b80821115610b30576000816000905550600101610b18565b5090565b9056fea165627a7a72305820137397eb4bb74897e147420123fa709c6d0d8fc76d5e43486180d63a7e8901180029a165627a7a7230582046e0af45590ad947f42ccd1e51b91f4abfd3006961e0336495246f06931041320029",
  "source": "pragma solidity ^0.5.0;\n\nimport \"../contracts/Storage.sol\";\n\ncontract StorageBuilder {\n    \n    address[] public storageLocations;\n    string[] public languages;\n\n    event storageCreated(address indexed _address, string _language);\n    \n    function getStorageCount() public view returns(uint256){\n        return storageLocations.length;\n    }\n    \n    function deployStorage(string calldata _language) external returns(address){\n        Storage c = new Storage(_language);\n        languages.push(_language);\n        storageLocations.push(address(c));\n        emit storageCreated(address(c), _language);\n        return address(c);\n    }\n}\n",
  "sourcePath": "/Users/dennisonzeppelin/Documents/word-dao/contracts/StorageBuilder.sol",
  "compiler": {
    "name": "solc",
    "version": "0.5.0+commit.1d4f565a.Emscripten.clang"
  },
  "schemaVersion": "3.0.1",
  "updatedAt": "2019-03-14T13:53:04.807Z",
  "devdoc": {
    "methods": {}
  },
  "userdoc": {
    "methods": {}
  }
}