{
  "contractName": "StorageBuilder",
  "abi": [
    {
      "constant": true,
      "inputs": [
        {
          "name": "",
          "type": "uint256"
        }
      ],
      "name": "storageLocations",
      "outputs": [
        {
          "name": "",
          "type": "address"
        }
      ],
      "payable": false,
      "stateMutability": "view",
      "type": "function"
    },
    {
      "constant": true,
      "inputs": [
        {
          "name": "",
          "type": "uint256"
        }
      ],
      "name": "languages",
      "outputs": [
        {
          "name": "",
          "type": "string"
        }
      ],
      "payable": false,
      "stateMutability": "view",
      "type": "function"
    },
    {
      "anonymous": false,
      "inputs": [
        {
          "indexed": true,
          "name": "_address",
          "type": "address"
        },
        {
          "indexed": false,
          "name": "_language",
          "type": "string"
        }
      ],
      "name": "storageCreated",
      "type": "event"
    },
    {
      "constant": true,
      "inputs": [],
      "name": "getStorageCount",
      "outputs": [
        {
          "name": "",
          "type": "uint256"
        }
      ],
      "payable": false,
      "stateMutability": "view",
      "type": "function"
    },
    {
      "constant": true,
      "inputs": [
        {
          "name": "_index",
          "type": "uint256"
        }
      ],
      "name": "getLanguageAtIndex",
      "outputs": [
        {
          "name": "",
          "type": "string"
        }
      ],
      "payable": false,
      "stateMutability": "view",
      "type": "function"
    },
    {
      "constant": false,
      "inputs": [
        {
          "name": "_language",
          "type": "string"
        }
      ],
      "name": "deployStorage",
      "outputs": [
        {
          "name": "",
          "type": "address"
        }
      ],
      "payable": false,
      "stateMutability": "nonpayable",
      "type": "function"
    }
  ],
  "bytecode": "0x608060405234801561001057600080fd5b506116a4806100206000396000f3fe60806040526004361061006d576000357c0100000000000000000000000000000000000000000000000000000000900463ffffffff1680631d5f2001146100725780632d637caa146100ed5780635ffb03c9146101a157806370059d5f14610255578063f97fde6f14610280575b600080fd5b34801561007e57600080fd5b506100ab6004803603602081101561009557600080fd5b8101908080359060200190929190505050610346565b604051808273ffffffffffffffffffffffffffffffffffffffff1673ffffffffffffffffffffffffffffffffffffffff16815260200191505060405180910390f35b3480156100f957600080fd5b506101266004803603602081101561011057600080fd5b8101908080359060200190929190505050610384565b6040518080602001828103825283818151815260200191508051906020019080838360005b8381101561016657808201518184015260208101905061014b565b50505050905090810190601f1680156101935780820380516001836020036101000a031916815260200191505b509250505060405180910390f35b3480156101ad57600080fd5b506101da600480360360208110156101c457600080fd5b81019080803590602001909291905050506104be565b6040518080602001828103825283818151815260200191508051906020019080838360005b8381101561021a5780820151818401526020810190506101ff565b50505050905090810190601f1680156102475780820380516001836020036101000a031916815260200191505b509250505060405180910390f35b34801561026157600080fd5b5061026a610579565b6040518082815260200191505060405180910390f35b34801561028c57600080fd5b50610304600480360360208110156102a357600080fd5b81019080803590602001906401000000008111156102c057600080fd5b8201836020820111156102d257600080fd5b803590602001918460018302840111640100000000831117156102f457600080fd5b9091929391929390505050610585565b604051808273ffffffffffffffffffffffffffffffffffffffff1673ffffffffffffffffffffffffffffffffffffffff16815260200191505060405180910390f35b60008181548110151561035557fe5b906000526020600020016000915054906101000a900473ffffffffffffffffffffffffffffffffffffffff1681565b606060018080549050038211151515610405576040517f08c379a000000000000000000000000000000000000000000000000000000000815260040180806020018281038252601c8152602001807f496e64657820726571756573746564206f7574206f662072616e67650000000081525060200191505060405180910390fd5b60018281548110151561041457fe5b906000526020600020018054600181600116156101000203166002900480601f0160208091040260200160405190810160405280929190818152602001828054600181600116156101000203166002900480156104b25780601f10610487576101008083540402835291602001916104b2565b820191906000526020600020905b81548152906001019060200180831161049557829003601f168201915b50505050509050919050565b6001818154811015156104cd57fe5b906000526020600020016000915090508054600181600116156101000203166002900480601f0160208091040260200160405190810160405280929190818152602001828054600181600116156101000203166002900480156105715780601f1061054657610100808354040283529160200191610571565b820191906000526020600020905b81548152906001019060200180831161055457829003601f168201915b505050505081565b60008080549050905090565b60008061059061078d565b604051809103906000f0801580156105ac573d6000803e3d6000fd5b5090508073ffffffffffffffffffffffffffffffffffffffff1663f62d188885856040518363ffffffff167c010000000000000000000000000000000000000000000000000000000002815260040180806020018281038252848482818152602001925080828437600081840152601f19601f8201169050808301925050509350505050600060405180830381600087803b15801561064a57600080fd5b505af115801561065e573d6000803e3d6000fd5b5050505060018484909180600181540180825580915050906001820390600052602060002001600090919293909192939091929091925091906106a292919061079d565b505060008190806001815401808255809150509060018203906000526020600020016000909192909190916101000a81548173ffffffffffffffffffffffffffffffffffffffff021916908373ffffffffffffffffffffffffffffffffffffffff160217905550508073ffffffffffffffffffffffffffffffffffffffff167e20288a6df9a01f6ed2bda34f8f5f8e86a837da1e6c9c8df1a5049140f08353858560405180806020018281038252848482818152602001925080828437600081840152601f19601f820116905080830192505050935050505060405180910390a28091505092915050565b604051610e368061084383390190565b828054600181600116156101000203166002900490600052602060002090601f016020900481019282601f106107de57803560ff191683800117855561080c565b8280016001018555821561080c579182015b8281111561080b5782358255916020019190600101906107f0565b5b509050610819919061081d565b5090565b61083f91905b8082111561083b576000816000905550600101610823565b5090565b9056fe608060405234801561001057600080fd5b50610e16806100206000396000f3fe6080604052600436106100af576000357c0100000000000000000000000000000000000000000000000000000000900463ffffffff16806307707416146100b45780635531eef51461014e57806382f4fd5d146101e857806388953ea2146102135780638cffaeb6146102625780638f21808e14610316578063cd048de614610365578063d5fc61db14610406578063ed9978c714610455578063f62d1888146104e5578063f6a6daf2146105ad575b600080fd5b3480156100c057600080fd5b50610138600480360360208110156100d757600080fd5b81019080803590602001906401000000008111156100f457600080fd5b82018360208201111561010657600080fd5b8035906020019184600183028401116401000000008311171561012857600080fd5b9091929391929390505050610661565b6040518082815260200191505060405180910390f35b34801561015a57600080fd5b506101d26004803603602081101561017157600080fd5b810190808035906020019064010000000081111561018e57600080fd5b8201836020820111156101a057600080fd5b803590602001918460018302840111640100000000831117156101c257600080fd5b9091929391929390505050610693565b6040518082815260200191505060405180910390f35b3480156101f457600080fd5b506101fd6106c5565b6040518082815260200191505060405180910390f35b34801561021f57600080fd5b5061024c6004803603602081101561023657600080fd5b81019080803590602001909291905050506106cb565b6040518082815260200191505060405180910390f35b34801561026e57600080fd5b5061029b6004803603602081101561028557600080fd5b81019080803590602001909291905050506106e8565b6040518080602001828103825283818151815260200191508051906020019080838360005b838110156102db5780820151818401526020810190506102c0565b50505050905090810190601f1680156103085780820380516001836020036101000a031916815260200191505b509250505060405180910390f35b34801561032257600080fd5b5061034f6004803603602081101561033957600080fd5b810190808035906020019092919050505061079d565b6040518082815260200191505060405180910390f35b34801561037157600080fd5b506103e96004803603602081101561038857600080fd5b81019080803590602001906401000000008111156103a557600080fd5b8201836020820111156103b757600080fd5b803590602001918460018302840111640100000000831117156103d957600080fd5b90919293919293905050506107ba565b604051808381526020018281526020019250505060405180910390f35b34801561041257600080fd5b5061043f6004803603602081101561042957600080fd5b81019080803590602001909291905050506109fc565b6040518082815260200191505060405180910390f35b34801561046157600080fd5b5061046a610a14565b6040518080602001828103825283818151815260200191508051906020019080838360005b838110156104aa57808201518184015260208101905061048f565b50505050905090810190601f1680156104d75780820380516001836020036101000a031916815260200191505b509250505060405180910390f35b3480156104f157600080fd5b506105ab6004803603602081101561050857600080fd5b810190808035906020019064010000000081111561052557600080fd5b82018360208201111561053757600080fd5b8035906020019184600183028401116401000000008311171561055957600080fd5b91908080601f016020809104026020016040519081016040528093929190818152602001838380828437600081840152601f19601f820116905080830192505050505050509192919290505050610ab2565b005b3480156105b957600080fd5b506105e6600480360360208110156105d057600080fd5b8101908080359060200190929190505050610bff565b6040518080602001828103825283818151815260200191508051906020019080838360005b8381101561062657808201518184015260208101905061060b565b50505050905090810190601f1680156106535780820380516001836020036101000a031916815260200191505b509250505060405180910390f35b600060348383604051808383808284378083019250505092505050908152602001604051809103902054905092915050565b600060368383604051808383808284378083019250505092505050908152602001604051809103902054905092915050565b603d5481565b600060376000838152602001908152602001600020549050919050565b6060603360008381526020019081526020016000208054600181600116156101000203166002900480601f0160208091040260200160405190810160405280929190818152602001828054600181600116156101000203166002900480156107915780601f1061076657610100808354040283529160200191610791565b820191906000526020600020905b81548152906001019060200180831161077457829003601f168201915b50505050509050919050565b600060386000838152602001908152602001600020549050919050565b60008060008484604051602001808383808284378083019250505092505050604051602081830303815290604052805190602001209050848460336000603d5481526020019081526020016000209190610815929190610cc5565b50603d54603486866040518083838082843780830192505050925050509081526020016040518091039020819055508484603560008481526020019081526020016000209190610866929190610cc5565b5080603686866040518083838082843780830192505050925050509081526020016040518091039020819055508060376000603d54815260200190815260200160002081905550603d5460386000838152602001908152602001600020819055506039819080600181540180825580915050906001820390600052602060002001600090919290919091505550603b858590918060018154018082558091505090600182039060005260206000200160009091929390919293909192909192509190610933929190610cc5565b5050603a603d549080600181540180825580915050906001820390600052602060002001600090919290919091505550803373ffffffffffffffffffffffffffffffffffffffff167fea3ce421f944fb182977d78e1d8cc56be493e2910d5672cf407f2ebce8b8a2748787603d5460405180806020018381526020018281038252858582818152602001925080828437600081840152601f19601f82011690508083019250505094505050505060405180910390a36001603d5401603d81905550509250929050565b603c6020528060005260406000206000915090505481565b603e8054600181600116156101000203166002900480601f016020809104026020016040519081016040528092919081815260200182805460018160011615610100020316600290048015610aaa5780601f10610a7f57610100808354040283529160200191610aaa565b820191906000526020600020905b815481529060010190602001808311610a8d57829003601f168201915b505050505081565b600060019054906101000a900460ff1680610ad15750610ad0610cb4565b5b80610ae857506000809054906101000a900460ff16155b1515610b82576040517f08c379a000000000000000000000000000000000000000000000000000000000815260040180806020018281038252602e8152602001807f436f6e747261637420696e7374616e63652068617320616c726561647920626581526020017f656e20696e697469616c697a656400000000000000000000000000000000000081525060400191505060405180910390fd5b60008060019054906101000a900460ff1690506001600060016101000a81548160ff02191690831515021790555060016000806101000a81548160ff02191690831515021790555081603e9080519060200190610be0929190610d45565b5080600060016101000a81548160ff0219169083151502179055505050565b6060603560008381526020019081526020016000208054600181600116156101000203166002900480601f016020809104026020016040519081016040528092919081815260200182805460018160011615610100020316600290048015610ca85780601f10610c7d57610100808354040283529160200191610ca8565b820191906000526020600020905b815481529060010190602001808311610c8b57829003601f168201915b50505050509050919050565b600080303b90506000811491505090565b828054600181600116156101000203166002900490600052602060002090601f016020900481019282601f10610d0657803560ff1916838001178555610d34565b82800160010185558215610d34579182015b82811115610d33578235825591602001919060010190610d18565b5b509050610d419190610dc5565b5090565b828054600181600116156101000203166002900490600052602060002090601f016020900481019282601f10610d8657805160ff1916838001178555610db4565b82800160010185558215610db4579182015b82811115610db3578251825591602001919060010190610d98565b5b509050610dc19190610dc5565b5090565b610de791905b80821115610de3576000816000905550600101610dcb565b5090565b9056fea165627a7a723058203c0b69515c637c2ad44de4b488cc269552a97882e827f9f10695038359175bdb0029a165627a7a723058201e77d42a77f34ad82d9a42987511c5f64473a890a5c442950916914f09526e300029",
  "source": "pragma solidity ^0.5.0;\n\nimport \"../contracts/Storage.sol\";\n\ncontract StorageBuilder {\n    \n    address[] public storageLocations;\n    string[] public languages;\n\n    event storageCreated(address indexed _address, string _language);\n    \n    function getStorageCount() public view returns(uint256){\n        return storageLocations.length;\n    }\n\n    function getLanguageAtIndex(uint _index) external view returns(string memory){\n        require(_index <= languages.length-1, \"Index requested out of range\");\n        return languages[_index];\n    }\n    \n    function deployStorage(string calldata _language) external returns(address){\n        Storage c = new Storage();\n        c.initialize(_language);\n        languages.push(_language);\n        storageLocations.push(address(c));\n        emit storageCreated(address(c), _language);\n        return address(c);\n    }\n}\n",
  "sourcePath": "/Users/dennisonzeppelin/Documents/word-dao/contracts/StorageBuilder.sol",
  "compiler": {
    "name": "solc",
    "version": "0.5.0+commit.1d4f565a.Emscripten.clang"
  },
  "schemaVersion": "3.0.1",
  "updatedAt": "2019-03-14T15:33:08.105Z",
  "devdoc": {
    "methods": {}
  },
  "userdoc": {
    "methods": {}
  }
}