{
  "contractName": "Storage",
  "abi": [
    {
      "constant": true,
      "inputs": [],
      "name": "totalWords",
      "outputs": [
        {
          "name": "",
          "type": "uint256"
        }
      ],
      "payable": false,
      "stateMutability": "view",
      "type": "function"
    },
    {
      "constant": true,
      "inputs": [],
      "name": "tokenAddress",
      "outputs": [
        {
          "name": "",
          "type": "address"
        }
      ],
      "payable": false,
      "stateMutability": "view",
      "type": "function"
    },
    {
      "constant": true,
      "inputs": [
        {
          "name": "",
          "type": "uint256"
        }
      ],
      "name": "wordFrequency",
      "outputs": [
        {
          "name": "",
          "type": "uint256"
        }
      ],
      "payable": false,
      "stateMutability": "view",
      "type": "function"
    },
    {
      "constant": true,
      "inputs": [],
      "name": "language",
      "outputs": [
        {
          "name": "",
          "type": "string"
        }
      ],
      "payable": false,
      "stateMutability": "view",
      "type": "function"
    },
    {
      "anonymous": false,
      "inputs": [
        {
          "indexed": false,
          "name": "_word",
          "type": "string"
        },
        {
          "indexed": true,
          "name": "_from",
          "type": "address"
        },
        {
          "indexed": false,
          "name": "_wordNumber",
          "type": "uint256"
        },
        {
          "indexed": true,
          "name": "_wordBytes32",
          "type": "bytes32"
        }
      ],
      "name": "wordAdded",
      "type": "event"
    },
    {
      "anonymous": false,
      "inputs": [
        {
          "indexed": false,
          "name": "_wordNumber",
          "type": "uint256"
        },
        {
          "indexed": true,
          "name": "_from",
          "type": "address"
        }
      ],
      "name": "wordRequested",
      "type": "event"
    },
    {
      "constant": false,
      "inputs": [
        {
          "name": "_language",
          "type": "string"
        },
        {
          "name": "_tokenAddress",
          "type": "address"
        }
      ],
      "name": "initialize",
      "outputs": [],
      "payable": false,
      "stateMutability": "nonpayable",
      "type": "function"
    },
    {
      "constant": false,
      "inputs": [
        {
          "name": "_word",
          "type": "string"
        }
      ],
      "name": "setWord",
      "outputs": [
        {
          "name": "",
          "type": "uint256"
        },
        {
          "name": "",
          "type": "bytes32"
        }
      ],
      "payable": false,
      "stateMutability": "nonpayable",
      "type": "function"
    },
    {
      "constant": true,
      "inputs": [
        {
          "name": "_word",
          "type": "string"
        }
      ],
      "name": "getWordStringToUint256",
      "outputs": [
        {
          "name": "",
          "type": "uint256"
        }
      ],
      "payable": false,
      "stateMutability": "view",
      "type": "function"
    },
    {
      "constant": true,
      "inputs": [
        {
          "name": "_word",
          "type": "string"
        }
      ],
      "name": "getWordStringToBytes32",
      "outputs": [
        {
          "name": "",
          "type": "bytes32"
        }
      ],
      "payable": false,
      "stateMutability": "view",
      "type": "function"
    },
    {
      "constant": true,
      "inputs": [
        {
          "name": "_wordNumber",
          "type": "uint256"
        }
      ],
      "name": "getWordUint256ToString",
      "outputs": [
        {
          "name": "",
          "type": "string"
        }
      ],
      "payable": false,
      "stateMutability": "view",
      "type": "function"
    },
    {
      "constant": true,
      "inputs": [
        {
          "name": "_wordNumber",
          "type": "uint256"
        }
      ],
      "name": "getWordUint256ToBytes32",
      "outputs": [
        {
          "name": "",
          "type": "bytes32"
        }
      ],
      "payable": false,
      "stateMutability": "view",
      "type": "function"
    },
    {
      "constant": true,
      "inputs": [
        {
          "name": "_wordBytes",
          "type": "bytes32"
        }
      ],
      "name": "getWordBytes32ToString",
      "outputs": [
        {
          "name": "",
          "type": "string"
        }
      ],
      "payable": false,
      "stateMutability": "view",
      "type": "function"
    },
    {
      "constant": true,
      "inputs": [
        {
          "name": "_wordBytes",
          "type": "bytes32"
        }
      ],
      "name": "getWordBytes32ToUint256",
      "outputs": [
        {
          "name": "",
          "type": "uint256"
        }
      ],
      "payable": false,
      "stateMutability": "view",
      "type": "function"
    }
  ],
  "bytecode": "0x608060405234801561001057600080fd5b50610f00806100206000396000f3fe6080604052600436106100ba576000357c0100000000000000000000000000000000000000000000000000000000900463ffffffff16806307707416146100bf5780635531eef5146101595780637ab4339d146101f357806382f4fd5d146102db57806388953ea2146103065780638cffaeb6146103555780638f21808e146104095780639d76ea5814610458578063cd048de6146104af578063d5fc61db14610550578063ed9978c71461059f578063f6a6daf21461062f575b600080fd5b3480156100cb57600080fd5b50610143600480360360208110156100e257600080fd5b81019080803590602001906401000000008111156100ff57600080fd5b82018360208201111561011157600080fd5b8035906020019184600183028401116401000000008311171561013357600080fd5b90919293919293905050506106e3565b6040518082815260200191505060405180910390f35b34801561016557600080fd5b506101dd6004803603602081101561017c57600080fd5b810190808035906020019064010000000081111561019957600080fd5b8201836020820111156101ab57600080fd5b803590602001918460018302840111640100000000831117156101cd57600080fd5b9091929391929390505050610715565b6040518082815260200191505060405180910390f35b3480156101ff57600080fd5b506102d96004803603604081101561021657600080fd5b810190808035906020019064010000000081111561023357600080fd5b82018360208201111561024557600080fd5b8035906020019184600183028401116401000000008311171561026757600080fd5b91908080601f016020809104026020016040519081016040528093929190818152602001838380828437600081840152601f19601f820116905080830192505050505050509192919290803573ffffffffffffffffffffffffffffffffffffffff169060200190929190505050610747565b005b3480156102e757600080fd5b506102f06108d6565b6040518082815260200191505060405180910390f35b34801561031257600080fd5b5061033f6004803603602081101561032957600080fd5b81019080803590602001909291905050506108dc565b6040518082815260200191505060405180910390f35b34801561036157600080fd5b5061038e6004803603602081101561037857600080fd5b81019080803590602001909291905050506108f9565b6040518080602001828103825283818151815260200191508051906020019080838360005b838110156103ce5780820151818401526020810190506103b3565b50505050905090810190601f1680156103fb5780820380516001836020036101000a031916815260200191505b509250505060405180910390f35b34801561041557600080fd5b506104426004803603602081101561042c57600080fd5b81019080803590602001909291905050506109ae565b6040518082815260200191505060405180910390f35b34801561046457600080fd5b5061046d6109cb565b604051808273ffffffffffffffffffffffffffffffffffffffff1673ffffffffffffffffffffffffffffffffffffffff16815260200191505060405180910390f35b3480156104bb57600080fd5b50610533600480360360208110156104d257600080fd5b81019080803590602001906401000000008111156104ef57600080fd5b82018360208201111561050157600080fd5b8035906020019184600183028401116401000000008311171561052357600080fd5b90919293919293905050506109f1565b604051808381526020018281526020019250505060405180910390f35b34801561055c57600080fd5b506105896004803603602081101561057357600080fd5b8101908080359060200190929190505050610c33565b6040518082815260200191505060405180910390f35b3480156105ab57600080fd5b506105b4610c4b565b6040518080602001828103825283818151815260200191508051906020019080838360005b838110156105f45780820151818401526020810190506105d9565b50505050905090810190601f1680156106215780820380516001836020036101000a031916815260200191505b509250505060405180910390f35b34801561063b57600080fd5b506106686004803603602081101561065257600080fd5b8101908080359060200190929190505050610ce9565b6040518080602001828103825283818151815260200191508051906020019080838360005b838110156106a857808201518184015260208101905061068d565b50505050905090810190601f1680156106d55780820380516001836020036101000a031916815260200191505b509250505060405180910390f35b600060358383604051808383808284378083019250505092505050908152602001604051809103902054905092915050565b600060378383604051808383808284378083019250505092505050908152602001604051809103902054905092915050565b600060019054906101000a900460ff16806107665750610765610d9e565b5b8061077d57506000809054906101000a900460ff16155b1515610817576040517f08c379a000000000000000000000000000000000000000000000000000000000815260040180806020018281038252602e8152602001807f436f6e747261637420696e7374616e63652068617320616c726561647920626581526020017f656e20696e697469616c697a656400000000000000000000000000000000000081525060400191505060405180910390fd5b60008060019054906101000a900460ff1690506001600060016101000a81548160ff02191690831515021790555060016000806101000a81548160ff02191690831515021790555082603f9080519060200190610875929190610daf565b5081603360006101000a81548173ffffffffffffffffffffffffffffffffffffffff021916908373ffffffffffffffffffffffffffffffffffffffff16021790555080600060016101000a81548160ff021916908315150217905550505050565b603e5481565b600060386000838152602001908152602001600020549050919050565b6060603460008381526020019081526020016000208054600181600116156101000203166002900480601f0160208091040260200160405190810160405280929190818152602001828054600181600116156101000203166002900480156109a25780601f10610977576101008083540402835291602001916109a2565b820191906000526020600020905b81548152906001019060200180831161098557829003601f168201915b50505050509050919050565b600060396000838152602001908152602001600020549050919050565b603360009054906101000a900473ffffffffffffffffffffffffffffffffffffffff1681565b60008060008484604051602001808383808284378083019250505092505050604051602081830303815290604052805190602001209050848460346000603e5481526020019081526020016000209190610a4c929190610e2f565b50603e54603586866040518083838082843780830192505050925050509081526020016040518091039020819055508484603660008481526020019081526020016000209190610a9d929190610e2f565b5080603786866040518083838082843780830192505050925050509081526020016040518091039020819055508060386000603e54815260200190815260200160002081905550603e546039600083815260200190815260200160002081905550603a819080600181540180825580915050906001820390600052602060002001600090919290919091505550603c858590918060018154018082558091505090600182039060005260206000200160009091929390919293909192909192509190610b6a929190610e2f565b5050603b603e549080600181540180825580915050906001820390600052602060002001600090919290919091505550803373ffffffffffffffffffffffffffffffffffffffff167fea3ce421f944fb182977d78e1d8cc56be493e2910d5672cf407f2ebce8b8a2748787603e5460405180806020018381526020018281038252858582818152602001925080828437600081840152601f19601f82011690508083019250505094505050505060405180910390a36001603e5401603e81905550509250929050565b603d6020528060005260406000206000915090505481565b603f8054600181600116156101000203166002900480601f016020809104026020016040519081016040528092919081815260200182805460018160011615610100020316600290048015610ce15780601f10610cb657610100808354040283529160200191610ce1565b820191906000526020600020905b815481529060010190602001808311610cc457829003601f168201915b505050505081565b6060603660008381526020019081526020016000208054600181600116156101000203166002900480601f016020809104026020016040519081016040528092919081815260200182805460018160011615610100020316600290048015610d925780601f10610d6757610100808354040283529160200191610d92565b820191906000526020600020905b815481529060010190602001808311610d7557829003601f168201915b50505050509050919050565b600080303b90506000811491505090565b828054600181600116156101000203166002900490600052602060002090601f016020900481019282601f10610df057805160ff1916838001178555610e1e565b82800160010185558215610e1e579182015b82811115610e1d578251825591602001919060010190610e02565b5b509050610e2b9190610eaf565b5090565b828054600181600116156101000203166002900490600052602060002090601f016020900481019282601f10610e7057803560ff1916838001178555610e9e565b82800160010185558215610e9e579182015b82811115610e9d578235825591602001919060010190610e82565b5b509050610eab9190610eaf565b5090565b610ed191905b80821115610ecd576000816000905550600101610eb5565b5090565b9056fea165627a7a72305820c945cb28f39bd64f2f7ecaf63842e16df8f7c3c961ee9aa9e4317e21ea091b1e0029",
  "source": "pragma solidity ^0.5.0;\n\nimport \"zos-lib/contracts/Initializable.sol\";\nimport \"openzeppelin-eth/contracts/token/ERC20/ERC20.sol\";\n\ncontract Storage is Initializable {\n\n    ERC20 public tokenAddress;\n    \n    //modifyer to check if Uint is valid\n    //modifyer to check if Bytes32 is valid\n    //modifyer to check if String is valid\n    \n    //Note: To make this contract general, maybe you can have an intializer which sets which are relevant.\n    \n    //Store words based on Integers\n    mapping(uint256 => string) internal wordByNumber;\n    mapping(string => uint256) internal numberForWord;\n    mapping(bytes32 => string) internal wordByBytes32;\n    mapping(string => bytes32) internal bytes32ForWord;\n    mapping(uint256 => bytes32) internal uint256ForBytes32;\n    mapping(bytes32 => uint256) internal bytes32ForWordUint256;\n    \n    //Arrays\n    bytes32[] internal arrayOfBytes32;\n    uint256[] internal arrayOfUint256;\n    string[] internal arrayOfWords;\n    \n    //Statistics\n    mapping(uint256 => uint256) public wordFrequency;\n    uint256 public totalWords;\n    string public language;\n    \n    //events for accessing words\n    //wordAdded\n    event wordAdded(\n        string _word,\n        address indexed _from,\n        uint256 _wordNumber,\n        bytes32 indexed _wordBytes32\n        );\n\n    //wordRequested\n    event wordRequested(\n        uint256 _wordNumber,\n        address indexed _from);\n        \n    function initialize(string memory _language, ERC20 _tokenAddress) initializer public {\n        language = _language;\n        tokenAddress = _tokenAddress;\n    }\n    \n    //WordSetter\n    \n    function setWord(string calldata _word) external returns(uint256, bytes32){\n        //check word first\n        \n        bytes32 _wordBytes32 = keccak256(abi.encodePacked(_word));\n        \n        wordByNumber[totalWords] = _word;\n        numberForWord[_word] = totalWords;\n        wordByBytes32[_wordBytes32] = _word;\n        bytes32ForWord[_word] = _wordBytes32;\n        uint256ForBytes32[totalWords] = _wordBytes32;\n        bytes32ForWordUint256[_wordBytes32] = totalWords;\n        \n        arrayOfBytes32.push(_wordBytes32);\n        arrayOfWords.push(_word);\n        arrayOfUint256.push(totalWords);\n        \n        \n        emit wordAdded(_word, msg.sender,totalWords,_wordBytes32);\n        totalWords = totalWords + 1;\n    }\n    \n    //Public Getters\n    \n    //getWordStringToUint256\n    function getWordStringToUint256(string calldata _word) view external returns(uint256){\n        return numberForWord[_word];\n    }\n    //getWordStringToBytes32\n    function getWordStringToBytes32(string calldata _word) view external returns(bytes32){\n        return bytes32ForWord[_word];\n    }\n    //getWordUint256ToString\n    function getWordUint256ToString(uint256 _wordNumber) view external returns(string memory){\n        return wordByNumber[_wordNumber];\n    }\n    //getWordUint256ToBytes32\n    function getWordUint256ToBytes32(uint256 _wordNumber) view external returns(bytes32){\n        return uint256ForBytes32[_wordNumber];\n    }\n    //getWordBytes32ToString\n    function getWordBytes32ToString(bytes32 _wordBytes) view external returns(string memory){\n        return wordByBytes32[_wordBytes];\n    }\n    //getWordBytes32ToUint256\n    function getWordBytes32ToUint256(bytes32 _wordBytes) view external returns(uint256){\n        return bytes32ForWordUint256[_wordBytes];\n    }\n\n}",
  "sourcePath": "/Users/dennisonzeppelin/Documents/word-dao/contracts/Storage.sol",
  "compiler": {
    "name": "solc",
    "version": "0.5.0+commit.1d4f565a.Emscripten.clang"
  },
  "schemaVersion": "3.0.1",
  "updatedAt": "2019-03-14T18:35:52.356Z",
  "devdoc": {
    "methods": {}
  },
  "userdoc": {
    "methods": {}
  }
}