{
  "contractName": "Storage",
  "abi": [
    {
      "constant": true,
      "inputs": [],
      "name": "totalWords",
      "outputs": [
        {
          "name": "",
          "type": "uint256"
        }
      ],
      "payable": false,
      "stateMutability": "view",
      "type": "function"
    },
    {
      "constant": true,
      "inputs": [
        {
          "name": "",
          "type": "uint256"
        }
      ],
      "name": "wordFrequency",
      "outputs": [
        {
          "name": "",
          "type": "uint256"
        }
      ],
      "payable": false,
      "stateMutability": "view",
      "type": "function"
    },
    {
      "constant": true,
      "inputs": [],
      "name": "language",
      "outputs": [
        {
          "name": "",
          "type": "string"
        }
      ],
      "payable": false,
      "stateMutability": "view",
      "type": "function"
    },
    {
      "anonymous": false,
      "inputs": [
        {
          "indexed": false,
          "name": "_word",
          "type": "string"
        },
        {
          "indexed": true,
          "name": "_from",
          "type": "address"
        },
        {
          "indexed": false,
          "name": "_wordNumber",
          "type": "uint256"
        },
        {
          "indexed": true,
          "name": "_wordBytes32",
          "type": "bytes32"
        }
      ],
      "name": "wordAdded",
      "type": "event"
    },
    {
      "anonymous": false,
      "inputs": [
        {
          "indexed": false,
          "name": "_wordNumber",
          "type": "uint256"
        },
        {
          "indexed": true,
          "name": "_from",
          "type": "address"
        }
      ],
      "name": "wordRequested",
      "type": "event"
    },
    {
      "constant": false,
      "inputs": [
        {
          "name": "_language",
          "type": "string"
        }
      ],
      "name": "initialize",
      "outputs": [],
      "payable": false,
      "stateMutability": "nonpayable",
      "type": "function"
    },
    {
      "constant": false,
      "inputs": [
        {
          "name": "_word",
          "type": "string"
        }
      ],
      "name": "setWord",
      "outputs": [
        {
          "name": "",
          "type": "uint256"
        },
        {
          "name": "",
          "type": "bytes32"
        }
      ],
      "payable": false,
      "stateMutability": "nonpayable",
      "type": "function"
    },
    {
      "constant": true,
      "inputs": [
        {
          "name": "_word",
          "type": "string"
        }
      ],
      "name": "getWordStringToUint256",
      "outputs": [
        {
          "name": "",
          "type": "uint256"
        }
      ],
      "payable": false,
      "stateMutability": "view",
      "type": "function"
    },
    {
      "constant": true,
      "inputs": [
        {
          "name": "_word",
          "type": "string"
        }
      ],
      "name": "getWordStringToBytes32",
      "outputs": [
        {
          "name": "",
          "type": "bytes32"
        }
      ],
      "payable": false,
      "stateMutability": "view",
      "type": "function"
    },
    {
      "constant": true,
      "inputs": [
        {
          "name": "_wordNumber",
          "type": "uint256"
        }
      ],
      "name": "getWordUint256ToString",
      "outputs": [
        {
          "name": "",
          "type": "string"
        }
      ],
      "payable": false,
      "stateMutability": "view",
      "type": "function"
    },
    {
      "constant": true,
      "inputs": [
        {
          "name": "_wordNumber",
          "type": "uint256"
        }
      ],
      "name": "getWordUint256ToBytes32",
      "outputs": [
        {
          "name": "",
          "type": "bytes32"
        }
      ],
      "payable": false,
      "stateMutability": "view",
      "type": "function"
    },
    {
      "constant": true,
      "inputs": [
        {
          "name": "_wordBytes",
          "type": "bytes32"
        }
      ],
      "name": "getWordBytes32ToString",
      "outputs": [
        {
          "name": "",
          "type": "string"
        }
      ],
      "payable": false,
      "stateMutability": "view",
      "type": "function"
    },
    {
      "constant": true,
      "inputs": [
        {
          "name": "_wordBytes",
          "type": "bytes32"
        }
      ],
      "name": "getWordBytes32ToUint256",
      "outputs": [
        {
          "name": "",
          "type": "uint256"
        }
      ],
      "payable": false,
      "stateMutability": "view",
      "type": "function"
    }
  ],
  "bytecode": "0x608060405234801561001057600080fd5b50610e16806100206000396000f3fe6080604052600436106100af576000357c0100000000000000000000000000000000000000000000000000000000900463ffffffff16806307707416146100b45780635531eef51461014e57806382f4fd5d146101e857806388953ea2146102135780638cffaeb6146102625780638f21808e14610316578063cd048de614610365578063d5fc61db14610406578063ed9978c714610455578063f62d1888146104e5578063f6a6daf2146105ad575b600080fd5b3480156100c057600080fd5b50610138600480360360208110156100d757600080fd5b81019080803590602001906401000000008111156100f457600080fd5b82018360208201111561010657600080fd5b8035906020019184600183028401116401000000008311171561012857600080fd5b9091929391929390505050610661565b6040518082815260200191505060405180910390f35b34801561015a57600080fd5b506101d26004803603602081101561017157600080fd5b810190808035906020019064010000000081111561018e57600080fd5b8201836020820111156101a057600080fd5b803590602001918460018302840111640100000000831117156101c257600080fd5b9091929391929390505050610693565b6040518082815260200191505060405180910390f35b3480156101f457600080fd5b506101fd6106c5565b6040518082815260200191505060405180910390f35b34801561021f57600080fd5b5061024c6004803603602081101561023657600080fd5b81019080803590602001909291905050506106cb565b6040518082815260200191505060405180910390f35b34801561026e57600080fd5b5061029b6004803603602081101561028557600080fd5b81019080803590602001909291905050506106e8565b6040518080602001828103825283818151815260200191508051906020019080838360005b838110156102db5780820151818401526020810190506102c0565b50505050905090810190601f1680156103085780820380516001836020036101000a031916815260200191505b509250505060405180910390f35b34801561032257600080fd5b5061034f6004803603602081101561033957600080fd5b810190808035906020019092919050505061079d565b6040518082815260200191505060405180910390f35b34801561037157600080fd5b506103e96004803603602081101561038857600080fd5b81019080803590602001906401000000008111156103a557600080fd5b8201836020820111156103b757600080fd5b803590602001918460018302840111640100000000831117156103d957600080fd5b90919293919293905050506107ba565b604051808381526020018281526020019250505060405180910390f35b34801561041257600080fd5b5061043f6004803603602081101561042957600080fd5b81019080803590602001909291905050506109fc565b6040518082815260200191505060405180910390f35b34801561046157600080fd5b5061046a610a14565b6040518080602001828103825283818151815260200191508051906020019080838360005b838110156104aa57808201518184015260208101905061048f565b50505050905090810190601f1680156104d75780820380516001836020036101000a031916815260200191505b509250505060405180910390f35b3480156104f157600080fd5b506105ab6004803603602081101561050857600080fd5b810190808035906020019064010000000081111561052557600080fd5b82018360208201111561053757600080fd5b8035906020019184600183028401116401000000008311171561055957600080fd5b91908080601f016020809104026020016040519081016040528093929190818152602001838380828437600081840152601f19601f820116905080830192505050505050509192919290505050610ab2565b005b3480156105b957600080fd5b506105e6600480360360208110156105d057600080fd5b8101908080359060200190929190505050610bff565b6040518080602001828103825283818151815260200191508051906020019080838360005b8381101561062657808201518184015260208101905061060b565b50505050905090810190601f1680156106535780820380516001836020036101000a031916815260200191505b509250505060405180910390f35b600060348383604051808383808284378083019250505092505050908152602001604051809103902054905092915050565b600060368383604051808383808284378083019250505092505050908152602001604051809103902054905092915050565b603d5481565b600060376000838152602001908152602001600020549050919050565b6060603360008381526020019081526020016000208054600181600116156101000203166002900480601f0160208091040260200160405190810160405280929190818152602001828054600181600116156101000203166002900480156107915780601f1061076657610100808354040283529160200191610791565b820191906000526020600020905b81548152906001019060200180831161077457829003601f168201915b50505050509050919050565b600060386000838152602001908152602001600020549050919050565b60008060008484604051602001808383808284378083019250505092505050604051602081830303815290604052805190602001209050848460336000603d5481526020019081526020016000209190610815929190610cc5565b50603d54603486866040518083838082843780830192505050925050509081526020016040518091039020819055508484603560008481526020019081526020016000209190610866929190610cc5565b5080603686866040518083838082843780830192505050925050509081526020016040518091039020819055508060376000603d54815260200190815260200160002081905550603d5460386000838152602001908152602001600020819055506039819080600181540180825580915050906001820390600052602060002001600090919290919091505550603b858590918060018154018082558091505090600182039060005260206000200160009091929390919293909192909192509190610933929190610cc5565b5050603a603d549080600181540180825580915050906001820390600052602060002001600090919290919091505550803373ffffffffffffffffffffffffffffffffffffffff167fea3ce421f944fb182977d78e1d8cc56be493e2910d5672cf407f2ebce8b8a2748787603d5460405180806020018381526020018281038252858582818152602001925080828437600081840152601f19601f82011690508083019250505094505050505060405180910390a36001603d5401603d81905550509250929050565b603c6020528060005260406000206000915090505481565b603e8054600181600116156101000203166002900480601f016020809104026020016040519081016040528092919081815260200182805460018160011615610100020316600290048015610aaa5780601f10610a7f57610100808354040283529160200191610aaa565b820191906000526020600020905b815481529060010190602001808311610a8d57829003601f168201915b505050505081565b600060019054906101000a900460ff1680610ad15750610ad0610cb4565b5b80610ae857506000809054906101000a900460ff16155b1515610b82576040517f08c379a000000000000000000000000000000000000000000000000000000000815260040180806020018281038252602e8152602001807f436f6e747261637420696e7374616e63652068617320616c726561647920626581526020017f656e20696e697469616c697a656400000000000000000000000000000000000081525060400191505060405180910390fd5b60008060019054906101000a900460ff1690506001600060016101000a81548160ff02191690831515021790555060016000806101000a81548160ff02191690831515021790555081603e9080519060200190610be0929190610d45565b5080600060016101000a81548160ff0219169083151502179055505050565b6060603560008381526020019081526020016000208054600181600116156101000203166002900480601f016020809104026020016040519081016040528092919081815260200182805460018160011615610100020316600290048015610ca85780601f10610c7d57610100808354040283529160200191610ca8565b820191906000526020600020905b815481529060010190602001808311610c8b57829003601f168201915b50505050509050919050565b600080303b90506000811491505090565b828054600181600116156101000203166002900490600052602060002090601f016020900481019282601f10610d0657803560ff1916838001178555610d34565b82800160010185558215610d34579182015b82811115610d33578235825591602001919060010190610d18565b5b509050610d419190610dc5565b5090565b828054600181600116156101000203166002900490600052602060002090601f016020900481019282601f10610d8657805160ff1916838001178555610db4565b82800160010185558215610db4579182015b82811115610db3578251825591602001919060010190610d98565b5b509050610dc19190610dc5565b5090565b610de791905b80821115610de3576000816000905550600101610dcb565b5090565b9056fea165627a7a723058203c0b69515c637c2ad44de4b488cc269552a97882e827f9f10695038359175bdb0029",
  "source": "pragma solidity ^0.5.0;\n\nimport \"zos-lib/contracts/Initializable.sol\";\n\ncontract Storage is Initializable {\n    \n    //modifyer to check if Uint is valid\n    //modifyer to check if Bytes32 is valid\n    //modifyer to check if String is valid\n    \n    //Note: To make this contract general, maybe you can have an intializer which sets which are relevant.\n    \n    //Store words based on Integers\n    mapping(uint256 => string) internal wordByNumber;\n    mapping(string => uint256) internal numberForWord;\n    mapping(bytes32 => string) internal wordByBytes32;\n    mapping(string => bytes32) internal bytes32ForWord;\n    mapping(uint256 => bytes32) internal uint256ForBytes32;\n    mapping(bytes32 => uint256) internal bytes32ForWordUint256;\n    \n    //Arrays\n    bytes32[] internal arrayOfBytes32;\n    uint256[] internal arrayOfUint256;\n    string[] internal arrayOfWords;\n    \n    //Statistics\n    mapping(uint256 => uint256) public wordFrequency;\n    uint256 public totalWords;\n    string public language;\n    \n    //events for accessing words\n    //wordAdded\n    event wordAdded(\n        string _word,\n        address indexed _from,\n        uint256 _wordNumber,\n        bytes32 indexed _wordBytes32\n        );\n\n    //wordRequested\n    event wordRequested(\n        uint256 _wordNumber,\n        address indexed _from);\n        \n    function initialize(string memory _language) initializer public {\n        language = _language;\n    }\n    \n    //WordSetter\n    \n    function setWord(string calldata _word) external returns(uint256, bytes32){\n        //check word first\n        \n        bytes32 _wordBytes32 = keccak256(abi.encodePacked(_word));\n        \n        wordByNumber[totalWords] = _word;\n        numberForWord[_word] = totalWords;\n        wordByBytes32[_wordBytes32] = _word;\n        bytes32ForWord[_word] = _wordBytes32;\n        uint256ForBytes32[totalWords] = _wordBytes32;\n        bytes32ForWordUint256[_wordBytes32] = totalWords;\n        \n        arrayOfBytes32.push(_wordBytes32);\n        arrayOfWords.push(_word);\n        arrayOfUint256.push(totalWords);\n        \n        \n        emit wordAdded(_word, msg.sender,totalWords,_wordBytes32);\n        totalWords = totalWords + 1;\n    }\n    \n    //Public Getters\n    \n    //getWordStringToUint256\n    function getWordStringToUint256(string calldata _word) view external returns(uint256){\n        return numberForWord[_word];\n    }\n    //getWordStringToBytes32\n    function getWordStringToBytes32(string calldata _word) view external returns(bytes32){\n        return bytes32ForWord[_word];\n    }\n    //getWordUint256ToString\n    function getWordUint256ToString(uint256 _wordNumber) view external returns(string memory){\n        return wordByNumber[_wordNumber];\n    }\n    //getWordUint256ToBytes32\n    function getWordUint256ToBytes32(uint256 _wordNumber) view external returns(bytes32){\n        return uint256ForBytes32[_wordNumber];\n    }\n    //getWordBytes32ToString\n    function getWordBytes32ToString(bytes32 _wordBytes) view external returns(string memory){\n        return wordByBytes32[_wordBytes];\n    }\n    //getWordBytes32ToUint256\n    function getWordBytes32ToUint256(bytes32 _wordBytes) view external returns(uint256){\n        return bytes32ForWordUint256[_wordBytes];\n    }\n\n}",
  "sourcePath": "/Users/dennisonzeppelin/Documents/word-dao/contracts/Storage.sol",
  "compiler": {
    "name": "solc",
    "version": "0.5.0+commit.1d4f565a.Emscripten.clang"
  },
  "schemaVersion": "3.0.1",
  "updatedAt": "2019-03-14T14:16:53.071Z",
  "devdoc": {
    "methods": {}
  },
  "userdoc": {
    "methods": {}
  }
}