{
  "fileName": "WordDao.sol",
  "contractName": "WordDao",
  "source": "pragma solidity ^0.5.0;\n\nimport \"zos-lib/contracts/Initializable.sol\";\nimport \"openzeppelin-solidity/contracts/token/ERC20/ERC20Mintable.sol\";\nimport \"openzeppelin-solidity/contracts/token/ERC721/ERC721MetadataMintable.sol\";\nimport \"./WordStorage.sol\";\n\n\n\n//import \"validate Word\";\n//import \"solidity crud\";\n//import \"dao\";\n//import \"withdrawDividents\";\n//import \"external contract access\";\n\ncontract WordDao is Initializable {\n\n    \n// erc721 nft\n// validateWord validWord\n// soliditycrud crud\n// DAO dao\n// WithdrawDividends\n// externalcontract ExternalContract\n\n    ERC20Mintable public erc20Token;\n    ERC721MetadataMintable public erc721Token;\n    WordStorage public wordStore;\n\n    event ERC20TokenAttached(address ERC20Token);\n    event ERC721TokenAttached(address ERC721Token);\n    event WordStoreAttached(address WordStore);\n\n    function initialize (ERC20Mintable _erc20Token, ERC721MetadataMintable _erc721Token, WordStorage _wordStore) public initializer {\n        erc20Token = _erc20Token;\n        erc721Token = _erc721Token;\n        wordStore = _wordStore;\n        \n\n        emit ERC20TokenAttached(address(erc20Token));\n        emit ERC721TokenAttached(address(erc721Token));\n        emit WordStoreAttached(address(wordStore));\n    }\n\n\n}",
  "sourcePath": "contracts/WordDao.sol",
  "abi": [
    {
      "constant": true,
      "inputs": [],
      "name": "erc721Token",
      "outputs": [
        {
          "name": "",
          "type": "address"
        }
      ],
      "payable": false,
      "stateMutability": "view",
      "type": "function"
    },
    {
      "constant": true,
      "inputs": [],
      "name": "erc20Token",
      "outputs": [
        {
          "name": "",
          "type": "address"
        }
      ],
      "payable": false,
      "stateMutability": "view",
      "type": "function"
    },
    {
      "constant": false,
      "inputs": [
        {
          "name": "_erc20Token",
          "type": "address"
        },
        {
          "name": "_erc721Token",
          "type": "address"
        },
        {
          "name": "_wordStore",
          "type": "address"
        }
      ],
      "name": "initialize",
      "outputs": [],
      "payable": false,
      "stateMutability": "nonpayable",
      "type": "function"
    },
    {
      "constant": true,
      "inputs": [],
      "name": "wordStore",
      "outputs": [
        {
          "name": "",
          "type": "address"
        }
      ],
      "payable": false,
      "stateMutability": "view",
      "type": "function"
    },
    {
      "anonymous": false,
      "inputs": [
        {
          "indexed": false,
          "name": "ERC20Token",
          "type": "address"
        }
      ],
      "name": "ERC20TokenAttached",
      "type": "event"
    },
    {
      "anonymous": false,
      "inputs": [
        {
          "indexed": false,
          "name": "ERC721Token",
          "type": "address"
        }
      ],
      "name": "ERC721TokenAttached",
      "type": "event"
    },
    {
      "anonymous": false,
      "inputs": [
        {
          "indexed": false,
          "name": "WordStore",
          "type": "address"
        }
      ],
      "name": "WordStoreAttached",
      "type": "event"
    }
  ],
  "bytecode": "0x60806040523480156100115760006000fd5b50610017565b610609806100266000396000f3fe60806040523480156100115760006000fd5b50600436106100515760003560e01c80635f2d6bcd146100575780638a13eea7146100a1578063c0c53b8b146100eb578063decad0d41461017057610051565b60006000fd5b61005f6101ba565b604051808273ffffffffffffffffffffffffffffffffffffffff1673ffffffffffffffffffffffffffffffffffffffff16815260200191505060405180910390f35b6100a96101e0565b604051808273ffffffffffffffffffffffffffffffffffffffff1673ffffffffffffffffffffffffffffffffffffffff16815260200191505060405180910390f35b61016e600480360360608110156101025760006000fd5b81019080803573ffffffffffffffffffffffffffffffffffffffff169060200190929190803573ffffffffffffffffffffffffffffffffffffffff169060200190929190803573ffffffffffffffffffffffffffffffffffffffff169060200190929190505050610206565b005b610178610568565b604051808273ffffffffffffffffffffffffffffffffffffffff1673ffffffffffffffffffffffffffffffffffffffff16815260200191505060405180910390f35b603460009054906101000a900473ffffffffffffffffffffffffffffffffffffffff1681565b603360009054906101000a900473ffffffffffffffffffffffffffffffffffffffff1681565b600060019054906101000a900460ff168061022b575061022a61058e63ffffffff16565b5b806102435750600060009054906101000a900460ff16155b151561029a576040517f08c379a000000000000000000000000000000000000000000000000000000000815260040180806020018281038252602e8152602001806105a7602e913960400191505060405180910390fd5b6000600060019054906101000a900460ff1615905080156102ec576001600060016101000a81548160ff0219169083151502179055506001600060006101000a81548160ff0219169083151502179055505b83603360006101000a81548173ffffffffffffffffffffffffffffffffffffffff021916908373ffffffffffffffffffffffffffffffffffffffff16021790555082603460006101000a81548173ffffffffffffffffffffffffffffffffffffffff021916908373ffffffffffffffffffffffffffffffffffffffff16021790555081603560006101000a81548173ffffffffffffffffffffffffffffffffffffffff021916908373ffffffffffffffffffffffffffffffffffffffff1602179055507fe0c1b11029647c92604a058131e61b8d353ea3c2a8de878012b10be3bbd97ec8603360009054906101000a900473ffffffffffffffffffffffffffffffffffffffff16604051808273ffffffffffffffffffffffffffffffffffffffff1673ffffffffffffffffffffffffffffffffffffffff16815260200191505060405180910390a17f7b3894cbc6ef20b3eb3f6f5cc0730028abd27976e3fe274a188a1d8a9b4fba0a603460009054906101000a900473ffffffffffffffffffffffffffffffffffffffff16604051808273ffffffffffffffffffffffffffffffffffffffff1673ffffffffffffffffffffffffffffffffffffffff16815260200191505060405180910390a17f3f419f0985f637a6004409c51b22b2ea7da6436ab08a51db5a698d44f48e1e82603560009054906101000a900473ffffffffffffffffffffffffffffffffffffffff16604051808273ffffffffffffffffffffffffffffffffffffffff1673ffffffffffffffffffffffffffffffffffffffff16815260200191505060405180910390a15b8015610561576000600060016101000a81548160ff0219169083151502179055505b505b505050565b603560009054906101000a900473ffffffffffffffffffffffffffffffffffffffff1681565b60006000303b9050600081149150506105a356505b9056fe436f6e747261637420696e7374616e63652068617320616c7265616479206265656e20696e697469616c697a6564a265627a7a72305820fca4d2626a4459fc54b097daec1ef5ba18880114e9a5fc8a2d0f2817248f017f64736f6c634300050a0032",
  "compiler": {
    "name": "solc",
    "version": "0.5.10+commit.5a6ea5b1.Emscripten.clang",
    "optimizer": {},
    "evmVersion": "constantinople"
  }
}