{
  "contractName": "WordDao",
  "abi": [
    {
      "constant": false,
      "inputs": [],
      "name": "initizalize",
      "outputs": [],
      "payable": false,
      "stateMutability": "nonpayable",
      "type": "function"
    },
    {
      "constant": false,
      "inputs": [
        {
          "name": "word",
          "type": "string"
        }
      ],
      "name": "setWord",
      "outputs": [],
      "payable": true,
      "stateMutability": "payable",
      "type": "function"
    },
    {
      "constant": true,
      "inputs": [
        {
          "name": "word",
          "type": "string"
        }
      ],
      "name": "getWordNumber",
      "outputs": [
        {
          "name": "",
          "type": "uint256"
        }
      ],
      "payable": false,
      "stateMutability": "view",
      "type": "function"
    },
    {
      "constant": true,
      "inputs": [
        {
          "name": "wordNumber",
          "type": "uint256"
        }
      ],
      "name": "getNumberWord",
      "outputs": [
        {
          "name": "",
          "type": "string"
        }
      ],
      "payable": false,
      "stateMutability": "view",
      "type": "function"
    },
    {
      "constant": true,
      "inputs": [],
      "name": "getTotalWords",
      "outputs": [
        {
          "name": "",
          "type": "uint256"
        }
      ],
      "payable": false,
      "stateMutability": "view",
      "type": "function"
    },
    {
      "constant": true,
      "inputs": [],
      "name": "getBalance",
      "outputs": [
        {
          "name": "",
          "type": "uint256"
        }
      ],
      "payable": false,
      "stateMutability": "view",
      "type": "function"
    }
  ],
  "bytecode": "0x608060405234801561001057600080fd5b50610a58806100206000396000f300608060405260043610610078576000357c0100000000000000000000000000000000000000000000000000000000900463ffffffff16806312065fe01461007d5780633e66093b146100a85780636bede72a14610125578063ad01ebf91461013c578063c93194fe146101e2578063cd048de61461020d575b600080fd5b34801561008957600080fd5b50610092610269565b6040518082815260200191505060405180910390f35b3480156100b457600080fd5b5061010f600480360381019080803590602001908201803590602001908080601f0160208091040260200160405190810160405280939291908181526020018383808284378201915050505050509192919290505050610288565b6040518082815260200191505060405180910390f35b34801561013157600080fd5b5061013a610302565b005b34801561014857600080fd5b506101676004803603810190808035906020019092919050505061043f565b6040518080602001828103825283818151815260200191508051906020019080838360005b838110156101a757808201518184015260208101905061018c565b50505050905090810190601f1680156101d45780820380516001836020036101000a031916815260200191505b509250505060405180910390f35b3480156101ee57600080fd5b506101f76104f4565b6040518082815260200191505060405180910390f35b610267600480360381019080803590602001908201803590602001908080601f01602080910402602001604051908101604052809392919081815260200183838082843782019150505050505091929192905050506104fe565b005b60003073ffffffffffffffffffffffffffffffffffffffff1631905090565b6000806034836040518082805190602001908083835b6020831015156102c3578051825260208201915060208101905060208303925061029e565b6001836020036101000a038019825116818451168082178552505050505050905001915050908152602001604051809103902054905080915050919050565b60008060019054906101000a900460ff16806103225750610321610644565b5b8061033957506000809054906101000a900460ff16155b15156103d3576040517f08c379a000000000000000000000000000000000000000000000000000000000815260040180806020018281038252602e8152602001807f436f6e747261637420696e7374616e63652068617320616c726561647920626581526020017f656e20696e697469616c697a656400000000000000000000000000000000000081525060400191505060405180910390fd5b600060019054906101000a900460ff1690506001600060016101000a81548160ff02191690831515021790555060016000806101000a81548160ff021916908315150217905550600060358190555080600060016101000a81548160ff02191690831515021790555050565b6060603360008381526020019081526020016000208054600181600116156101000203166002900480601f0160208091040260200160405190810160405280929190818152602001828054600181600116156101000203166002900480156104e85780601f106104bd576101008083540402835291602001916104e8565b820191906000526020600020905b8154815290600101906020018083116104cb57829003601f168201915b50505050509050919050565b6000603554905090565b670de0b6b3a76400003414151561051457600080fd5b61051d81610655565b905060006034826040518082805190602001908083835b6020831015156105595780518252602082019150602081019050602083039250610534565b6001836020036101000a03801982511681845116808217855250505050505090500191505090815260200160405180910390205414151561059957600080fd5b6001603554016035819055508060336000603554815260200190815260200160002090805190602001906105ce929190610987565b506035546034826040518082805190602001908083835b60208310151561060a57805182526020820191506020810190506020830392506105e5565b6001836020036101000a03801982511681845116808217855250505050505090500191505090815260200160405180910390208190555050565b600080303b90506000811491505090565b6060806060600084925082516040519080825280601f01601f1916602001820160405280156106935781602001602082028038833980820191505090505b509150600090505b825181101561097c5760417f01000000000000000000000000000000000000000000000000000000000000000283828151811015156106d657fe5b9060200101517f010000000000000000000000000000000000000000000000000000000000000090047f0100000000000000000000000000000000000000000000000000000000000000027effffffffffffffffffffffffffffffffffffffffffffffffffffffffffffff1916101580156107ee5750605a7f010000000000000000000000000000000000000000000000000000000000000002838281518110151561077e57fe5b9060200101517f010000000000000000000000000000000000000000000000000000000000000090047f0100000000000000000000000000000000000000000000000000000000000000027effffffffffffffffffffffffffffffffffffffffffffffffffffffffffffff191611155b156108d7576020838281518110151561080357fe5b9060200101517f010000000000000000000000000000000000000000000000000000000000000090047f0100000000000000000000000000000000000000000000000000000000000000027f01000000000000000000000000000000000000000000000000000000000000009004017f01000000000000000000000000000000000000000000000000000000000000000282828151811015156108a257fe5b9060200101907effffffffffffffffffffffffffffffffffffffffffffffffffffffffffffff1916908160001a90535061096f565b82818151811015156108e557fe5b9060200101517f010000000000000000000000000000000000000000000000000000000000000090047f010000000000000000000000000000000000000000000000000000000000000002828281518110151561093e57fe5b9060200101907effffffffffffffffffffffffffffffffffffffffffffffffffffffffffffff1916908160001a9053505b808060010191505061069b565b819350505050919050565b828054600181600116156101000203166002900490600052602060002090601f016020900481019282601f106109c857805160ff19168380011785556109f6565b828001600101855582156109f6579182015b828111156109f55782518255916020019190600101906109da565b5b509050610a039190610a07565b5090565b610a2991905b80821115610a25576000816000905550600101610a0d565b5090565b905600a165627a7a72305820707d9b2bec1e2b33f77058886c38b9b7122dfd502bd26d9e26f17b75ce623fb70029",
  "source": "pragma solidity 0.4.24;\n\nimport \"zos-lib/contracts/Initializable.sol\";\n\ncontract WordDao is Initializable{\n    \n    mapping (uint256 => string) internal _numberByWords;\n    mapping (string => uint256) internal _wordByNumber;\n    uint internal _totalWords;\n\n    function initizalize() initializer public {\n        _totalWords = 0;\n    }\n\n    function setWord(string memory word) public payable{\n    require(msg.value == 1 ether);\n    \n        word = _toLower(word);\n        require(_wordByNumber[word] == 0);\n        \n        _totalWords = _totalWords + 1;\n        _numberByWords[_totalWords] = word;\n        _wordByNumber[word] = _totalWords;\n    }\n    \n    function getWordNumber(string memory word) public view returns(uint256){\n        uint256 returnword= _wordByNumber[word];\n        return returnword;\n    }\n    \n    function getNumberWord(uint wordNumber) public view returns (string memory){\n        return _numberByWords[wordNumber];\n    }\n    \n    function getTotalWords() public view returns(uint256){\n        return _totalWords;\n    }\n    \n    function getBalance() public view returns(uint256){\n        return address(this).balance;\n    }\n    \n    function _toLower(string memory str) internal returns (string memory) {\n        bytes memory bStr = bytes(str);\n        bytes memory bLower = new bytes(bStr.length);\n        for (uint i = 0; i < bStr.length; i++) {\n            // Uppercase character...\n            if ((bStr[i] >= 65) && (bStr[i] <= 90)) {\n                // So we add 32 to make it lowercase\n                bLower[i] = bytes1(int(bStr[i]) + 32);\n            } else {\n                bLower[i] = bStr[i];\n            }\n        }\n        return string(bLower);\n    }\n}\n",
  "sourcePath": "/Users/dennisonzeppelin/Documents/word-dao/contracts/WordDao.sol",
  "compiler": {
    "name": "solc",
    "version": "0.4.24+commit.e67f0147.Emscripten.clang"
  },
  "schemaVersion": "3.0.1",
  "updatedAt": "2019-01-31T11:40:53.876Z",
  "devdoc": {
    "methods": {}
  },
  "userdoc": {
    "methods": {}
  }
}