{"fileName":"WordStorage.sol","contractName":"WordStorage","source":"pragma solidity ^0.5.0;\n\nimport \"zos-lib/contracts/Initializable.sol\";\n\ncontract WordStorage is Initializable {\n\n    mapping(uint256 => uint256) public wordFrequency;\n    uint256 public totalWords;\n    string public language;\n\n    address[] public signAuthority;\n    mapping(address => bool) public hasAuthorityToSign;\n\n    uint256 public fee;\n    \n    //modifyer to check if Uint is valid\n    //modifyer to check if Bytes32 is valid\n    //modifyer to check if String is valid\n    \n    //Note: To make this contract general, maybe you can have an intializer which sets which are relevant.\n    //To limit the calls to only the manager contract a modifyer should be created to limit all paid calls.\n    \n    //Store words based on Integers\n    mapping(uint256 => string) internal wordByNumber;\n    mapping(string => uint256) internal numberForWord;\n    mapping(bytes32 => string) internal wordByBytes32;\n    mapping(string => bytes32) internal bytes32ForWord;\n    mapping(uint256 => bytes32) internal uint256ForBytes32;\n    mapping(bytes32 => uint256) internal bytes32ForWordUint256;\n    \n    //Arrays\n    bytes32[] internal arrayOfBytes32;\n    uint256[] internal arrayOfUint256;\n    string[] internal arrayOfWords;\n\n    \n    //events for accessing words\n    //wordAdded\n    event wordAdded(\n        string _word,\n        address indexed _from,\n        uint256 _wordNumber,\n        bytes32 indexed _wordBytes32\n        );\n\n    //wordRequested\n    event wordRequested(\n        uint256 _wordNumber,\n        address indexed _from);\n\n    //Storage Created\n    event storageCreated(\n        string _language,\n        address _storageAddress\n    );\n\n    function initialize(string memory _language) initializer public returns(address){\n        language = _language;\n        emit storageCreated(language, address(this));\n    }\n    \n    //WordSetter\n    \n    function setWord(string calldata _word) external returns(bool){\n        //check word first\n        bytes32 _wordBytes32 = keccak256(abi.encodePacked(_word));\n        wordByNumber[totalWords] = _word;\n        numberForWord[_word] = totalWords;\n        wordByBytes32[_wordBytes32] = _word;\n        bytes32ForWord[_word] = _wordBytes32;\n        uint256ForBytes32[totalWords] = _wordBytes32;\n        bytes32ForWordUint256[_wordBytes32] = totalWords;\n\n        arrayOfBytes32.push(_wordBytes32);\n        arrayOfWords.push(_word);\n        arrayOfUint256.push(totalWords);\n        \n        emit wordAdded(_word, msg.sender,totalWords,_wordBytes32);\n        totalWords = totalWords + 1;\n        return true;\n    }\n\n    //Public Getters\n    \n    //getWordStringToUint256\n    function getWordStringToUint256(string calldata _word) external payable returns(uint256){\n        return numberForWord[_word];\n    }\n    //getWordStringToBytes32\n    function getWordStringToBytes32(string calldata _word) external payable returns(bytes32){\n        return bytes32ForWord[_word];\n    }\n    //getWordUint256ToString\n    function getWordUint256ToString(uint256 _wordNumber) external payable returns(string memory){\n        return wordByNumber[_wordNumber];\n    }\n    //getWordUint256ToBytes32\n    function getWordUint256ToBytes32(uint256 _wordNumber) external payable returns(bytes32){\n        return uint256ForBytes32[_wordNumber];\n    }\n    //getWordBytes32ToString\n    function getWordBytes32ToString(bytes32 _wordBytes) external payable returns(string memory){\n        return wordByBytes32[_wordBytes];\n    }\n    //getWordBytes32ToUint256\n    function getWordBytes32ToUint256(bytes32 _wordBytes) external payable returns(uint256){\n        return bytes32ForWordUint256[_wordBytes];\n    }\n\n    //Utils\n\n    function isContract(address _addr) private view returns (bool status){\n        uint32 size;\n        assembly {\n            size := extcodesize(_addr)\n        }\n        return (size > 0);\n    }\n\n}","sourcePath":"contracts/WordStorage.sol","abi":[{"constant":false,"inputs":[{"name":"_word","type":"string"}],"name":"getWordStringToUint256","outputs":[{"name":"","type":"uint256"}],"payable":true,"stateMutability":"payable","type":"function"},{"constant":false,"inputs":[{"name":"_word","type":"string"}],"name":"getWordStringToBytes32","outputs":[{"name":"","type":"bytes32"}],"payable":true,"stateMutability":"payable","type":"function"},{"constant":true,"inputs":[{"name":"","type":"address"}],"name":"hasAuthorityToSign","outputs":[{"name":"","type":"bool"}],"payable":false,"stateMutability":"view","type":"function"},{"constant":true,"inputs":[{"name":"","type":"uint256"}],"name":"signAuthority","outputs":[{"name":"","type":"address"}],"payable":false,"stateMutability":"view","type":"function"},{"constant":true,"inputs":[],"name":"totalWords","outputs":[{"name":"","type":"uint256"}],"payable":false,"stateMutability":"view","type":"function"},{"constant":false,"inputs":[{"name":"_wordNumber","type":"uint256"}],"name":"getWordUint256ToBytes32","outputs":[{"name":"","type":"bytes32"}],"payable":true,"stateMutability":"payable","type":"function"},{"constant":false,"inputs":[{"name":"_wordNumber","type":"uint256"}],"name":"getWordUint256ToString","outputs":[{"name":"","type":"string"}],"payable":true,"stateMutability":"payable","type":"function"},{"constant":false,"inputs":[{"name":"_wordBytes","type":"bytes32"}],"name":"getWordBytes32ToUint256","outputs":[{"name":"","type":"uint256"}],"payable":true,"stateMutability":"payable","type":"function"},{"constant":false,"inputs":[{"name":"_word","type":"string"}],"name":"setWord","outputs":[{"name":"","type":"bool"}],"payable":false,"stateMutability":"nonpayable","type":"function"},{"constant":true,"inputs":[{"name":"","type":"uint256"}],"name":"wordFrequency","outputs":[{"name":"","type":"uint256"}],"payable":false,"stateMutability":"view","type":"function"},{"constant":true,"inputs":[],"name":"fee","outputs":[{"name":"","type":"uint256"}],"payable":false,"stateMutability":"view","type":"function"},{"constant":true,"inputs":[],"name":"language","outputs":[{"name":"","type":"string"}],"payable":false,"stateMutability":"view","type":"function"},{"constant":false,"inputs":[{"name":"_language","type":"string"}],"name":"initialize","outputs":[{"name":"","type":"address"}],"payable":false,"stateMutability":"nonpayable","type":"function"},{"constant":false,"inputs":[{"name":"_wordBytes","type":"bytes32"}],"name":"getWordBytes32ToString","outputs":[{"name":"","type":"string"}],"payable":true,"stateMutability":"payable","type":"function"},{"anonymous":false,"inputs":[{"indexed":false,"name":"_word","type":"string"},{"indexed":true,"name":"_from","type":"address"},{"indexed":false,"name":"_wordNumber","type":"uint256"},{"indexed":true,"name":"_wordBytes32","type":"bytes32"}],"name":"wordAdded","type":"event"},{"anonymous":false,"inputs":[{"indexed":false,"name":"_wordNumber","type":"uint256"},{"indexed":true,"name":"_from","type":"address"}],"name":"wordRequested","type":"event"},{"anonymous":false,"inputs":[{"indexed":false,"name":"_language","type":"string"},{"indexed":false,"name":"_storageAddress","type":"address"}],"name":"storageCreated","type":"event"}],"bytecode":"0x60806040523480156100115760006000fd5b50610017565b6111f8806100266000396000f3fe6080604052600436106100e15760003560e01c80638f21808e1161007f578063ddca3f4311610059578063ddca3f431461055a578063ed9978c714610586578063f62d188814610618578063f6a6daf214610729576100e1565b80638f21808e1461041d578063cd048de614610464578063d5fc61db14610509576100e1565b80637b06bcae116100bb5780637b06bcae1461028057806382f4fd5d146102fd57806388953ea2146103295780638cffaeb614610374576100e1565b806307707416146100e75780635531eef51461017a5780635a2efcf714610215576100e1565b60006000fd5b610164600480360360208110156100fe5760006000fd5b810190808035906020019064010000000081111561011c5760006000fd5b82018360208201111561012f5760006000fd5b803590602001918460018302840111640100000000831117156101525760006000fd5b909192939090919293905050506107d6565b6040518082815260200191505060405180910390f35b6101f7600480360360208110156101915760006000fd5b81019080803590602001906401000000008111156101af5760006000fd5b8201836020820111156101c25760006000fd5b803590602001918460018302840111640100000000831117156101e55760006000fd5b90919293909091929390505050610813565b60405180826000191660001916815260200191505060405180910390f35b3480156102225760006000fd5b506102666004803603602081101561023a5760006000fd5b81019080803573ffffffffffffffffffffffffffffffffffffffff169060200190929190505050610850565b604051808215151515815260200191505060405180910390f35b34801561028d5760006000fd5b506102bb600480360360208110156102a55760006000fd5b8101908080359060200190929190505050610875565b604051808273ffffffffffffffffffffffffffffffffffffffff1673ffffffffffffffffffffffffffffffffffffffff16815260200191505060405180910390f35b34801561030a5760006000fd5b506103136108ba565b6040518082815260200191505060405180910390f35b610356600480360360208110156103405760006000fd5b81019080803590602001909291905050506108c3565b60405180826000191660001916815260200191505060405180910390f35b6103a16004803603602081101561038b5760006000fd5b81019080803590602001909291905050506108eb565b6040518080602001828103825283818151815260200191508051906020019080838360005b838110156103e25780820151818401525b6020810190506103c6565b50505050905090810190601f16801561040f5780820380516001836020036101000a031916815260200191505b509250505060405180910390f35b61044e600480360360208110156104345760006000fd5b8101908080356000191690602001909291905050506109ab565b6040518082815260200191505060405180910390f35b3480156104715760006000fd5b506104ef600480360360208110156104895760006000fd5b81019080803590602001906401000000008111156104a75760006000fd5b8201836020820111156104ba5760006000fd5b803590602001918460018302840111640100000000831117156104dd5760006000fd5b909192939090919293905050506109db565b604051808215151515815260200191505060405180910390f35b3480156105165760006000fd5b506105446004803603602081101561052e5760006000fd5b8101908080359060200190929190505050610c9e565b6040518082815260200191505060405180910390f35b3480156105675760006000fd5b50610570610cb9565b6040518082815260200191505060405180910390f35b3480156105935760006000fd5b5061059c610cc2565b6040518080602001828103825283818151815260200191508051906020019080838360005b838110156105dd5780820151818401525b6020810190506105c1565b50505050905090810190601f16801561060a5780820380516001836020036101000a031916815260200191505b509250505060405180910390f35b3480156106255760006000fd5b506106e76004803603602081101561063d5760006000fd5b810190808035906020019064010000000081111561065b5760006000fd5b82018360208201111561066e5760006000fd5b803590602001918460018302840111640100000000831117156106915760006000fd5b91908080601f016020809104026020016040519081016040528093929190818152602001838380828437600081840152601f19601f82011690508083019250505050505050909091929090919290505050610d63565b604051808273ffffffffffffffffffffffffffffffffffffffff1673ffffffffffffffffffffffffffffffffffffffff16815260200191505060405180910390f35b61075a600480360360208110156107405760006000fd5b810190808035600019169060200190929190505050610f80565b6040518080602001828103825283818151815260200191508051906020019080838360005b8381101561079b5780820151818401525b60208101905061077f565b50505050905090810190601f1680156107c85780820380516001836020036101000a031916815260200191505b509250505060405180910390f35b6000603a6000508383604051808383808284378083019250505092505050908152602001604051809103902060005054905061080d565b92915050565b6000603c6000508383604051808383808284378083019250505092505050908152602001604051809103902060005054905061084a565b92915050565b603760005060205280600052604060002060009150909054906101000a900460ff1681565b60366000508181548110151561088757fe5b906000526020600020900160005b9150909054906101000a900473ffffffffffffffffffffffffffffffffffffffff1681565b60346000505481565b6000603d60005060008381526020019081526020016000206000505490506108e6565b919050565b6060603960005060008381526020019081526020016000206000508054600181600116156101000203166002900480601f01602080910402602001604051908101604052809291908181526020018280546001816001161561010002031660029004801561099a5780601f1061096f5761010080835404028352916020019161099a565b820191906000526020600020905b81548152906001019060200180831161097d57829003601f168201915b505050505090506109a6565b919050565b6000603e600050600083600019166000191681526020019081526020016000206000505490506109d6565b919050565b60006000838360405160200180838380828437808301925050509250505060405160208183030381529060405280519060200120905083836039600050600060346000505481526020019081526020016000206000509190610a3e929190611060565b50603460005054603a600050858560405180838380828437808301925050509250505090815260200160405180910390206000508190909055508383603b600050600084600019166000191681526020019081526020016000206000509190610aa8929190611060565b5080603c600050858560405180838380828437808301925050509250505090815260200160405180910390206000508190906000191690555080603d6000506000603460005054815260200190815260200160002060005081909060001916905550603460005054603e60005060008360001916600019168152602001908152602001600020600050819090905550603f6000508190806001815401808255809150509060018203906000526020600020900160005b90919290919091509060001916905550604160005084849091806001815401808255809150509060018203906000526020600020900160005b9091929390919293909192909192509190610bb3929190611060565b5050604060005060346000505490806001815401808255809150509060018203906000526020600020900160005b90919290919091509090555080600019163373ffffffffffffffffffffffffffffffffffffffff167fea3ce421f944fb182977d78e1d8cc56be493e2910d5672cf407f2ebce8b8a274868660346000505460405180806020018381526020018281038252858582818152602001925080828437600081840152601f19601f82011690508083019250505094505050505060405180910390a360016034600050540160346000508190909055506001915050610c9856505b92915050565b60336000506020528060005260406000206000915090505481565b60386000505481565b60356000508054600181600116156101000203166002900480601f016020809104026020016040519081016040528092919081815260200182805460018160011615610100020316600290048015610d5b5780601f10610d3057610100808354040283529160200191610d5b565b820191906000526020600020905b815481529060010190602001808311610d3e57829003601f168201915b505050505081565b6000600060019054906101000a900460ff1680610d8a5750610d8961104863ffffffff16565b5b80610da25750600060009054906101000a900460ff16155b1515610df9576040517f08c379a000000000000000000000000000000000000000000000000000000000815260040180806020018281038252602e815260200180611196602e913960400191505060405180910390fd5b6000600060019054906101000a900460ff161590508015610e4b576001600060016101000a81548160ff0219169083151502179055506001600060006101000a81548160ff0219169083151502179055505b8260356000509080519060200190610e649291906110e5565b507f8b69fd8f705e3bab3f1aca5075cf9524555d661dc3b477c6bdba7388d04e56ad60356000503060405180806020018373ffffffffffffffffffffffffffffffffffffffff1673ffffffffffffffffffffffffffffffffffffffff168152602001828103825284818154600181600116156101000203166002900481526020019150805460018160011615610100020316600290048015610f475780601f10610f1c57610100808354040283529160200191610f47565b820191906000526020600020905b815481529060010190602001808311610f2a57829003601f168201915b5050935050505060405180910390a15b8015610f79576000600060016101000a81548160ff0219169083151502179055505b505b919050565b6060603b600050600083600019166000191681526020019081526020016000206000508054600181600116156101000203166002900480601f0160208091040260200160405190810160405280929190818152602001828054600181600116156101000203166002900480156110375780601f1061100c57610100808354040283529160200191611037565b820191906000526020600020905b81548152906001019060200180831161101a57829003601f168201915b50505050509050611043565b919050565b60006000303b90506000811491505061105d56505b90565b828054600181600116156101000203166002900490600052602060002090601f016020900481019282601f106110a157803560ff19168380011785556110d4565b828001600101855582156110d4579182015b828111156110d357823582600050909055916020019190600101906110b3565b5b5090506110e1919061116a565b5090565b828054600181600116156101000203166002900490600052602060002090601f016020900481019282601f1061112657805160ff1916838001178555611159565b82800160010185558215611159579182015b828111156111585782518260005090905591602001919060010190611138565b5b509050611166919061116a565b5090565b6111929190611174565b8082111561118e5760008181506000905550600101611174565b5090565b9056fe436f6e747261637420696e7374616e63652068617320616c7265616479206265656e20696e697469616c697a6564a265627a7a72305820288af8f7112c2816030c29a4c1acd13f3088c1cce2ac18d12054a9190d2600b764736f6c634300050a0032","compiler":{"name":"solc","version":"0.5.10+commit.5a6ea5b1.Emscripten.clang","optimizer":{},"evmVersion":"constantinople"}}