{
  "contractName": "WordDao",
  "abi": [
    {
      "constant": true,
      "inputs": [],
      "name": "ERC721Token",
      "outputs": [
        {
          "name": "",
          "type": "address"
        }
      ],
      "payable": false,
      "stateMutability": "view",
      "type": "function"
    },
    {
      "constant": true,
      "inputs": [],
      "name": "ERC20Token",
      "outputs": [
        {
          "name": "",
          "type": "address"
        }
      ],
      "payable": false,
      "stateMutability": "view",
      "type": "function"
    },
    {
      "anonymous": false,
      "inputs": [
        {
          "indexed": false,
          "name": "ERC20Token",
          "type": "address"
        }
      ],
      "name": "ERC20TokenAttached",
      "type": "event"
    },
    {
      "anonymous": false,
      "inputs": [
        {
          "indexed": false,
          "name": "ERC721Token",
          "type": "address"
        }
      ],
      "name": "ERC721TokenAttached",
      "type": "event"
    },
    {
      "constant": false,
      "inputs": [
        {
          "name": "_ERC20Token",
          "type": "address"
        },
        {
          "name": "_ERC721Token",
          "type": "address"
        }
      ],
      "name": "initialize",
      "outputs": [],
      "payable": false,
      "stateMutability": "nonpayable",
      "type": "function"
    }
  ],
  "bytecode": "0x608060405234801561001057600080fd5b506104d6806100206000396000f3fe608060405260043610610057576000357c0100000000000000000000000000000000000000000000000000000000900463ffffffff168063485cc9551461005c57806377a714ae146100cd5780637a80760e14610124575b600080fd5b34801561006857600080fd5b506100cb6004803603604081101561007f57600080fd5b81019080803573ffffffffffffffffffffffffffffffffffffffff169060200190929190803573ffffffffffffffffffffffffffffffffffffffff16906020019092919050505061017b565b005b3480156100d957600080fd5b506100e261044d565b604051808273ffffffffffffffffffffffffffffffffffffffff1673ffffffffffffffffffffffffffffffffffffffff16815260200191505060405180910390f35b34801561013057600080fd5b50610139610473565b604051808273ffffffffffffffffffffffffffffffffffffffff1673ffffffffffffffffffffffffffffffffffffffff16815260200191505060405180910390f35b600060019054906101000a900460ff168061019a5750610199610499565b5b806101b157506000809054906101000a900460ff16155b151561024b576040517f08c379a000000000000000000000000000000000000000000000000000000000815260040180806020018281038252602e8152602001807f436f6e747261637420696e7374616e63652068617320616c726561647920626581526020017f656e20696e697469616c697a656400000000000000000000000000000000000081525060400191505060405180910390fd5b60008060019054906101000a900460ff16159050801561029b576001600060016101000a81548160ff02191690831515021790555060016000806101000a81548160ff0219169083151502179055505b82603360006101000a81548173ffffffffffffffffffffffffffffffffffffffff021916908373ffffffffffffffffffffffffffffffffffffffff16021790555081603460006101000a81548173ffffffffffffffffffffffffffffffffffffffff021916908373ffffffffffffffffffffffffffffffffffffffff1602179055507fe0c1b11029647c92604a058131e61b8d353ea3c2a8de878012b10be3bbd97ec8603360009054906101000a900473ffffffffffffffffffffffffffffffffffffffff16604051808273ffffffffffffffffffffffffffffffffffffffff1673ffffffffffffffffffffffffffffffffffffffff16815260200191505060405180910390a17f7b3894cbc6ef20b3eb3f6f5cc0730028abd27976e3fe274a188a1d8a9b4fba0a603460009054906101000a900473ffffffffffffffffffffffffffffffffffffffff16604051808273ffffffffffffffffffffffffffffffffffffffff1673ffffffffffffffffffffffffffffffffffffffff16815260200191505060405180910390a180156104485760008060016101000a81548160ff0219169083151502179055505b505050565b603460009054906101000a900473ffffffffffffffffffffffffffffffffffffffff1681565b603360009054906101000a900473ffffffffffffffffffffffffffffffffffffffff1681565b600080303b9050600081149150509056fea165627a7a72305820343f56148bf6fc7b19ba9f2fd1f649a741aed349ef7f8f28968dde94f4e0bb5a0029",
  "source": "pragma solidity ^0.5.0;\n\nimport \"zos-lib/contracts/Initializable.sol\";\nimport \"openzeppelin-solidity/contracts/token/ERC20/ERC20Mintable.sol\";\nimport \"openzeppelin-solidity/contracts/token/ERC721/ERC721MetadataMintable.sol\";\n\n//import \"validate Word\";\n//import \"solidity crud\";\n//import \"dao\";\n//import \"withdrawDividents\";\n//import \"external contract access\";\n\ncontract WordDao is Initializable {\n\n    \n// erc721 nft\n// validateWord validWord\n// soliditycrud crud\n// DAO dao\n// WithdrawDividends\n// externalcontract ExternalContract\n\n    ERC20Mintable public ERC20Token;\n    ERC721MetadataMintable public ERC721Token;\n\n    event ERC20TokenAttached(address ERC20Token);\n    event ERC721TokenAttached(address ERC721Token);\n\n    function initialize (ERC20Mintable _ERC20Token, ERC721MetadataMintable _ERC721Token) public initializer {\n        ERC20Token = _ERC20Token;\n        ERC721Token = _ERC721Token;\n\n        emit ERC20TokenAttached(address(ERC20Token));\n        emit ERC721TokenAttached(address(ERC721Token));\n\n    }\n\n\n}",
  "sourcePath": "/Users/dennison/Documents/word-dao/contracts/WordDao.sol",
  "compiler": {
    "name": "solc",
    "version": "0.5.0+commit.1d4f565a.Emscripten.clang"
  },
  "schemaVersion": "3.0.11",
  "updatedAt": "2019-07-16T20:44:59.063Z",
  "devdoc": {
    "methods": {}
  },
  "userdoc": {
    "methods": {}
  }
}