{
  "contractName": "WordDao",
  "abi": [
    {
      "constant": true,
      "inputs": [],
      "name": "name",
      "outputs": [
        {
          "name": "",
          "type": "string"
        }
      ],
      "payable": false,
      "stateMutability": "view",
      "type": "function"
    },
    {
      "constant": false,
      "inputs": [
        {
          "name": "spender",
          "type": "address"
        },
        {
          "name": "value",
          "type": "uint256"
        }
      ],
      "name": "approve",
      "outputs": [
        {
          "name": "",
          "type": "bool"
        }
      ],
      "payable": false,
      "stateMutability": "nonpayable",
      "type": "function"
    },
    {
      "constant": true,
      "inputs": [],
      "name": "totalSupply",
      "outputs": [
        {
          "name": "",
          "type": "uint256"
        }
      ],
      "payable": false,
      "stateMutability": "view",
      "type": "function"
    },
    {
      "constant": false,
      "inputs": [
        {
          "name": "from",
          "type": "address"
        },
        {
          "name": "to",
          "type": "address"
        },
        {
          "name": "value",
          "type": "uint256"
        }
      ],
      "name": "transferFrom",
      "outputs": [
        {
          "name": "",
          "type": "bool"
        }
      ],
      "payable": false,
      "stateMutability": "nonpayable",
      "type": "function"
    },
    {
      "constant": true,
      "inputs": [],
      "name": "decimals",
      "outputs": [
        {
          "name": "",
          "type": "uint8"
        }
      ],
      "payable": false,
      "stateMutability": "view",
      "type": "function"
    },
    {
      "constant": false,
      "inputs": [
        {
          "name": "spender",
          "type": "address"
        },
        {
          "name": "addedValue",
          "type": "uint256"
        }
      ],
      "name": "increaseAllowance",
      "outputs": [
        {
          "name": "success",
          "type": "bool"
        }
      ],
      "payable": false,
      "stateMutability": "nonpayable",
      "type": "function"
    },
    {
      "constant": false,
      "inputs": [],
      "name": "unpause",
      "outputs": [],
      "payable": false,
      "stateMutability": "nonpayable",
      "type": "function"
    },
    {
      "constant": false,
      "inputs": [
        {
          "name": "to",
          "type": "address"
        },
        {
          "name": "value",
          "type": "uint256"
        }
      ],
      "name": "mint",
      "outputs": [
        {
          "name": "",
          "type": "bool"
        }
      ],
      "payable": false,
      "stateMutability": "nonpayable",
      "type": "function"
    },
    {
      "constant": true,
      "inputs": [
        {
          "name": "account",
          "type": "address"
        }
      ],
      "name": "isPauser",
      "outputs": [
        {
          "name": "",
          "type": "bool"
        }
      ],
      "payable": false,
      "stateMutability": "view",
      "type": "function"
    },
    {
      "constant": true,
      "inputs": [],
      "name": "paused",
      "outputs": [
        {
          "name": "",
          "type": "bool"
        }
      ],
      "payable": false,
      "stateMutability": "view",
      "type": "function"
    },
    {
      "constant": false,
      "inputs": [],
      "name": "renouncePauser",
      "outputs": [],
      "payable": false,
      "stateMutability": "nonpayable",
      "type": "function"
    },
    {
      "constant": true,
      "inputs": [
        {
          "name": "owner",
          "type": "address"
        }
      ],
      "name": "balanceOf",
      "outputs": [
        {
          "name": "",
          "type": "uint256"
        }
      ],
      "payable": false,
      "stateMutability": "view",
      "type": "function"
    },
    {
      "constant": false,
      "inputs": [
        {
          "name": "account",
          "type": "address"
        }
      ],
      "name": "addPauser",
      "outputs": [],
      "payable": false,
      "stateMutability": "nonpayable",
      "type": "function"
    },
    {
      "constant": false,
      "inputs": [],
      "name": "pause",
      "outputs": [],
      "payable": false,
      "stateMutability": "nonpayable",
      "type": "function"
    },
    {
      "constant": true,
      "inputs": [],
      "name": "symbol",
      "outputs": [
        {
          "name": "",
          "type": "string"
        }
      ],
      "payable": false,
      "stateMutability": "view",
      "type": "function"
    },
    {
      "constant": false,
      "inputs": [
        {
          "name": "account",
          "type": "address"
        }
      ],
      "name": "addMinter",
      "outputs": [],
      "payable": false,
      "stateMutability": "nonpayable",
      "type": "function"
    },
    {
      "constant": false,
      "inputs": [],
      "name": "renounceMinter",
      "outputs": [],
      "payable": false,
      "stateMutability": "nonpayable",
      "type": "function"
    },
    {
      "constant": false,
      "inputs": [
        {
          "name": "spender",
          "type": "address"
        },
        {
          "name": "subtractedValue",
          "type": "uint256"
        }
      ],
      "name": "decreaseAllowance",
      "outputs": [
        {
          "name": "success",
          "type": "bool"
        }
      ],
      "payable": false,
      "stateMutability": "nonpayable",
      "type": "function"
    },
    {
      "constant": false,
      "inputs": [
        {
          "name": "to",
          "type": "address"
        },
        {
          "name": "value",
          "type": "uint256"
        }
      ],
      "name": "transfer",
      "outputs": [
        {
          "name": "",
          "type": "bool"
        }
      ],
      "payable": false,
      "stateMutability": "nonpayable",
      "type": "function"
    },
    {
      "constant": true,
      "inputs": [
        {
          "name": "account",
          "type": "address"
        }
      ],
      "name": "isMinter",
      "outputs": [
        {
          "name": "",
          "type": "bool"
        }
      ],
      "payable": false,
      "stateMutability": "view",
      "type": "function"
    },
    {
      "constant": true,
      "inputs": [
        {
          "name": "owner",
          "type": "address"
        },
        {
          "name": "spender",
          "type": "address"
        }
      ],
      "name": "allowance",
      "outputs": [
        {
          "name": "",
          "type": "uint256"
        }
      ],
      "payable": false,
      "stateMutability": "view",
      "type": "function"
    },
    {
      "anonymous": false,
      "inputs": [
        {
          "indexed": false,
          "name": "_adder",
          "type": "address"
        },
        {
          "indexed": false,
          "name": "word",
          "type": "string"
        }
      ],
      "name": "wordAdded",
      "type": "event"
    },
    {
      "anonymous": false,
      "inputs": [
        {
          "indexed": false,
          "name": "account",
          "type": "address"
        }
      ],
      "name": "Paused",
      "type": "event"
    },
    {
      "anonymous": false,
      "inputs": [
        {
          "indexed": false,
          "name": "account",
          "type": "address"
        }
      ],
      "name": "Unpaused",
      "type": "event"
    },
    {
      "anonymous": false,
      "inputs": [
        {
          "indexed": true,
          "name": "account",
          "type": "address"
        }
      ],
      "name": "PauserAdded",
      "type": "event"
    },
    {
      "anonymous": false,
      "inputs": [
        {
          "indexed": true,
          "name": "account",
          "type": "address"
        }
      ],
      "name": "PauserRemoved",
      "type": "event"
    },
    {
      "anonymous": false,
      "inputs": [
        {
          "indexed": true,
          "name": "account",
          "type": "address"
        }
      ],
      "name": "MinterAdded",
      "type": "event"
    },
    {
      "anonymous": false,
      "inputs": [
        {
          "indexed": true,
          "name": "account",
          "type": "address"
        }
      ],
      "name": "MinterRemoved",
      "type": "event"
    },
    {
      "anonymous": false,
      "inputs": [
        {
          "indexed": true,
          "name": "from",
          "type": "address"
        },
        {
          "indexed": true,
          "name": "to",
          "type": "address"
        },
        {
          "indexed": false,
          "name": "value",
          "type": "uint256"
        }
      ],
      "name": "Transfer",
      "type": "event"
    },
    {
      "anonymous": false,
      "inputs": [
        {
          "indexed": true,
          "name": "owner",
          "type": "address"
        },
        {
          "indexed": true,
          "name": "spender",
          "type": "address"
        },
        {
          "indexed": false,
          "name": "value",
          "type": "uint256"
        }
      ],
      "name": "Approval",
      "type": "event"
    },
    {
      "constant": false,
      "inputs": [
        {
          "name": "name",
          "type": "string"
        },
        {
          "name": "symbol",
          "type": "string"
        },
        {
          "name": "decimals",
          "type": "uint8"
        }
      ],
      "name": "initialize",
      "outputs": [],
      "payable": false,
      "stateMutability": "nonpayable",
      "type": "function"
    },
    {
      "constant": false,
      "inputs": [
        {
          "name": "name",
          "type": "string"
        },
        {
          "name": "symbol",
          "type": "string"
        },
        {
          "name": "decimals",
          "type": "uint8"
        },
        {
          "name": "minters",
          "type": "address[]"
        },
        {
          "name": "pausers",
          "type": "address[]"
        }
      ],
      "name": "initialize",
      "outputs": [],
      "payable": false,
      "stateMutability": "nonpayable",
      "type": "function"
    },
    {
      "constant": false,
      "inputs": [
        {
          "name": "name",
          "type": "string"
        },
        {
          "name": "symbol",
          "type": "string"
        },
        {
          "name": "decimals",
          "type": "uint8"
        },
        {
          "name": "initialSupply",
          "type": "uint256"
        },
        {
          "name": "initialHolder",
          "type": "address"
        },
        {
          "name": "minters",
          "type": "address[]"
        },
        {
          "name": "pausers",
          "type": "address[]"
        }
      ],
      "name": "initialize",
      "outputs": [],
      "payable": false,
      "stateMutability": "nonpayable",
      "type": "function"
    },
    {
      "constant": false,
      "inputs": [
        {
          "name": "sender",
          "type": "address"
        }
      ],
      "name": "initialize",
      "outputs": [],
      "payable": false,
      "stateMutability": "nonpayable",
      "type": "function"
    },
    {
      "constant": false,
      "inputs": [
        {
          "name": "word",
          "type": "string"
        }
      ],
      "name": "setWord",
      "outputs": [],
      "payable": true,
      "stateMutability": "payable",
      "type": "function"
    },
    {
      "constant": false,
      "inputs": [
        {
          "name": "word",
          "type": "string"
        }
      ],
      "name": "getWordNumber",
      "outputs": [
        {
          "name": "",
          "type": "uint256"
        }
      ],
      "payable": false,
      "stateMutability": "nonpayable",
      "type": "function"
    },
    {
      "constant": false,
      "inputs": [
        {
          "name": "wordNumber",
          "type": "uint256"
        }
      ],
      "name": "getNumberWord",
      "outputs": [
        {
          "name": "",
          "type": "string"
        }
      ],
      "payable": false,
      "stateMutability": "nonpayable",
      "type": "function"
    },
    {
      "constant": true,
      "inputs": [],
      "name": "getTotalWords",
      "outputs": [
        {
          "name": "",
          "type": "uint256"
        }
      ],
      "payable": false,
      "stateMutability": "view",
      "type": "function"
    },
    {
      "constant": true,
      "inputs": [],
      "name": "getBalance",
      "outputs": [
        {
          "name": "",
          "type": "uint256"
        }
      ],
      "payable": false,
      "stateMutability": "view",
      "type": "function"
    },
    {
      "constant": true,
      "inputs": [],
      "name": "getTotalRequests",
      "outputs": [
        {
          "name": "",
          "type": "uint256"
        }
      ],
      "payable": false,
      "stateMutability": "view",
      "type": "function"
    }
  ],
  "bytecode": "0x608060405234801561001057600080fd5b50613630806100206000396000f3fe60806040526004361061018b576000357c0100000000000000000000000000000000000000000000000000000000900463ffffffff16806306fdde0314610190578063095ea7b31461022057806312065fe0146102935780631624f6c6146102be57806318160ddd1461042a57806323b872dd1461045557806331392b4a146104e8578063313ce5671461077c57806339509351146107ad5780633e66093b146108205780633f4ba83a146108ba57806340c10f19146108d157806346fbf68e1461094457806348be01c6146109ad5780635c975abb14610c6b5780636ef8d66d14610c9a57806370a0823114610cb157806382dc1ec414610d165780638456cb5914610d6757806395d89b4114610d7e578063983b2d5614610e0e5780639865027514610e5f578063a457c2d714610e76578063a9059cbb14610ee9578063aa271e1a14610f5c578063ad01ebf914610fc5578063c4d66de814611079578063c93194fe146110ca578063cd048de6146110f5578063dd62ed3e146111b0578063f0e22d5214611235575b600080fd5b34801561019c57600080fd5b506101a5611260565b6040518080602001828103825283818151815260200191508051906020019080838360005b838110156101e55780820151818401526020810190506101ca565b50505050905090810190601f1680156102125780820380516001836020036101000a031916815260200191505b509250505060405180910390f35b34801561022c57600080fd5b506102796004803603604081101561024357600080fd5b81019080803573ffffffffffffffffffffffffffffffffffffffff16906020019092919080359060200190929190505050611302565b604051808215151515815260200191505060405180910390f35b34801561029f57600080fd5b506102a8611333565b6040518082815260200191505060405180910390f35b3480156102ca57600080fd5b50610428600480360360608110156102e157600080fd5b81019080803590602001906401000000008111156102fe57600080fd5b82018360208201111561031057600080fd5b8035906020019184600183028401116401000000008311171561033257600080fd5b91908080601f016020809104026020016040519081016040528093929190818152602001838380828437600081840152601f19601f8201169050808301925050505050505091929192908035906020019064010000000081111561039557600080fd5b8201836020820111156103a757600080fd5b803590602001918460018302840111640100000000831117156103c957600080fd5b91908080601f016020809104026020016040519081016040528093929190818152602001838380828437600081840152601f19601f820116905080830192505050505050509192919290803560ff169060200190929190505050611352565b005b34801561043657600080fd5b5061043f6114d3565b6040518082815260200191505060405180910390f35b34801561046157600080fd5b506104ce6004803603606081101561047857600080fd5b81019080803573ffffffffffffffffffffffffffffffffffffffff169060200190929190803573ffffffffffffffffffffffffffffffffffffffff169060200190929190803590602001909291905050506114dd565b604051808215151515815260200191505060405180910390f35b3480156104f457600080fd5b5061077a600480360360a081101561050b57600080fd5b810190808035906020019064010000000081111561052857600080fd5b82018360208201111561053a57600080fd5b8035906020019184600183028401116401000000008311171561055c57600080fd5b91908080601f016020809104026020016040519081016040528093929190818152602001838380828437600081840152601f19601f820116905080830192505050505050509192919290803590602001906401000000008111156105bf57600080fd5b8201836020820111156105d157600080fd5b803590602001918460018302840111640100000000831117156105f357600080fd5b91908080601f016020809104026020016040519081016040528093929190818152602001838380828437600081840152601f19601f820116905080830192505050505050509192919290803560ff1690602001909291908035906020019064010000000081111561066357600080fd5b82018360208201111561067557600080fd5b8035906020019184602083028401116401000000008311171561069757600080fd5b919080806020026020016040519081016040528093929190818152602001838360200280828437600081840152601f19601f820116905080830192505050505050509192919290803590602001906401000000008111156106f757600080fd5b82018360208201111561070957600080fd5b8035906020019184602083028401116401000000008311171561072b57600080fd5b919080806020026020016040519081016040528093929190818152602001838360200280828437600081840152601f19601f820116905080830192505050505050509192919290505050611510565b005b34801561078857600080fd5b506107916116ef565b604051808260ff1660ff16815260200191505060405180910390f35b3480156107b957600080fd5b50610806600480360360408110156107d057600080fd5b81019080803573ffffffffffffffffffffffffffffffffffffffff16906020019092919080359060200190929190505050611706565b604051808215151515815260200191505060405180910390f35b34801561082c57600080fd5b506108a46004803603602081101561084357600080fd5b810190808035906020019064010000000081111561086057600080fd5b82018360208201111561087257600080fd5b8035906020019184600183028401116401000000008311171561089457600080fd5b9091929391929390505050611737565b6040518082815260200191505060405180910390f35b3480156108c657600080fd5b506108cf611777565b005b3480156108dd57600080fd5b5061092a600480360360408110156108f457600080fd5b81019080803573ffffffffffffffffffffffffffffffffffffffff16906020019092919080359060200190929190505050611828565b604051808215151515815260200191505060405180910390f35b34801561095057600080fd5b506109936004803603602081101561096757600080fd5b81019080803573ffffffffffffffffffffffffffffffffffffffff169060200190929190505050611852565b604051808215151515815260200191505060405180910390f35b3480156109b957600080fd5b50610c69600480360360e08110156109d057600080fd5b81019080803590602001906401000000008111156109ed57600080fd5b8201836020820111156109ff57600080fd5b80359060200191846001830284011164010000000083111715610a2157600080fd5b91908080601f016020809104026020016040519081016040528093929190818152602001838380828437600081840152601f19601f82011690508083019250505050505050919291929080359060200190640100000000811115610a8457600080fd5b820183602082011115610a9657600080fd5b80359060200191846001830284011164010000000083111715610ab857600080fd5b91908080601f016020809104026020016040519081016040528093929190818152602001838380828437600081840152601f19601f820116905080830192505050505050509192919290803560ff16906020019092919080359060200190929190803573ffffffffffffffffffffffffffffffffffffffff16906020019092919080359060200190640100000000811115610b5257600080fd5b820183602082011115610b6457600080fd5b80359060200191846020830284011164010000000083111715610b8657600080fd5b919080806020026020016040519081016040528093929190818152602001838360200280828437600081840152601f19601f82011690508083019250505050505050919291929080359060200190640100000000811115610be657600080fd5b820183602082011115610bf857600080fd5b80359060200191846020830284011164010000000083111715610c1a57600080fd5b919080806020026020016040519081016040528093929190818152602001838360200280828437600081840152601f19601f820116905080830192505050505050509192919290505050611870565b005b348015610c7757600080fd5b50610c80611a5b565b604051808215151515815260200191505060405180910390f35b348015610ca657600080fd5b50610caf611a73565b005b348015610cbd57600080fd5b50610d0060048036036020811015610cd457600080fd5b81019080803573ffffffffffffffffffffffffffffffffffffffff169060200190929190505050611a7e565b6040518082815260200191505060405180910390f35b348015610d2257600080fd5b50610d6560048036036020811015610d3957600080fd5b81019080803573ffffffffffffffffffffffffffffffffffffffff169060200190929190505050611ac7565b005b348015610d7357600080fd5b50610d7c611ae7565b005b348015610d8a57600080fd5b50610d93611b99565b6040518080602001828103825283818151815260200191508051906020019080838360005b83811015610dd3578082015181840152602081019050610db8565b50505050905090810190601f168015610e005780820380516001836020036101000a031916815260200191505b509250505060405180910390f35b348015610e1a57600080fd5b50610e5d60048036036020811015610e3157600080fd5b81019080803573ffffffffffffffffffffffffffffffffffffffff169060200190929190505050611c3b565b005b348015610e6b57600080fd5b50610e74611c5b565b005b348015610e8257600080fd5b50610ecf60048036036040811015610e9957600080fd5b81019080803573ffffffffffffffffffffffffffffffffffffffff16906020019092919080359060200190929190505050611c66565b604051808215151515815260200191505060405180910390f35b348015610ef557600080fd5b50610f4260048036036040811015610f0c57600080fd5b81019080803573ffffffffffffffffffffffffffffffffffffffff16906020019092919080359060200190929190505050611c97565b604051808215151515815260200191505060405180910390f35b348015610f6857600080fd5b50610fab60048036036020811015610f7f57600080fd5b81019080803573ffffffffffffffffffffffffffffffffffffffff169060200190929190505050611cc8565b604051808215151515815260200191505060405180910390f35b348015610fd157600080fd5b50610ffe60048036036020811015610fe857600080fd5b8101908080359060200190929190505050611ce5565b6040518080602001828103825283818151815260200191508051906020019080838360005b8381101561103e578082015181840152602081019050611023565b50505050905090810190601f16801561106b5780820380516001836020036101000a031916815260200191505b509250505060405180910390f35b34801561108557600080fd5b506110c86004803603602081101561109c57600080fd5b81019080803573ffffffffffffffffffffffffffffffffffffffff169060200190929190505050611da3565b005b3480156110d657600080fd5b506110df611ee2565b6040518082815260200191505060405180910390f35b6111ae6004803603602081101561110b57600080fd5b810190808035906020019064010000000081111561112857600080fd5b82018360208201111561113a57600080fd5b8035906020019184600183028401116401000000008311171561115c57600080fd5b91908080601f016020809104026020016040519081016040528093929190818152602001838380828437600081840152601f19601f820116905080830192505050505050509192919290505050611eed565b005b3480156111bc57600080fd5b5061121f600480360360408110156111d357600080fd5b81019080803573ffffffffffffffffffffffffffffffffffffffff169060200190929190803573ffffffffffffffffffffffffffffffffffffffff1690602001909291905050506120f4565b6040518082815260200191505060405180910390f35b34801561124157600080fd5b5061124a61217b565b6040518082815260200191505060405180910390f35b606060338054600181600116156101000203166002900480601f0160208091040260200160405190810160405280929190818152602001828054600181600116156101000203166002900480156112f85780601f106112cd576101008083540402835291602001916112f8565b820191906000526020600020905b8154815290600101906020018083116112db57829003601f168201915b5050505050905090565b600061013560009054906101000a900460ff1615151561132157600080fd5b61132b8383612186565b905092915050565b60003073ffffffffffffffffffffffffffffffffffffffff1631905090565b600060019054906101000a900460ff168061137157506113706122b3565b5b8061138857506000809054906101000a900460ff16155b1515611422576040517f08c379a000000000000000000000000000000000000000000000000000000000815260040180806020018281038252602e8152602001807f436f6e747261637420696e7374616e63652068617320616c726561647920626581526020017f656e20696e697469616c697a656400000000000000000000000000000000000081525060400191505060405180910390fd5b60008060019054906101000a900460ff1690506001600060016101000a81548160ff02191690831515021790555060016000806101000a81548160ff021916908315150217905550836033908051906020019061148092919061355f565b50826034908051906020019061149792919061355f565b5081603560006101000a81548160ff021916908360ff16021790555080600060016101000a81548160ff02191690831515021790555050505050565b6000606a54905090565b600061013560009054906101000a900460ff161515156114fc57600080fd5b6115078484846122c4565b90509392505050565b600060019054906101000a900460ff168061152f575061152e6122b3565b5b8061154657506000809054906101000a900460ff16155b15156115e0576040517f08c379a000000000000000000000000000000000000000000000000000000000815260040180806020018281038252602e8152602001807f436f6e747261637420696e7374616e63652068617320616c726561647920626581526020017f656e20696e697469616c697a656400000000000000000000000000000000000081525060400191505060405180910390fd5b60008060019054906101000a900460ff1690506001600060016101000a81548160ff02191690831515021790555060016000806101000a81548160ff021916908315150217905550611633868686611352565b61163c306124cc565b6116453061260b565b61164e30611da3565b61165730612665565b60008090505b835181101561169157611686848281518110151561167757fe5b906020019060200201516126c0565b80600101905061165d565b5060008090505b82518110156116cc576116c183828151811015156116b257fe5b9060200190602002015161271a565b806001019050611698565b5080600060016101000a81548160ff021916908315150217905550505050505050565b6000603560009054906101000a900460ff16905090565b600061013560009054906101000a900460ff1615151561172557600080fd5b61172f8383612775565b905092915050565b60008061019b8484604051808383808284378083019250505092505050908152602001604051809103902054905061176d6129ac565b8091505092915050565b61178033611852565b151561178b57600080fd5b61013560009054906101000a900460ff1615156117a757600080fd5b600061013560006101000a81548160ff0219169083151502179055507f5db9ee0a495bf2e6ff9c91a7834c1ba4fdd244a5e8aa4e537bd38aeae4b073aa33604051808273ffffffffffffffffffffffffffffffffffffffff1673ffffffffffffffffffffffffffffffffffffffff16815260200191505060405180910390a1565b600061183333611cc8565b151561183e57600080fd5b61184883836129bc565b6001905092915050565b600061186982610102612b1290919063ffffffff16565b9050919050565b600060019054906101000a900460ff168061188f575061188e6122b3565b5b806118a657506000809054906101000a900460ff16155b1515611940576040517f08c379a000000000000000000000000000000000000000000000000000000000815260040180806020018281038252602e8152602001807f436f6e747261637420696e7374616e63652068617320616c726561647920626581526020017f656e20696e697469616c697a656400000000000000000000000000000000000081525060400191505060405180910390fd5b60008060019054906101000a900460ff1690506001600060016101000a81548160ff02191690831515021790555060016000806101000a81548160ff021916908315150217905550611993888888611352565b61199d84866129bc565b6119a6306124cc565b6119af3061260b565b6119b830611da3565b6119c130612665565b60008090505b83518110156119fb576119f084828151811015156119e157fe5b906020019060200201516126c0565b8060010190506119c7565b5060008090505b8251811015611a3657611a2b8382815181101515611a1c57fe5b9060200190602002015161271a565b806001019050611a02565b5080600060016101000a81548160ff0219169083151502179055505050505050505050565b600061013560009054906101000a900460ff16905090565b611a7c33612665565b565b6000606860008373ffffffffffffffffffffffffffffffffffffffff1673ffffffffffffffffffffffffffffffffffffffff168152602001908152602001600020549050919050565b611ad033611852565b1515611adb57600080fd5b611ae48161271a565b50565b611af033611852565b1515611afb57600080fd5b61013560009054906101000a900460ff16151515611b1857600080fd5b600161013560006101000a81548160ff0219169083151502179055507f62e78cea01bee320cd4e420270b5ea74000d11b0c9f74754ebdbfc544b05a25833604051808273ffffffffffffffffffffffffffffffffffffffff1673ffffffffffffffffffffffffffffffffffffffff16815260200191505060405180910390a1565b606060348054600181600116156101000203166002900480601f016020809104026020016040519081016040528092919081815260200182805460018160011615610100020316600290048015611c315780601f10611c0657610100808354040283529160200191611c31565b820191906000526020600020905b815481529060010190602001808311611c1457829003601f168201915b5050505050905090565b611c4433611cc8565b1515611c4f57600080fd5b611c58816126c0565b50565b611c643361260b565b565b600061013560009054906101000a900460ff16151515611c8557600080fd5b611c8f8383612ba6565b905092915050565b600061013560009054906101000a900460ff16151515611cb657600080fd5b611cc08383612ddd565b905092915050565b6000611cde82609d612b1290919063ffffffff16565b9050919050565b6060611cef6129ac565b61019a60008381526020019081526020016000208054600181600116156101000203166002900480601f016020809104026020016040519081016040528092919081815260200182805460018160011615610100020316600290048015611d975780601f10611d6c57610100808354040283529160200191611d97565b820191906000526020600020905b815481529060010190602001808311611d7a57829003601f168201915b50505050509050919050565b600060019054906101000a900460ff1680611dc25750611dc16122b3565b5b80611dd957506000809054906101000a900460ff16155b1515611e73576040517f08c379a000000000000000000000000000000000000000000000000000000000815260040180806020018281038252602e8152602001807f436f6e747261637420696e7374616e63652068617320616c726561647920626581526020017f656e20696e697469616c697a656400000000000000000000000000000000000081525060400191505060405180910390fd5b60008060019054906101000a900460ff1690506001600060016101000a81548160ff02191690831515021790555060016000806101000a81548160ff021916908315150217905550611ec482612df4565b80600060016101000a81548160ff0219169083151502179055505050565b600061019c54905090565b600061019b826040518082805190602001908083835b602083101515611f285780518252602082019150602081019050602083039250611f03565b6001836020036101000a038019825116818451168082178552505050505050905001915050908152602001604051809103902054141515611f6857600080fd5b600161019c540161019c819055508061019a600061019c5481526020019081526020016000209080519060200190611fa192919061355f565b5061019c5461019b826040518082805190602001908083835b602083101515611fdf5780518252602082019150602081019050602083039250611fba565b6001836020036101000a0380198251168184511680821785525050505050509050019150509081526020016040518091039020819055507febc218e6ab93d61f161d887888c0c1c2313f1f5ff3f100c4a70c8a642ccce5af3382604051808373ffffffffffffffffffffffffffffffffffffffff1673ffffffffffffffffffffffffffffffffffffffff16815260200180602001828103825283818151815260200191508051906020019080838360005b838110156120ab578082015181840152602081019050612090565b50505050905090810190601f1680156120d85780820380516001836020036101000a031916815260200191505b50935050505060405180910390a16120f13360016129bc565b50565b6000606960008473ffffffffffffffffffffffffffffffffffffffff1673ffffffffffffffffffffffffffffffffffffffff16815260200190815260200160002060008373ffffffffffffffffffffffffffffffffffffffff1673ffffffffffffffffffffffffffffffffffffffff16815260200190815260200160002054905092915050565b600061019d54905090565b60008073ffffffffffffffffffffffffffffffffffffffff168373ffffffffffffffffffffffffffffffffffffffff16141515156121c357600080fd5b81606960003373ffffffffffffffffffffffffffffffffffffffff1673ffffffffffffffffffffffffffffffffffffffff16815260200190815260200160002060008573ffffffffffffffffffffffffffffffffffffffff1673ffffffffffffffffffffffffffffffffffffffff168152602001908152602001600020819055508273ffffffffffffffffffffffffffffffffffffffff163373ffffffffffffffffffffffffffffffffffffffff167f8c5be1e5ebec7d5bd14f71427d1e84f3dd0314c0f7b2291e5b200ac8c7c3b925846040518082815260200191505060405180910390a36001905092915050565b600080303b90506000811491505090565b600061235582606960008773ffffffffffffffffffffffffffffffffffffffff1673ffffffffffffffffffffffffffffffffffffffff16815260200190815260200160002060003373ffffffffffffffffffffffffffffffffffffffff1673ffffffffffffffffffffffffffffffffffffffff16815260200190815260200160002054612f4f90919063ffffffff16565b606960008673ffffffffffffffffffffffffffffffffffffffff1673ffffffffffffffffffffffffffffffffffffffff16815260200190815260200160002060003373ffffffffffffffffffffffffffffffffffffffff1673ffffffffffffffffffffffffffffffffffffffff168152602001908152602001600020819055506123e0848484612f71565b3373ffffffffffffffffffffffffffffffffffffffff168473ffffffffffffffffffffffffffffffffffffffff167f8c5be1e5ebec7d5bd14f71427d1e84f3dd0314c0f7b2291e5b200ac8c7c3b925606960008873ffffffffffffffffffffffffffffffffffffffff1673ffffffffffffffffffffffffffffffffffffffff16815260200190815260200160002060003373ffffffffffffffffffffffffffffffffffffffff1673ffffffffffffffffffffffffffffffffffffffff168152602001908152602001600020546040518082815260200191505060405180910390a3600190509392505050565b600060019054906101000a900460ff16806124eb57506124ea6122b3565b5b8061250257506000809054906101000a900460ff16155b151561259c576040517f08c379a000000000000000000000000000000000000000000000000000000000815260040180806020018281038252602e8152602001807f436f6e747261637420696e7374616e63652068617320616c726561647920626581526020017f656e20696e697469616c697a656400000000000000000000000000000000000081525060400191505060405180910390fd5b60008060019054906101000a900460ff1690506001600060016101000a81548160ff02191690831515021790555060016000806101000a81548160ff0219169083151502179055506125ed82613141565b80600060016101000a81548160ff0219169083151502179055505050565b61261f81609d61329090919063ffffffff16565b8073ffffffffffffffffffffffffffffffffffffffff167fe94479a9f7e1952cc78f2d6baab678adc1b772d936c6583def489e524cb6669260405160405180910390a250565b61267a8161010261329090919063ffffffff16565b8073ffffffffffffffffffffffffffffffffffffffff167fcd265ebaf09df2871cc7bd4133404a235ba12eff2041bb89d9c714a2621c7c7e60405160405180910390a250565b6126d481609d61333f90919063ffffffff16565b8073ffffffffffffffffffffffffffffffffffffffff167f6ae172837ea30b801fbfcdd4108aa1d5bf8ff775444fd70256b44e6bf3dfc3f660405160405180910390a250565b61272f8161010261333f90919063ffffffff16565b8073ffffffffffffffffffffffffffffffffffffffff167f6719d08c1888103bea251a4ed56406bd0c3e69723c8a1686e017e7bbe159b6f860405160405180910390a250565b60008073ffffffffffffffffffffffffffffffffffffffff168373ffffffffffffffffffffffffffffffffffffffff16141515156127b257600080fd5b61284182606960003373ffffffffffffffffffffffffffffffffffffffff1673ffffffffffffffffffffffffffffffffffffffff16815260200190815260200160002060008673ffffffffffffffffffffffffffffffffffffffff1673ffffffffffffffffffffffffffffffffffffffff168152602001908152602001600020546133ef90919063ffffffff16565b606960003373ffffffffffffffffffffffffffffffffffffffff1673ffffffffffffffffffffffffffffffffffffffff16815260200190815260200160002060008573ffffffffffffffffffffffffffffffffffffffff1673ffffffffffffffffffffffffffffffffffffffff168152602001908152602001600020819055508273ffffffffffffffffffffffffffffffffffffffff163373ffffffffffffffffffffffffffffffffffffffff167f8c5be1e5ebec7d5bd14f71427d1e84f3dd0314c0f7b2291e5b200ac8c7c3b925606960003373ffffffffffffffffffffffffffffffffffffffff1673ffffffffffffffffffffffffffffffffffffffff16815260200190815260200160002060008773ffffffffffffffffffffffffffffffffffffffff1673ffffffffffffffffffffffffffffffffffffffff168152602001908152602001600020546040518082815260200191505060405180910390a36001905092915050565b600161019d540161019d81905550565b600073ffffffffffffffffffffffffffffffffffffffff168273ffffffffffffffffffffffffffffffffffffffff16141515156129f857600080fd5b612a0d81606a546133ef90919063ffffffff16565b606a81905550612a6581606860008573ffffffffffffffffffffffffffffffffffffffff1673ffffffffffffffffffffffffffffffffffffffff168152602001908152602001600020546133ef90919063ffffffff16565b606860008473ffffffffffffffffffffffffffffffffffffffff1673ffffffffffffffffffffffffffffffffffffffff168152602001908152602001600020819055508173ffffffffffffffffffffffffffffffffffffffff16600073ffffffffffffffffffffffffffffffffffffffff167fddf252ad1be2c89b69c2b068fc378daa952ba7f163c4a11628f55a4df523b3ef836040518082815260200191505060405180910390a35050565b60008073ffffffffffffffffffffffffffffffffffffffff168273ffffffffffffffffffffffffffffffffffffffff1614151515612b4f57600080fd5b8260000160008373ffffffffffffffffffffffffffffffffffffffff1673ffffffffffffffffffffffffffffffffffffffff16815260200190815260200160002060009054906101000a900460ff16905092915050565b60008073ffffffffffffffffffffffffffffffffffffffff168373ffffffffffffffffffffffffffffffffffffffff1614151515612be357600080fd5b612c7282606960003373ffffffffffffffffffffffffffffffffffffffff1673ffffffffffffffffffffffffffffffffffffffff16815260200190815260200160002060008673ffffffffffffffffffffffffffffffffffffffff1673ffffffffffffffffffffffffffffffffffffffff16815260200190815260200160002054612f4f90919063ffffffff16565b606960003373ffffffffffffffffffffffffffffffffffffffff1673ffffffffffffffffffffffffffffffffffffffff16815260200190815260200160002060008573ffffffffffffffffffffffffffffffffffffffff1673ffffffffffffffffffffffffffffffffffffffff168152602001908152602001600020819055508273ffffffffffffffffffffffffffffffffffffffff163373ffffffffffffffffffffffffffffffffffffffff167f8c5be1e5ebec7d5bd14f71427d1e84f3dd0314c0f7b2291e5b200ac8c7c3b925606960003373ffffffffffffffffffffffffffffffffffffffff1673ffffffffffffffffffffffffffffffffffffffff16815260200190815260200160002060008773ffffffffffffffffffffffffffffffffffffffff1673ffffffffffffffffffffffffffffffffffffffff168152602001908152602001600020546040518082815260200191505060405180910390a36001905092915050565b6000612dea338484612f71565b6001905092915050565b600060019054906101000a900460ff1680612e135750612e126122b3565b5b80612e2a57506000809054906101000a900460ff16155b1515612ec4576040517f08c379a000000000000000000000000000000000000000000000000000000000815260040180806020018281038252602e8152602001807f436f6e747261637420696e7374616e63652068617320616c726561647920626581526020017f656e20696e697469616c697a656400000000000000000000000000000000000081525060400191505060405180910390fd5b60008060019054906101000a900460ff1690506001600060016101000a81548160ff02191690831515021790555060016000806101000a81548160ff021916908315150217905550612f1582613410565b600061013560006101000a81548160ff02191690831515021790555080600060016101000a81548160ff0219169083151502179055505050565b6000828211151515612f6057600080fd5b600082840390508091505092915050565b600073ffffffffffffffffffffffffffffffffffffffff168273ffffffffffffffffffffffffffffffffffffffff1614151515612fad57600080fd5b612fff81606860008673ffffffffffffffffffffffffffffffffffffffff1673ffffffffffffffffffffffffffffffffffffffff16815260200190815260200160002054612f4f90919063ffffffff16565b606860008573ffffffffffffffffffffffffffffffffffffffff1673ffffffffffffffffffffffffffffffffffffffff1681526020019081526020016000208190555061309481606860008573ffffffffffffffffffffffffffffffffffffffff1673ffffffffffffffffffffffffffffffffffffffff168152602001908152602001600020546133ef90919063ffffffff16565b606860008473ffffffffffffffffffffffffffffffffffffffff1673ffffffffffffffffffffffffffffffffffffffff168152602001908152602001600020819055508173ffffffffffffffffffffffffffffffffffffffff168373ffffffffffffffffffffffffffffffffffffffff167fddf252ad1be2c89b69c2b068fc378daa952ba7f163c4a11628f55a4df523b3ef836040518082815260200191505060405180910390a3505050565b600060019054906101000a900460ff1680613160575061315f6122b3565b5b8061317757506000809054906101000a900460ff16155b1515613211576040517f08c379a000000000000000000000000000000000000000000000000000000000815260040180806020018281038252602e8152602001807f436f6e747261637420696e7374616e63652068617320616c726561647920626581526020017f656e20696e697469616c697a656400000000000000000000000000000000000081525060400191505060405180910390fd5b60008060019054906101000a900460ff1690506001600060016101000a81548160ff02191690831515021790555060016000806101000a81548160ff02191690831515021790555061326282611cc8565b151561327257613271826126c0565b5b80600060016101000a81548160ff0219169083151502179055505050565b600073ffffffffffffffffffffffffffffffffffffffff168173ffffffffffffffffffffffffffffffffffffffff16141515156132cc57600080fd5b6132d68282612b12565b15156132e157600080fd5b60008260000160008373ffffffffffffffffffffffffffffffffffffffff1673ffffffffffffffffffffffffffffffffffffffff16815260200190815260200160002060006101000a81548160ff0219169083151502179055505050565b600073ffffffffffffffffffffffffffffffffffffffff168173ffffffffffffffffffffffffffffffffffffffff161415151561337b57600080fd5b6133858282612b12565b15151561339157600080fd5b60018260000160008373ffffffffffffffffffffffffffffffffffffffff1673ffffffffffffffffffffffffffffffffffffffff16815260200190815260200160002060006101000a81548160ff0219169083151502179055505050565b600080828401905083811015151561340657600080fd5b8091505092915050565b600060019054906101000a900460ff168061342f575061342e6122b3565b5b8061344657506000809054906101000a900460ff16155b15156134e0576040517f08c379a000000000000000000000000000000000000000000000000000000000815260040180806020018281038252602e8152602001807f436f6e747261637420696e7374616e63652068617320616c726561647920626581526020017f656e20696e697469616c697a656400000000000000000000000000000000000081525060400191505060405180910390fd5b60008060019054906101000a900460ff1690506001600060016101000a81548160ff02191690831515021790555060016000806101000a81548160ff02191690831515021790555061353182611852565b1515613541576135408261271a565b5b80600060016101000a81548160ff0219169083151502179055505050565b828054600181600116156101000203166002900490600052602060002090601f016020900481019282601f106135a057805160ff19168380011785556135ce565b828001600101855582156135ce579182015b828111156135cd5782518255916020019190600101906135b2565b5b5090506135db91906135df565b5090565b61360191905b808211156135fd5760008160009055506001016135e5565b5090565b9056fea165627a7a72305820a707b4255bbe94afa826d4d16dfdd8da4eb047fe6077e1952e0fc11e169d90f00029",
  "source": "pragma solidity >=0.4.24 <0.6.0;\n\nimport \"zos-lib/contracts/Initializable.sol\";\nimport \"openzeppelin-eth/contracts/token/ERC20//ERC20Detailed.sol\";\nimport \"openzeppelin-eth/contracts/token/ERC20//ERC20Mintable.sol\";\nimport \"openzeppelin-eth/contracts/token/ERC20//ERC20Pausable.sol\";\n//import \"openzeppelin-eth/contracts/token/ERC20/ERC20.sol\";\n\ncontract WordDao is Initializable, ERC20Detailed, ERC20Mintable, ERC20Pausable {\n    \n    mapping (uint256 => string) internal _numberByWords;\n    mapping (string => uint256) internal _wordByNumber;\n    uint internal _totalWords;\n    uint internal _totalRequests;\n\n    event wordAdded(address _adder, string word);\n\n     function initialize(\n        string memory name, string memory symbol, uint8 decimals, uint256 initialSupply, address initialHolder,\n        address[] memory minters, address[] memory pausers\n    ) public initializer {\n        ERC20Detailed.initialize(name, symbol, decimals);\n\n        // Mint the initial supply\n        _mint(initialHolder, initialSupply);\n\n        // Initialize the minter and pauser roles, and renounce them\n        ERC20Mintable.initialize(address(this));\n        _removeMinter(address(this));\n\n        ERC20Pausable.initialize(address(this));\n        _removePauser(address(this));\n\n        // Add the requested minters and pausers (this can be done after renouncing since\n        // these are the internal calls)\n        for (uint256 i = 0; i < minters.length; ++i) {\n            _addMinter(minters[i]);\n        }\n\n        for (uint256 i = 0; i < pausers.length; ++i) {\n            _addPauser(pausers[i]);\n        }\n    }\n\n    function initialize(\n        string memory name, string memory symbol, uint8 decimals, address[] memory minters, address[] memory pausers\n    ) public initializer {\n        ERC20Detailed.initialize(name, symbol, decimals);\n\n        // Initialize the minter and pauser roles, and renounce them\n        ERC20Mintable.initialize(address(this));\n        _removeMinter(address(this));\n\n        ERC20Pausable.initialize(address(this));\n        _removePauser(address(this));\n\n        // Add the requested minters and pausers (this can be done after renouncing since\n        // these are the internal calls)\n        for (uint256 i = 0; i < minters.length; ++i) {\n            _addMinter(minters[i]);\n        }\n\n        for (uint256 i = 0; i < pausers.length; ++i) {\n            _addPauser(pausers[i]);\n        }\n    }\n\n\n\n    function setWord(string memory word) public payable{\n    //require(msg.value == 1 ether);\n    \n        //word = _toLower(word);\n        require(_wordByNumber[word] == 0);\n        \n        _totalWords = _totalWords + 1;\n        _numberByWords[_totalWords] = word;\n        _wordByNumber[word] = _totalWords;\n        emit wordAdded(msg.sender, word);\n        _mint(msg.sender, 1);\n    }\n\n    function _incrementCounter() internal {\n        _totalRequests = _totalRequests + 1;\n    }\n    \n    function getWordNumber(string calldata word) external returns(uint256){\n        uint256 returnword= _wordByNumber[word];\n        _incrementCounter();\n        return returnword;\n    }\n    \n    function getNumberWord(uint wordNumber) external returns (string memory){\n        _incrementCounter();\n        return _numberByWords[wordNumber];\n    }\n    \n    function getTotalWords() public view returns(uint256){\n        return _totalWords;\n    }\n    \n    function getBalance() public view returns(uint256){\n        return address(this).balance;\n    }\n\n    function getTotalRequests() public view returns(uint256){\n        return _totalRequests;\n    }\n    \n    // function _toLower(string memory str) internal returns (string memory) {\n    //     bytes memory bStr = bytes(str);\n    //     bytes memory bLower = new bytes(bStr.length);\n    //     for (uint i = 0; i < bStr.length; i++) {\n    //         // Uppercase character...\n    //         if ((bStr[i] >= 65) && (bStr[i] <= 90)) {\n    //             // So we add 32 to make it lowercase\n    //             bLower[i] = bytes1(int(bStr[i]) + 32);\n    //         } else {\n    //             bLower[i] = bStr[i];\n    //         }\n    //     }\n    //     return string(bLower);\n    // }\n    \n}\n",
  "sourcePath": "/Users/dennisonzeppelin/Documents/word-dao/contracts/WordDao.sol",
  "compiler": {
    "name": "solc",
    "version": "0.5.0+commit.1d4f565a.Emscripten.clang"
  },
  "schemaVersion": "3.0.1",
  "updatedAt": "2019-02-06T12:46:53.282Z",
  "devdoc": {
    "methods": {
      "allowance(address,address)": {
        "details": "Function to check the amount of tokens that an owner allowed to a spender.",
        "params": {
          "owner": "address The address which owns the funds.",
          "spender": "address The address which will spend the funds."
        },
        "return": "A uint256 specifying the amount of tokens still available for the spender."
      },
      "balanceOf(address)": {
        "details": "Gets the balance of the specified address.",
        "params": {
          "owner": "The address to query the balance of."
        },
        "return": "An uint256 representing the amount owned by the passed address."
      },
      "decimals()": {
        "return": "the number of decimals of the token."
      },
      "mint(address,uint256)": {
        "details": "Function to mint tokens",
        "params": {
          "to": "The address that will receive the minted tokens.",
          "value": "The amount of tokens to mint."
        },
        "return": "A boolean that indicates if the operation was successful."
      },
      "name()": {
        "return": "the name of the token."
      },
      "pause()": {
        "details": "called by the owner to pause, triggers stopped state"
      },
      "paused()": {
        "return": "true if the contract is paused, false otherwise."
      },
      "symbol()": {
        "return": "the symbol of the token."
      },
      "totalSupply()": {
        "details": "Total number of tokens in existence"
      },
      "unpause()": {
        "details": "called by the owner to unpause, returns to normal state"
      }
    }
  },
  "userdoc": {
    "methods": {}
  }
}